{
  "contractName": "NFTea",
  "abi": [
    {
      "inputs": [],
      "stateMutability": "nonpayable",
      "type": "constructor"
    },
    {
      "anonymous": false,
      "inputs": [
        {
          "indexed": true,
          "internalType": "address",
          "name": "owner",
          "type": "address"
        },
        {
          "indexed": true,
          "internalType": "address",
          "name": "approved",
          "type": "address"
        },
        {
          "indexed": true,
          "internalType": "uint256",
          "name": "tokenId",
          "type": "uint256"
        }
      ],
      "name": "Approval",
      "type": "event"
    },
    {
      "anonymous": false,
      "inputs": [
        {
          "indexed": true,
          "internalType": "address",
          "name": "owner",
          "type": "address"
        },
        {
          "indexed": true,
          "internalType": "address",
          "name": "operator",
          "type": "address"
        },
        {
          "indexed": false,
          "internalType": "bool",
          "name": "approved",
          "type": "bool"
        }
      ],
      "name": "ApprovalForAll",
      "type": "event"
    },
    {
      "anonymous": false,
      "inputs": [
        {
          "indexed": true,
          "internalType": "address",
          "name": "from",
          "type": "address"
        },
        {
          "indexed": true,
          "internalType": "address",
          "name": "to",
          "type": "address"
        },
        {
          "indexed": true,
          "internalType": "uint256",
          "name": "tokenId",
          "type": "uint256"
        }
      ],
      "name": "Transfer",
      "type": "event"
    },
    {
      "inputs": [
        {
          "internalType": "address",
          "name": "to",
          "type": "address"
        },
        {
          "internalType": "uint256",
          "name": "tokenId",
          "type": "uint256"
        }
      ],
      "name": "approve",
      "outputs": [],
      "stateMutability": "nonpayable",
      "type": "function"
    },
    {
      "inputs": [
        {
          "internalType": "address",
          "name": "owner",
          "type": "address"
        }
      ],
      "name": "balanceOf",
      "outputs": [
        {
          "internalType": "uint256",
          "name": "",
          "type": "uint256"
        }
      ],
      "stateMutability": "view",
      "type": "function",
      "constant": true
    },
    {
      "inputs": [
        {
          "internalType": "uint256",
          "name": "",
          "type": "uint256"
        }
      ],
      "name": "contents",
      "outputs": [
        {
          "internalType": "uint256",
          "name": "id",
          "type": "uint256"
        },
        {
          "internalType": "uint256",
          "name": "publisherId",
          "type": "uint256"
        },
        {
          "internalType": "address",
          "name": "publisherAddress",
          "type": "address"
        },
        {
          "internalType": "string",
          "name": "mediaType",
          "type": "string"
        },
        {
          "internalType": "string",
          "name": "URL",
          "type": "string"
        },
        {
          "internalType": "string",
          "name": "permaLink",
          "type": "string"
        },
        {
          "internalType": "string",
          "name": "thumbnailURL",
          "type": "string"
        },
        {
          "internalType": "string",
          "name": "timestamp",
          "type": "string"
        },
        {
          "internalType": "string",
          "name": "publisherUsername",
          "type": "string"
        },
        {
          "internalType": "string",
          "name": "caption",
          "type": "string"
        }
      ],
      "stateMutability": "view",
      "type": "function",
      "constant": true
    },
    {
      "inputs": [],
      "name": "don",
      "outputs": [
        {
          "internalType": "string",
          "name": "",
          "type": "string"
        }
      ],
      "stateMutability": "view",
      "type": "function",
      "constant": true
    },
    {
      "inputs": [
        {
          "internalType": "uint256",
          "name": "tokenId",
          "type": "uint256"
        }
      ],
      "name": "getApproved",
      "outputs": [
        {
          "internalType": "address",
          "name": "",
          "type": "address"
        }
      ],
      "stateMutability": "view",
      "type": "function",
      "constant": true
    },
    {
      "inputs": [
        {
          "internalType": "address",
          "name": "owner",
          "type": "address"
        },
        {
          "internalType": "address",
          "name": "operator",
          "type": "address"
        }
      ],
      "name": "isApprovedForAll",
      "outputs": [
        {
          "internalType": "bool",
          "name": "",
          "type": "bool"
        }
      ],
      "stateMutability": "view",
      "type": "function",
      "constant": true
    },
    {
      "inputs": [],
      "name": "name",
      "outputs": [
        {
          "internalType": "string",
          "name": "",
          "type": "string"
        }
      ],
      "stateMutability": "view",
      "type": "function",
      "constant": true
    },
    {
      "inputs": [
        {
          "internalType": "uint256",
          "name": "tokenId",
          "type": "uint256"
        }
      ],
      "name": "ownerOf",
      "outputs": [
        {
          "internalType": "address",
          "name": "",
          "type": "address"
        }
      ],
      "stateMutability": "view",
      "type": "function",
      "constant": true
    },
    {
      "inputs": [
        {
          "internalType": "address",
          "name": "from",
          "type": "address"
        },
        {
          "internalType": "address",
          "name": "to",
          "type": "address"
        },
        {
          "internalType": "uint256",
          "name": "tokenId",
          "type": "uint256"
        }
      ],
      "name": "safeTransferFrom",
      "outputs": [],
      "stateMutability": "nonpayable",
      "type": "function"
    },
    {
      "inputs": [
        {
          "internalType": "address",
          "name": "from",
          "type": "address"
        },
        {
          "internalType": "address",
          "name": "to",
          "type": "address"
        },
        {
          "internalType": "uint256",
          "name": "tokenId",
          "type": "uint256"
        },
        {
          "internalType": "bytes",
          "name": "_data",
          "type": "bytes"
        }
      ],
      "name": "safeTransferFrom",
      "outputs": [],
      "stateMutability": "nonpayable",
      "type": "function"
    },
    {
      "inputs": [
        {
          "internalType": "address",
          "name": "operator",
          "type": "address"
        },
        {
          "internalType": "bool",
          "name": "approved",
          "type": "bool"
        }
      ],
      "name": "setApprovalForAll",
      "outputs": [],
      "stateMutability": "nonpayable",
      "type": "function"
    },
    {
      "inputs": [
        {
          "internalType": "bytes4",
          "name": "interfaceId",
          "type": "bytes4"
        }
      ],
      "name": "supportsInterface",
      "outputs": [
        {
          "internalType": "bool",
          "name": "",
          "type": "bool"
        }
      ],
      "stateMutability": "view",
      "type": "function",
      "constant": true
    },
    {
      "inputs": [],
      "name": "symbol",
      "outputs": [
        {
          "internalType": "string",
          "name": "",
          "type": "string"
        }
      ],
      "stateMutability": "view",
      "type": "function",
      "constant": true
    },
    {
      "inputs": [
        {
          "internalType": "uint256",
          "name": "tokenId",
          "type": "uint256"
        }
      ],
      "name": "tokenURI",
      "outputs": [
        {
          "internalType": "string",
          "name": "",
          "type": "string"
        }
      ],
      "stateMutability": "view",
      "type": "function",
      "constant": true
    },
    {
      "inputs": [
        {
          "internalType": "address",
          "name": "from",
          "type": "address"
        },
        {
          "internalType": "address",
          "name": "to",
          "type": "address"
        },
        {
          "internalType": "uint256",
          "name": "tokenId",
          "type": "uint256"
        }
      ],
      "name": "transferFrom",
      "outputs": [],
      "stateMutability": "nonpayable",
      "type": "function"
    },
    {
      "inputs": [
        {
          "internalType": "uint256",
          "name": "id",
          "type": "uint256"
        },
        {
          "internalType": "uint256",
          "name": "publisherId",
          "type": "uint256"
        },
        {
          "internalType": "address",
          "name": "publisherAddress",
          "type": "address"
        },
        {
          "internalType": "string",
          "name": "mediaType",
          "type": "string"
        },
        {
          "internalType": "string",
          "name": "URL",
          "type": "string"
        },
        {
          "internalType": "string",
          "name": "permaLink",
          "type": "string"
        },
        {
          "internalType": "string",
          "name": "thumbnailURL",
          "type": "string"
        },
        {
          "internalType": "string",
          "name": "timestamp",
          "type": "string"
        },
        {
          "internalType": "string",
          "name": "publisherUsername",
          "type": "string"
        },
        {
          "internalType": "string",
          "name": "caption",
          "type": "string"
        }
      ],
      "name": "mintNFTea",
      "outputs": [
        {
          "internalType": "uint256",
          "name": "",
          "type": "uint256"
        }
      ],
      "stateMutability": "nonpayable",
      "type": "function"
    }
  ],
  "bytecode": "0x60806040526040518060400160405280600581526020017f646f6e7574000000000000000000000000000000000000000000000000000000815250600690805190602001906200005192919062000106565b503480156200005f57600080fd5b506040518060400160405280600681526020017f4e462d54454100000000000000000000000000000000000000000000000000008152506040518060400160405280600581526020017f4e465445410000000000000000000000000000000000000000000000000000008152508160009080519060200190620000e492919062000106565b508060019080519060200190620000fd92919062000106565b5050506200021b565b8280546200011490620001e5565b90600052602060002090601f01602090048101928262000138576000855562000184565b82601f106200015357805160ff191683800117855562000184565b8280016001018555821562000184579182015b828111156200018357825182559160200191906001019062000166565b5b50905062000193919062000197565b5090565b5b80821115620001b257600081600090555060010162000198565b5090565b7f4e487b7100000000000000000000000000000000000000000000000000000000600052602260045260246000fd5b60006002820490506001821680620001fe57607f821691505b60208210811415620002155762000214620001b6565b5b50919050565b6132a4806200022b6000396000f3fe608060405234801561001057600080fd5b50600436106101005760003560e01c806370a0823111610097578063b5ecf91211610066578063b5ecf912146102bf578063b88d4fde146102f8578063c87b56dd14610314578063e985e9c51461034457610100565b806370a082311461023757806381a5ce3b1461026757806395d89b4114610285578063a22cb465146102a357610100565b806323b872dd116100d357806323b872dd1461019f57806342842e0e146101bb57806355db95e3146101d75780636352211e1461020757610100565b806301ffc9a71461010557806306fdde0314610135578063081812fc14610153578063095ea7b314610183575b600080fd5b61011f600480360381019061011a9190611e84565b610374565b60405161012c9190611ecc565b60405180910390f35b61013d610456565b60405161014a9190611f80565b60405180910390f35b61016d60048036038101906101689190611fd8565b6104e8565b60405161017a9190612046565b60405180910390f35b61019d6004803603810190610198919061208d565b61056d565b005b6101b960048036038101906101b491906120cd565b610685565b005b6101d560048036038101906101d091906120cd565b6106e5565b005b6101f160048036038101906101ec9190612255565b610705565b6040516101fe9190612407565b60405180910390f35b610221600480360381019061021c9190611fd8565b610960565b60405161022e9190612046565b60405180910390f35b610251600480360381019061024c9190612422565b610a12565b60405161025e9190612407565b60405180910390f35b61026f610aca565b60405161027c9190611f80565b60405180910390f35b61028d610b58565b60405161029a9190611f80565b60405180910390f35b6102bd60048036038101906102b8919061247b565b610bea565b005b6102d960048036038101906102d49190611fd8565b610c00565b6040516102ef9a999897969594939291906124bb565b60405180910390f35b610312600480360381019061030d9190612629565b61102c565b005b61032e60048036038101906103299190611fd8565b61108e565b60405161033b9190611f80565b60405180910390f35b61035e600480360381019061035991906126ac565b611135565b60405161036b9190611ecc565b60405180910390f35b60007f80ac58cd000000000000000000000000000000000000000000000000000000007bffffffffffffffffffffffffffffffffffffffffffffffffffffffff1916827bffffffffffffffffffffffffffffffffffffffffffffffffffffffff1916148061043f57507f5b5e139f000000000000000000000000000000000000000000000000000000007bffffffffffffffffffffffffffffffffffffffffffffffffffffffff1916827bffffffffffffffffffffffffffffffffffffffffffffffffffffffff1916145b8061044f575061044e826111c9565b5b9050919050565b6060600080546104659061271b565b80601f01602080910402602001604051908101604052809291908181526020018280546104919061271b565b80156104de5780601f106104b3576101008083540402835291602001916104de565b820191906000526020600020905b8154815290600101906020018083116104c157829003601f168201915b5050505050905090565b60006104f382611233565b610532576040517f08c379a0000000000000000000000000000000000000000000000000000000008152600401610529906127bf565b60405180910390fd5b6004600083815260200190815260200160002060009054906101000a900473ffffffffffffffffffffffffffffffffffffffff169050919050565b600061057882610960565b90508073ffffffffffffffffffffffffffffffffffffffff168373ffffffffffffffffffffffffffffffffffffffff1614156105e9576040517f08c379a00000000000000000000000000000000000000000000000000000000081526004016105e090612851565b60405180910390fd5b8073ffffffffffffffffffffffffffffffffffffffff1661060861129f565b73ffffffffffffffffffffffffffffffffffffffff16148061063757506106368161063161129f565b611135565b5b610676576040517f08c379a000000000000000000000000000000000000000000000000000000000815260040161066d906128e3565b60405180910390fd5b61068083836112a7565b505050565b61069661069061129f565b82611360565b6106d5576040517f08c379a00000000000000000000000000000000000000000000000000000000081526004016106cc90612975565b60405180910390fd5b6106e083838361143e565b505050565b6107008383836040518060200160405280600081525061102c565b505050565b60008073ffffffffffffffffffffffffffffffffffffffff16600760008d815260200190815260200160002060020160009054906101000a900473ffffffffffffffffffffffffffffffffffffffff1673ffffffffffffffffffffffffffffffffffffffff16146107ab576040517f08c379a00000000000000000000000000000000000000000000000000000000081526004016107a290612a07565b60405180910390fd5b6040518061014001604052808c81526020018b81526020018a73ffffffffffffffffffffffffffffffffffffffff16815260200189815260200188815260200187815260200186815260200185815260200184815260200183815250600760008d8152602001908152602001600020600082015181600001556020820151816001015560408201518160020160006101000a81548173ffffffffffffffffffffffffffffffffffffffff021916908373ffffffffffffffffffffffffffffffffffffffff1602179055506060820151816003019080519060200190610891929190611d75565b5060808201518160040190805190602001906108ae929190611d75565b5060a08201518160050190805190602001906108cb929190611d75565b5060c08201518160060190805190602001906108e8929190611d75565b5060e0820151816007019080519060200190610905929190611d75565b50610100820151816008019080519060200190610923929190611d75565b50610120820151816009019080519060200190610941929190611d75565b5090505061094f898c6116a5565b8a90509a9950505050505050505050565b6000806002600084815260200190815260200160002060009054906101000a900473ffffffffffffffffffffffffffffffffffffffff169050600073ffffffffffffffffffffffffffffffffffffffff168173ffffffffffffffffffffffffffffffffffffffff161415610a09576040517f08c379a0000000000000000000000000000000000000000000000000000000008152600401610a0090612a99565b60405180910390fd5b80915050919050565b60008073ffffffffffffffffffffffffffffffffffffffff168273ffffffffffffffffffffffffffffffffffffffff161415610a83576040517f08c379a0000000000000000000000000000000000000000000000000000000008152600401610a7a90612b2b565b60405180910390fd5b600360008373ffffffffffffffffffffffffffffffffffffffff1673ffffffffffffffffffffffffffffffffffffffff168152602001908152602001600020549050919050565b60068054610ad79061271b565b80601f0160208091040260200160405190810160405280929190818152602001828054610b039061271b565b8015610b505780601f10610b2557610100808354040283529160200191610b50565b820191906000526020600020905b815481529060010190602001808311610b3357829003601f168201915b505050505081565b606060018054610b679061271b565b80601f0160208091040260200160405190810160405280929190818152602001828054610b939061271b565b8015610be05780601f10610bb557610100808354040283529160200191610be0565b820191906000526020600020905b815481529060010190602001808311610bc357829003601f168201915b5050505050905090565b610bfc610bf561129f565b838361187f565b5050565b60076020528060005260406000206000915090508060000154908060010154908060020160009054906101000a900473ffffffffffffffffffffffffffffffffffffffff1690806003018054610c559061271b565b80601f0160208091040260200160405190810160405280929190818152602001828054610c819061271b565b8015610cce5780601f10610ca357610100808354040283529160200191610cce565b820191906000526020600020905b815481529060010190602001808311610cb157829003601f168201915b505050505090806004018054610ce39061271b565b80601f0160208091040260200160405190810160405280929190818152602001828054610d0f9061271b565b8015610d5c5780601f10610d3157610100808354040283529160200191610d5c565b820191906000526020600020905b815481529060010190602001808311610d3f57829003601f168201915b505050505090806005018054610d719061271b565b80601f0160208091040260200160405190810160405280929190818152602001828054610d9d9061271b565b8015610dea5780601f10610dbf57610100808354040283529160200191610dea565b820191906000526020600020905b815481529060010190602001808311610dcd57829003601f168201915b505050505090806006018054610dff9061271b565b80601f0160208091040260200160405190810160405280929190818152602001828054610e2b9061271b565b8015610e785780601f10610e4d57610100808354040283529160200191610e78565b820191906000526020600020905b815481529060010190602001808311610e5b57829003601f168201915b505050505090806007018054610e8d9061271b565b80601f0160208091040260200160405190810160405280929190818152602001828054610eb99061271b565b8015610f065780601f10610edb57610100808354040283529160200191610f06565b820191906000526020600020905b815481529060010190602001808311610ee957829003601f168201915b505050505090806008018054610f1b9061271b565b80601f0160208091040260200160405190810160405280929190818152602001828054610f479061271b565b8015610f945780601f10610f6957610100808354040283529160200191610f94565b820191906000526020600020905b815481529060010190602001808311610f7757829003601f168201915b505050505090806009018054610fa99061271b565b80601f0160208091040260200160405190810160405280929190818152602001828054610fd59061271b565b80156110225780601f10610ff757610100808354040283529160200191611022565b820191906000526020600020905b81548152906001019060200180831161100557829003601f168201915b505050505090508a565b61103d61103761129f565b83611360565b61107c576040517f08c379a000000000000000000000000000000000000000000000000000000000815260040161107390612975565b60405180910390fd5b611088848484846119ec565b50505050565b606061109982611233565b6110d8576040517f08c379a00000000000000000000000000000000000000000000000000000000081526004016110cf90612bbd565b60405180910390fd5b60006110e2611a48565b90506000815111611102576040518060200160405280600081525061112d565b8061110c84611a5f565b60405160200161111d929190612c19565b6040516020818303038152906040525b915050919050565b6000600560008473ffffffffffffffffffffffffffffffffffffffff1673ffffffffffffffffffffffffffffffffffffffff16815260200190815260200160002060008373ffffffffffffffffffffffffffffffffffffffff1673ffffffffffffffffffffffffffffffffffffffff16815260200190815260200160002060009054906101000a900460ff16905092915050565b60007f01ffc9a7000000000000000000000000000000000000000000000000000000007bffffffffffffffffffffffffffffffffffffffffffffffffffffffff1916827bffffffffffffffffffffffffffffffffffffffffffffffffffffffff1916149050919050565b60008073ffffffffffffffffffffffffffffffffffffffff166002600084815260200190815260200160002060009054906101000a900473ffffffffffffffffffffffffffffffffffffffff1673ffffffffffffffffffffffffffffffffffffffff1614159050919050565b600033905090565b816004600083815260200190815260200160002060006101000a81548173ffffffffffffffffffffffffffffffffffffffff021916908373ffffffffffffffffffffffffffffffffffffffff160217905550808273ffffffffffffffffffffffffffffffffffffffff1661131a83610960565b73ffffffffffffffffffffffffffffffffffffffff167f8c5be1e5ebec7d5bd14f71427d1e84f3dd0314c0f7b2291e5b200ac8c7c3b92560405160405180910390a45050565b600061136b82611233565b6113aa576040517f08c379a00000000000000000000000000000000000000000000000000000000081526004016113a190612caf565b60405180910390fd5b60006113b583610960565b90508073ffffffffffffffffffffffffffffffffffffffff168473ffffffffffffffffffffffffffffffffffffffff16148061142457508373ffffffffffffffffffffffffffffffffffffffff1661140c846104e8565b73ffffffffffffffffffffffffffffffffffffffff16145b8061143557506114348185611135565b5b91505092915050565b8273ffffffffffffffffffffffffffffffffffffffff1661145e82610960565b73ffffffffffffffffffffffffffffffffffffffff16146114b4576040517f08c379a00000000000000000000000000000000000000000000000000000000081526004016114ab90612d41565b60405180910390fd5b600073ffffffffffffffffffffffffffffffffffffffff168273ffffffffffffffffffffffffffffffffffffffff161415611524576040517f08c379a000000000000000000000000000000000000000000000000000000000815260040161151b90612dd3565b60405180910390fd5b61152f838383611bc0565b61153a6000826112a7565b6001600360008573ffffffffffffffffffffffffffffffffffffffff1673ffffffffffffffffffffffffffffffffffffffff168152602001908152602001600020600082825461158a9190612e22565b925050819055506001600360008473ffffffffffffffffffffffffffffffffffffffff1673ffffffffffffffffffffffffffffffffffffffff16815260200190815260200160002060008282546115e19190612e56565b92505081905550816002600083815260200190815260200160002060006101000a81548173ffffffffffffffffffffffffffffffffffffffff021916908373ffffffffffffffffffffffffffffffffffffffff160217905550808273ffffffffffffffffffffffffffffffffffffffff168473ffffffffffffffffffffffffffffffffffffffff167fddf252ad1be2c89b69c2b068fc378daa952ba7f163c4a11628f55a4df523b3ef60405160405180910390a46116a0838383611bc5565b505050565b600073ffffffffffffffffffffffffffffffffffffffff168273ffffffffffffffffffffffffffffffffffffffff161415611715576040517f08c379a000000000000000000000000000000000000000000000000000000000815260040161170c90612ef8565b60405180910390fd5b61171e81611233565b1561175e576040517f08c379a000000000000000000000000000000000000000000000000000000000815260040161175590612f64565b60405180910390fd5b61176a60008383611bc0565b6001600360008473ffffffffffffffffffffffffffffffffffffffff1673ffffffffffffffffffffffffffffffffffffffff16815260200190815260200160002060008282546117ba9190612e56565b92505081905550816002600083815260200190815260200160002060006101000a81548173ffffffffffffffffffffffffffffffffffffffff021916908373ffffffffffffffffffffffffffffffffffffffff160217905550808273ffffffffffffffffffffffffffffffffffffffff16600073ffffffffffffffffffffffffffffffffffffffff167fddf252ad1be2c89b69c2b068fc378daa952ba7f163c4a11628f55a4df523b3ef60405160405180910390a461187b60008383611bc5565b5050565b8173ffffffffffffffffffffffffffffffffffffffff168373ffffffffffffffffffffffffffffffffffffffff1614156118ee576040517f08c379a00000000000000000000000000000000000000000000000000000000081526004016118e590612fd0565b60405180910390fd5b80600560008573ffffffffffffffffffffffffffffffffffffffff1673ffffffffffffffffffffffffffffffffffffffff16815260200190815260200160002060008473ffffffffffffffffffffffffffffffffffffffff1673ffffffffffffffffffffffffffffffffffffffff16815260200190815260200160002060006101000a81548160ff0219169083151502179055508173ffffffffffffffffffffffffffffffffffffffff168373ffffffffffffffffffffffffffffffffffffffff167f17307eab39ab6107e8899845ad3d59bd9653f200f220920489ca2b5937696c31836040516119df9190611ecc565b60405180910390a3505050565b6119f784848461143e565b611a0384848484611bca565b611a42576040517f08c379a0000000000000000000000000000000000000000000000000000000008152600401611a3990613062565b60405180910390fd5b50505050565b606060405180602001604052806000815250905090565b60606000821415611aa7576040518060400160405280600181526020017f30000000000000000000000000000000000000000000000000000000000000008152509050611bbb565b600082905060005b60008214611ad9578080611ac290613082565b915050600a82611ad291906130fa565b9150611aaf565b60008167ffffffffffffffff811115611af557611af461212a565b5b6040519080825280601f01601f191660200182016040528015611b275781602001600182028036833780820191505090505b5090505b60008514611bb457600182611b409190612e22565b9150600a85611b4f919061312b565b6030611b5b9190612e56565b60f81b818381518110611b7157611b7061315c565b5b60200101907effffffffffffffffffffffffffffffffffffffffffffffffffffffffffffff1916908160001a905350600a85611bad91906130fa565b9450611b2b565b8093505050505b919050565b505050565b505050565b6000611beb8473ffffffffffffffffffffffffffffffffffffffff16611d52565b15611d45578373ffffffffffffffffffffffffffffffffffffffff1663150b7a02611c1461129f565b8786866040518563ffffffff1660e01b8152600401611c3694939291906131e0565b6020604051808303816000875af1925050508015611c7257506040513d601f19601f82011682018060405250810190611c6f9190613241565b60015b611cf5573d8060008114611ca2576040519150601f19603f3d011682016040523d82523d6000602084013e611ca7565b606091505b50600081511415611ced576040517f08c379a0000000000000000000000000000000000000000000000000000000008152600401611ce490613062565b60405180910390fd5b805181602001fd5b63150b7a0260e01b7bffffffffffffffffffffffffffffffffffffffffffffffffffffffff1916817bffffffffffffffffffffffffffffffffffffffffffffffffffffffff191614915050611d4a565b600190505b949350505050565b6000808273ffffffffffffffffffffffffffffffffffffffff163b119050919050565b828054611d819061271b565b90600052602060002090601f016020900481019282611da35760008555611dea565b82601f10611dbc57805160ff1916838001178555611dea565b82800160010185558215611dea579182015b82811115611de9578251825591602001919060010190611dce565b5b509050611df79190611dfb565b5090565b5b80821115611e14576000816000905550600101611dfc565b5090565b6000604051905090565b600080fd5b600080fd5b60007fffffffff0000000000000000000000000000000000000000000000000000000082169050919050565b611e6181611e2c565b8114611e6c57600080fd5b50565b600081359050611e7e81611e58565b92915050565b600060208284031215611e9a57611e99611e22565b5b6000611ea884828501611e6f565b91505092915050565b60008115159050919050565b611ec681611eb1565b82525050565b6000602082019050611ee16000830184611ebd565b92915050565b600081519050919050565b600082825260208201905092915050565b60005b83811015611f21578082015181840152602081019050611f06565b83811115611f30576000848401525b50505050565b6000601f19601f8301169050919050565b6000611f5282611ee7565b611f5c8185611ef2565b9350611f6c818560208601611f03565b611f7581611f36565b840191505092915050565b60006020820190508181036000830152611f9a8184611f47565b905092915050565b6000819050919050565b611fb581611fa2565b8114611fc057600080fd5b50565b600081359050611fd281611fac565b92915050565b600060208284031215611fee57611fed611e22565b5b6000611ffc84828501611fc3565b91505092915050565b600073ffffffffffffffffffffffffffffffffffffffff82169050919050565b600061203082612005565b9050919050565b61204081612025565b82525050565b600060208201905061205b6000830184612037565b92915050565b61206a81612025565b811461207557600080fd5b50565b60008135905061208781612061565b92915050565b600080604083850312156120a4576120a3611e22565b5b60006120b285828601612078565b92505060206120c385828601611fc3565b9150509250929050565b6000806000606084860312156120e6576120e5611e22565b5b60006120f486828701612078565b935050602061210586828701612078565b925050604061211686828701611fc3565b9150509250925092565b600080fd5b600080fd5b7f4e487b7100000000000000000000000000000000000000000000000000000000600052604160045260246000fd5b61216282611f36565b810181811067ffffffffffffffff821117156121815761218061212a565b5b80604052505050565b6000612194611e18565b90506121a08282612159565b919050565b600067ffffffffffffffff8211156121c0576121bf61212a565b5b6121c982611f36565b9050602081019050919050565b82818337600083830152505050565b60006121f86121f3846121a5565b61218a565b90508281526020810184848401111561221457612213612125565b5b61221f8482856121d6565b509392505050565b600082601f83011261223c5761223b612120565b5b813561224c8482602086016121e5565b91505092915050565b6000806000806000806000806000806101408b8d03121561227957612278611e22565b5b60006122878d828e01611fc3565b9a505060206122988d828e01611fc3565b99505060406122a98d828e01612078565b98505060608b013567ffffffffffffffff8111156122ca576122c9611e27565b5b6122d68d828e01612227565b97505060808b013567ffffffffffffffff8111156122f7576122f6611e27565b5b6123038d828e01612227565b96505060a08b013567ffffffffffffffff81111561232457612323611e27565b5b6123308d828e01612227565b95505060c08b013567ffffffffffffffff81111561235157612350611e27565b5b61235d8d828e01612227565b94505060e08b013567ffffffffffffffff81111561237e5761237d611e27565b5b61238a8d828e01612227565b9350506101008b013567ffffffffffffffff8111156123ac576123ab611e27565b5b6123b88d828e01612227565b9250506101208b013567ffffffffffffffff8111156123da576123d9611e27565b5b6123e68d828e01612227565b9150509295989b9194979a5092959850565b61240181611fa2565b82525050565b600060208201905061241c60008301846123f8565b92915050565b60006020828403121561243857612437611e22565b5b600061244684828501612078565b91505092915050565b61245881611eb1565b811461246357600080fd5b50565b6000813590506124758161244f565b92915050565b6000806040838503121561249257612491611e22565b5b60006124a085828601612078565b92505060206124b185828601612466565b9150509250929050565b6000610140820190506124d1600083018d6123f8565b6124de602083018c6123f8565b6124eb604083018b612037565b81810360608301526124fd818a611f47565b905081810360808301526125118189611f47565b905081810360a08301526125258188611f47565b905081810360c08301526125398187611f47565b905081810360e083015261254d8186611f47565b90508181036101008301526125628185611f47565b90508181036101208301526125778184611f47565b90509b9a5050505050505050505050565b600067ffffffffffffffff8211156125a3576125a261212a565b5b6125ac82611f36565b9050602081019050919050565b60006125cc6125c784612588565b61218a565b9050828152602081018484840111156125e8576125e7612125565b5b6125f38482856121d6565b509392505050565b600082601f8301126126105761260f612120565b5b81356126208482602086016125b9565b91505092915050565b6000806000806080858703121561264357612642611e22565b5b600061265187828801612078565b945050602061266287828801612078565b935050604061267387828801611fc3565b925050606085013567ffffffffffffffff81111561269457612693611e27565b5b6126a0878288016125fb565b91505092959194509250565b600080604083850312156126c3576126c2611e22565b5b60006126d185828601612078565b92505060206126e285828601612078565b9150509250929050565b7f4e487b7100000000000000000000000000000000000000000000000000000000600052602260045260246000fd5b6000600282049050600182168061273357607f821691505b60208210811415612747576127466126ec565b5b50919050565b7f4552433732313a20617070726f76656420717565727920666f72206e6f6e657860008201527f697374656e7420746f6b656e0000000000000000000000000000000000000000602082015250565b60006127a9602c83611ef2565b91506127b48261274d565b604082019050919050565b600060208201905081810360008301526127d88161279c565b9050919050565b7f4552433732313a20617070726f76616c20746f2063757272656e74206f776e6560008201527f7200000000000000000000000000000000000000000000000000000000000000602082015250565b600061283b602183611ef2565b9150612846826127df565b604082019050919050565b6000602082019050818103600083015261286a8161282e565b9050919050565b7f4552433732313a20617070726f76652063616c6c6572206973206e6f74206f7760008201527f6e6572206e6f7220617070726f76656420666f7220616c6c0000000000000000602082015250565b60006128cd603883611ef2565b91506128d882612871565b604082019050919050565b600060208201905081810360008301526128fc816128c0565b9050919050565b7f4552433732313a207472616e736665722063616c6c6572206973206e6f74206f60008201527f776e6572206e6f7220617070726f766564000000000000000000000000000000602082015250565b600061295f603183611ef2565b915061296a82612903565b604082019050919050565b6000602082019050818103600083015261298e81612952565b9050919050565b7f416e204e46542077697468207468617420636f6e74656e74204964206861732060008201527f616c7265616479206265656e206d696e7465642e000000000000000000000000602082015250565b60006129f1603483611ef2565b91506129fc82612995565b604082019050919050565b60006020820190508181036000830152612a20816129e4565b9050919050565b7f4552433732313a206f776e657220717565727920666f72206e6f6e657869737460008201527f656e7420746f6b656e0000000000000000000000000000000000000000000000602082015250565b6000612a83602983611ef2565b9150612a8e82612a27565b604082019050919050565b60006020820190508181036000830152612ab281612a76565b9050919050565b7f4552433732313a2062616c616e636520717565727920666f7220746865207a6560008201527f726f206164647265737300000000000000000000000000000000000000000000602082015250565b6000612b15602a83611ef2565b9150612b2082612ab9565b604082019050919050565b60006020820190508181036000830152612b4481612b08565b9050919050565b7f4552433732314d657461646174613a2055524920717565727920666f72206e6f60008201527f6e6578697374656e7420746f6b656e0000000000000000000000000000000000602082015250565b6000612ba7602f83611ef2565b9150612bb282612b4b565b604082019050919050565b60006020820190508181036000830152612bd681612b9a565b9050919050565b600081905092915050565b6000612bf382611ee7565b612bfd8185612bdd565b9350612c0d818560208601611f03565b80840191505092915050565b6000612c258285612be8565b9150612c318284612be8565b91508190509392505050565b7f4552433732313a206f70657261746f7220717565727920666f72206e6f6e657860008201527f697374656e7420746f6b656e0000000000000000000000000000000000000000602082015250565b6000612c99602c83611ef2565b9150612ca482612c3d565b604082019050919050565b60006020820190508181036000830152612cc881612c8c565b9050919050565b7f4552433732313a207472616e736665722066726f6d20696e636f72726563742060008201527f6f776e6572000000000000000000000000000000000000000000000000000000602082015250565b6000612d2b602583611ef2565b9150612d3682612ccf565b604082019050919050565b60006020820190508181036000830152612d5a81612d1e565b9050919050565b7f4552433732313a207472616e7366657220746f20746865207a65726f2061646460008201527f7265737300000000000000000000000000000000000000000000000000000000602082015250565b6000612dbd602483611ef2565b9150612dc882612d61565b604082019050919050565b60006020820190508181036000830152612dec81612db0565b9050919050565b7f4e487b7100000000000000000000000000000000000000000000000000000000600052601160045260246000fd5b6000612e2d82611fa2565b9150612e3883611fa2565b925082821015612e4b57612e4a612df3565b5b828203905092915050565b6000612e6182611fa2565b9150612e6c83611fa2565b9250827fffffffffffffffffffffffffffffffffffffffffffffffffffffffffffffffff03821115612ea157612ea0612df3565b5b828201905092915050565b7f4552433732313a206d696e7420746f20746865207a65726f2061646472657373600082015250565b6000612ee2602083611ef2565b9150612eed82612eac565b602082019050919050565b60006020820190508181036000830152612f1181612ed5565b9050919050565b7f4552433732313a20746f6b656e20616c7265616479206d696e74656400000000600082015250565b6000612f4e601c83611ef2565b9150612f5982612f18565b602082019050919050565b60006020820190508181036000830152612f7d81612f41565b9050919050565b7f4552433732313a20617070726f766520746f2063616c6c657200000000000000600082015250565b6000612fba601983611ef2565b9150612fc582612f84565b602082019050919050565b60006020820190508181036000830152612fe981612fad565b9050919050565b7f4552433732313a207472616e7366657220746f206e6f6e20455243373231526560008201527f63656976657220696d706c656d656e7465720000000000000000000000000000602082015250565b600061304c603283611ef2565b915061305782612ff0565b604082019050919050565b6000602082019050818103600083015261307b8161303f565b9050919050565b600061308d82611fa2565b91507fffffffffffffffffffffffffffffffffffffffffffffffffffffffffffffffff8214156130c0576130bf612df3565b5b600182019050919050565b7f4e487b7100000000000000000000000000000000000000000000000000000000600052601260045260246000fd5b600061310582611fa2565b915061311083611fa2565b9250826131205761311f6130cb565b5b828204905092915050565b600061313682611fa2565b915061314183611fa2565b925082613151576131506130cb565b5b828206905092915050565b7f4e487b7100000000000000000000000000000000000000000000000000000000600052603260045260246000fd5b600081519050919050565b600082825260208201905092915050565b60006131b28261318b565b6131bc8185613196565b93506131cc818560208601611f03565b6131d581611f36565b840191505092915050565b60006080820190506131f56000830187612037565b6132026020830186612037565b61320f60408301856123f8565b818103606083015261322181846131a7565b905095945050505050565b60008151905061323b81611e58565b92915050565b60006020828403121561325757613256611e22565b5b60006132658482850161322c565b9150509291505056fea26469706673582212208dbf66b5d5b065b8e158f025ed9215ff5019fb43f6ac9c6dd97e4a966d573e8864736f6c634300080b0033",
  "immutableReferences": {},
  "source": "// contracts/MyNFT.sol\n// SPDX-License-Identifier: MIT\npragma solidity ^0.8.0;\n\nimport \"@openzeppelin/contracts/token/ERC721/ERC721.sol\";\n//import \"@openzeppelin/contracts/token/ERC721/extensions/ERC721Royalty.sol\";\nimport \"@openzeppelin/contracts/utils/Counters.sol\";\n\ncontract NFTea is ERC721 { // ERC721Royalty to be added in US036\n    struct Media {\n        uint256 id;\n        uint256 publisherId;\n        address publisherAddress;\n        string  mediaType;\n        string  URL;\n        string  permaLink;\n        string  thumbnailURL;\n        string  timestamp;\n        string  publisherUsername;\n        string  caption;\n    }\n\n    string public don = \"donut\";\n    mapping (uint256 => Media) public contents;\n\n    constructor() ERC721(\"NF-TEA\", \"NFTEA\") {}\n\n    function mintNFTea (\n        uint256 id,\n        uint256 publisherId,\n        address publisherAddress,\n        string memory  mediaType,\n        string memory  URL,\n        string memory  permaLink,\n        string memory  thumbnailURL,\n        string memory  timestamp,\n        string memory  publisherUsername,\n        string memory  caption\n    )\n    public\n    returns (uint256)\n    {\n        require(contents[id].publisherAddress == address(0x0), \"An NFT with that content Id has already been minted.\");\n\n        contents[id] = Media(\n            id,\n            publisherId,\n            publisherAddress,\n            mediaType,\n            URL,\n            permaLink,\n            thumbnailURL,\n            timestamp,\n            publisherUsername,\n            caption\n        );\n        _mint(publisherAddress, id);\n\n        return id;\n    }\n}\n",
  "sourcePath": "/Users/mircea/Documents/McGill/Classes/ECSE/428/Project/NF-TEA/NFTEA-b/contracts/NFTEA.sol",
  "compiler": {
    "name": "solc",
    "version": "0.8.11+commit.d7f03943.Emscripten.clang"
  },
  "schemaVersion": "3.4.5",
  "updatedAt": "2022-02-22T15:28:06.920Z",
  "networkType": "ethereum",
  "devdoc": {
    "kind": "dev",
    "methods": {
      "approve(address,uint256)": {
        "details": "See {IERC721-approve}."
      },
      "balanceOf(address)": {
        "details": "See {IERC721-balanceOf}."
      },
      "getApproved(uint256)": {
        "details": "See {IERC721-getApproved}."
      },
      "isApprovedForAll(address,address)": {
        "details": "See {IERC721-isApprovedForAll}."
      },
      "name()": {
        "details": "See {IERC721Metadata-name}."
      },
      "ownerOf(uint256)": {
        "details": "See {IERC721-ownerOf}."
      },
      "safeTransferFrom(address,address,uint256)": {
        "details": "See {IERC721-safeTransferFrom}."
      },
      "safeTransferFrom(address,address,uint256,bytes)": {
        "details": "See {IERC721-safeTransferFrom}."
      },
      "setApprovalForAll(address,bool)": {
        "details": "See {IERC721-setApprovalForAll}."
      },
      "supportsInterface(bytes4)": {
        "details": "See {IERC165-supportsInterface}."
      },
      "symbol()": {
        "details": "See {IERC721Metadata-symbol}."
      },
      "tokenURI(uint256)": {
        "details": "See {IERC721Metadata-tokenURI}."
      },
      "transferFrom(address,address,uint256)": {
        "details": "See {IERC721-transferFrom}."
      }
    },
    "version": 1
  },
  "userdoc": {
    "kind": "user",
    "methods": {},
    "version": 1
  }
}