{
  "contractName": "NFTea",
  "abi": [
    {
      "inputs": [],
      "stateMutability": "nonpayable",
      "type": "constructor"
    },
    {
      "anonymous": false,
      "inputs": [
        {
          "indexed": true,
          "internalType": "address",
          "name": "owner",
          "type": "address"
        },
        {
          "indexed": true,
          "internalType": "address",
          "name": "approved",
          "type": "address"
        },
        {
          "indexed": true,
          "internalType": "uint256",
          "name": "tokenId",
          "type": "uint256"
        }
      ],
      "name": "Approval",
      "type": "event"
    },
    {
      "anonymous": false,
      "inputs": [
        {
          "indexed": true,
          "internalType": "address",
          "name": "owner",
          "type": "address"
        },
        {
          "indexed": true,
          "internalType": "address",
          "name": "operator",
          "type": "address"
        },
        {
          "indexed": false,
          "internalType": "bool",
          "name": "approved",
          "type": "bool"
        }
      ],
      "name": "ApprovalForAll",
      "type": "event"
    },
    {
      "anonymous": false,
      "inputs": [
        {
          "indexed": true,
          "internalType": "address",
          "name": "from",
          "type": "address"
        },
        {
          "indexed": true,
          "internalType": "address",
          "name": "to",
          "type": "address"
        },
        {
          "indexed": true,
          "internalType": "uint256",
          "name": "tokenId",
          "type": "uint256"
        }
      ],
      "name": "Transfer",
      "type": "event"
    },
    {
      "inputs": [
        {
          "internalType": "address",
          "name": "to",
          "type": "address"
        },
        {
          "internalType": "uint256",
          "name": "tokenId",
          "type": "uint256"
        }
      ],
      "name": "approve",
      "outputs": [],
      "stateMutability": "nonpayable",
      "type": "function"
    },
    {
      "inputs": [
        {
          "internalType": "address",
          "name": "owner",
          "type": "address"
        }
      ],
      "name": "balanceOf",
      "outputs": [
        {
          "internalType": "uint256",
          "name": "",
          "type": "uint256"
        }
      ],
      "stateMutability": "view",
      "type": "function",
      "constant": true
    },
    {
      "inputs": [
        {
          "internalType": "address",
          "name": "",
          "type": "address"
        }
      ],
      "name": "contentCountByUser",
      "outputs": [
        {
          "internalType": "uint256",
          "name": "",
          "type": "uint256"
        }
      ],
      "stateMutability": "view",
      "type": "function",
      "constant": true
    },
    {
      "inputs": [
        {
          "internalType": "uint256",
          "name": "",
          "type": "uint256"
        }
      ],
      "name": "contents",
      "outputs": [
        {
          "internalType": "uint256",
          "name": "id",
          "type": "uint256"
        },
        {
          "internalType": "uint256",
          "name": "publisherId",
          "type": "uint256"
        },
        {
          "internalType": "address",
          "name": "publisherAddress",
          "type": "address"
        },
        {
          "internalType": "string",
          "name": "mediaType",
          "type": "string"
        },
        {
          "internalType": "string",
          "name": "URL",
          "type": "string"
        },
        {
          "internalType": "string",
          "name": "permaLink",
          "type": "string"
        },
        {
          "internalType": "string",
          "name": "thumbnailURL",
          "type": "string"
        },
        {
          "internalType": "string",
          "name": "timestamp",
          "type": "string"
        },
        {
          "internalType": "string",
          "name": "publisherUsername",
          "type": "string"
        },
        {
          "internalType": "string",
          "name": "caption",
          "type": "string"
        },
        {
          "internalType": "string",
          "name": "CollectionName",
          "type": "string"
        }
      ],
      "stateMutability": "view",
      "type": "function",
      "constant": true
    },
    {
      "inputs": [
        {
          "internalType": "uint256",
          "name": "tokenId",
          "type": "uint256"
        }
      ],
      "name": "getApproved",
      "outputs": [
        {
          "internalType": "address",
          "name": "",
          "type": "address"
        }
      ],
      "stateMutability": "view",
      "type": "function",
      "constant": true
    },
    {
      "inputs": [
        {
          "internalType": "address",
          "name": "owner",
          "type": "address"
        },
        {
          "internalType": "address",
          "name": "operator",
          "type": "address"
        }
      ],
      "name": "isApprovedForAll",
      "outputs": [
        {
          "internalType": "bool",
          "name": "",
          "type": "bool"
        }
      ],
      "stateMutability": "view",
      "type": "function",
      "constant": true
    },
    {
      "inputs": [],
      "name": "name",
      "outputs": [
        {
          "internalType": "string",
          "name": "",
          "type": "string"
        }
      ],
      "stateMutability": "view",
      "type": "function",
      "constant": true
    },
    {
      "inputs": [
        {
          "internalType": "uint256",
          "name": "",
          "type": "uint256"
        }
      ],
      "name": "nftToMedia",
      "outputs": [
        {
          "internalType": "uint256",
          "name": "",
          "type": "uint256"
        }
      ],
      "stateMutability": "view",
      "type": "function",
      "constant": true
    },
    {
      "inputs": [
        {
          "internalType": "uint256",
          "name": "tokenId",
          "type": "uint256"
        }
      ],
      "name": "ownerOf",
      "outputs": [
        {
          "internalType": "address",
          "name": "",
          "type": "address"
        }
      ],
      "stateMutability": "view",
      "type": "function",
      "constant": true
    },
    {
      "inputs": [
        {
          "internalType": "address",
          "name": "from",
          "type": "address"
        },
        {
          "internalType": "address",
          "name": "to",
          "type": "address"
        },
        {
          "internalType": "uint256",
          "name": "tokenId",
          "type": "uint256"
        }
      ],
      "name": "safeTransferFrom",
      "outputs": [],
      "stateMutability": "nonpayable",
      "type": "function"
    },
    {
      "inputs": [
        {
          "internalType": "address",
          "name": "from",
          "type": "address"
        },
        {
          "internalType": "address",
          "name": "to",
          "type": "address"
        },
        {
          "internalType": "uint256",
          "name": "tokenId",
          "type": "uint256"
        },
        {
          "internalType": "bytes",
          "name": "_data",
          "type": "bytes"
        }
      ],
      "name": "safeTransferFrom",
      "outputs": [],
      "stateMutability": "nonpayable",
      "type": "function"
    },
    {
      "inputs": [
        {
          "internalType": "address",
          "name": "operator",
          "type": "address"
        },
        {
          "internalType": "bool",
          "name": "approved",
          "type": "bool"
        }
      ],
      "name": "setApprovalForAll",
      "outputs": [],
      "stateMutability": "nonpayable",
      "type": "function"
    },
    {
      "inputs": [
        {
          "internalType": "bytes4",
          "name": "interfaceId",
          "type": "bytes4"
        }
      ],
      "name": "supportsInterface",
      "outputs": [
        {
          "internalType": "bool",
          "name": "",
          "type": "bool"
        }
      ],
      "stateMutability": "view",
      "type": "function",
      "constant": true
    },
    {
      "inputs": [],
      "name": "symbol",
      "outputs": [
        {
          "internalType": "string",
          "name": "",
          "type": "string"
        }
      ],
      "stateMutability": "view",
      "type": "function",
      "constant": true
    },
    {
      "inputs": [
        {
          "internalType": "uint256",
          "name": "tokenId",
          "type": "uint256"
        }
      ],
      "name": "tokenURI",
      "outputs": [
        {
          "internalType": "string",
          "name": "",
          "type": "string"
        }
      ],
      "stateMutability": "view",
      "type": "function",
      "constant": true
    },
    {
      "inputs": [
        {
          "internalType": "address",
          "name": "from",
          "type": "address"
        },
        {
          "internalType": "address",
          "name": "to",
          "type": "address"
        },
        {
          "internalType": "uint256",
          "name": "tokenId",
          "type": "uint256"
        }
      ],
      "name": "transferFrom",
      "outputs": [],
      "stateMutability": "nonpayable",
      "type": "function"
    },
    {
      "inputs": [
        {
          "internalType": "uint256",
          "name": "id",
          "type": "uint256"
        },
        {
          "internalType": "uint256",
          "name": "publisherId",
          "type": "uint256"
        },
        {
          "internalType": "string",
          "name": "mediaType",
          "type": "string"
        },
        {
          "internalType": "string",
          "name": "URL",
          "type": "string"
        },
        {
          "internalType": "string",
          "name": "permaLink",
          "type": "string"
        },
        {
          "internalType": "string",
          "name": "thumbnailURL",
          "type": "string"
        },
        {
          "internalType": "string",
          "name": "timestamp",
          "type": "string"
        },
        {
          "internalType": "string",
          "name": "publisherUsername",
          "type": "string"
        },
        {
          "internalType": "string",
          "name": "caption",
          "type": "string"
        },
        {
          "internalType": "string",
          "name": "CollectionName",
          "type": "string"
        }
      ],
      "name": "mintNFTea",
      "outputs": [],
      "stateMutability": "nonpayable",
      "type": "function"
    },
    {
      "inputs": [],
      "name": "getMediaByUser",
      "outputs": [
        {
          "components": [
            {
              "internalType": "uint256",
              "name": "id",
              "type": "uint256"
            },
            {
              "internalType": "uint256",
              "name": "publisherId",
              "type": "uint256"
            },
            {
              "internalType": "address",
              "name": "publisherAddress",
              "type": "address"
            },
            {
              "internalType": "string",
              "name": "mediaType",
              "type": "string"
            },
            {
              "internalType": "string",
              "name": "URL",
              "type": "string"
            },
            {
              "internalType": "string",
              "name": "permaLink",
              "type": "string"
            },
            {
              "internalType": "string",
              "name": "thumbnailURL",
              "type": "string"
            },
            {
              "internalType": "string",
              "name": "timestamp",
              "type": "string"
            },
            {
              "internalType": "string",
              "name": "publisherUsername",
              "type": "string"
            },
            {
              "internalType": "string",
              "name": "caption",
              "type": "string"
            },
            {
              "internalType": "string",
              "name": "CollectionName",
              "type": "string"
            }
          ],
          "internalType": "struct NFTea.Media[]",
          "name": "",
          "type": "tuple[]"
        }
      ],
      "stateMutability": "view",
      "type": "function",
      "constant": true
    },
    {
      "inputs": [
        {
          "internalType": "string",
          "name": "CollectionName",
          "type": "string"
        }
      ],
      "name": "getMediaByCollection",
      "outputs": [
        {
          "components": [
            {
              "internalType": "uint256",
              "name": "id",
              "type": "uint256"
            },
            {
              "internalType": "uint256",
              "name": "publisherId",
              "type": "uint256"
            },
            {
              "internalType": "address",
              "name": "publisherAddress",
              "type": "address"
            },
            {
              "internalType": "string",
              "name": "mediaType",
              "type": "string"
            },
            {
              "internalType": "string",
              "name": "URL",
              "type": "string"
            },
            {
              "internalType": "string",
              "name": "permaLink",
              "type": "string"
            },
            {
              "internalType": "string",
              "name": "thumbnailURL",
              "type": "string"
            },
            {
              "internalType": "string",
              "name": "timestamp",
              "type": "string"
            },
            {
              "internalType": "string",
              "name": "publisherUsername",
              "type": "string"
            },
            {
              "internalType": "string",
              "name": "caption",
              "type": "string"
            },
            {
              "internalType": "string",
              "name": "CollectionName",
              "type": "string"
            }
          ],
          "internalType": "struct NFTea.Media[]",
          "name": "",
          "type": "tuple[]"
        }
      ],
      "stateMutability": "view",
      "type": "function",
      "constant": true
    },
    {
      "inputs": [],
      "name": "getCollectionByUser",
      "outputs": [
        {
          "internalType": "string[]",
          "name": "",
          "type": "string[]"
        }
      ],
      "stateMutability": "view",
      "type": "function",
      "constant": true
    },
    {
      "inputs": [
        {
          "internalType": "uint256",
          "name": "_nftId",
          "type": "uint256"
        },
        {
          "internalType": "string",
          "name": "_newCollectionName",
          "type": "string"
        }
      ],
      "name": "changeCollection",
      "outputs": [],
      "stateMutability": "nonpayable",
      "type": "function"
    },
    {
      "inputs": [
        {
          "internalType": "string",
          "name": "_collectionName",
          "type": "string"
        }
      ],
      "name": "deleteCollection",
      "outputs": [],
      "stateMutability": "nonpayable",
      "type": "function"
    }
  ],
  "bytecode": "0x60806040523480156200001157600080fd5b506040518060400160405280600681526020017f4e462d54454100000000000000000000000000000000000000000000000000008152506040518060400160405280600581526020017f4e46544541000000000000000000000000000000000000000000000000000000815250816000908051906020019062000096929190620000b8565b508060019080519060200190620000af929190620000b8565b505050620001cd565b828054620000c69062000197565b90600052602060002090601f016020900481019282620000ea576000855562000136565b82601f106200010557805160ff191683800117855562000136565b8280016001018555821562000136579182015b828111156200013557825182559160200191906001019062000118565b5b50905062000145919062000149565b5090565b5b80821115620001645760008160009055506001016200014a565b5090565b7f4e487b7100000000000000000000000000000000000000000000000000000000600052602260045260246000fd5b60006002820490506001821680620001b057607f821691505b60208210811415620001c757620001c662000168565b5b50919050565b614f1980620001dd6000396000f3fe608060405234801561001057600080fd5b50600436106101425760003560e01c80637ea09bd9116100b8578063c87b56dd1161007c578063c87b56dd146103b5578063d28d6a26146103e5578063d572734f14610403578063d6287ce41461041f578063e985e9c51461043d578063ec0a37071461046d57610142565b80637ea09bd9146102f557806395d89b4114610325578063a22cb46514610343578063b5ecf9121461035f578063b88d4fde1461039957610142565b806313c3b22e1161010a57806313c3b22e1461021157806323b872dd1461022d5780632b30e1211461024957806342842e0e146102795780636352211e1461029557806370a08231146102c557610142565b806301ffc9a7146101475780630499445b1461017757806306fdde03146101a7578063081812fc146101c5578063095ea7b3146101f5575b600080fd5b610161600480360381019061015c91906135a4565b610489565b60405161016e91906135ec565b60405180910390f35b610191600480360381019061018c9190613665565b61056b565b60405161019e91906136ab565b60405180910390f35b6101af610583565b6040516101bc919061375f565b60405180910390f35b6101df60048036038101906101da91906137ad565b610615565b6040516101ec91906137e9565b60405180910390f35b61020f600480360381019061020a9190613804565b61069a565b005b61022b60048036038101906102269190613979565b6107b2565b005b61024760048036038101906102429190613b38565b610a9f565b005b610263600480360381019061025e9190613b8b565b610aff565b6040516102709190613e1e565b60405180910390f35b610293600480360381019061028e9190613b38565b6112b9565b005b6102af60048036038101906102aa91906137ad565b6112d9565b6040516102bc91906137e9565b60405180910390f35b6102df60048036038101906102da9190613665565b61138b565b6040516102ec91906136ab565b60405180910390f35b61030f600480360381019061030a91906137ad565b611443565b60405161031c91906136ab565b60405180910390f35b61032d61145b565b60405161033a919061375f565b60405180910390f35b61035d60048036038101906103589190613e6c565b6114ed565b005b610379600480360381019061037491906137ad565b611503565b6040516103909b9a99989796959493929190613eac565b60405180910390f35b6103b360048036038101906103ae9190614030565b6119bd565b005b6103cf60048036038101906103ca91906137ad565b611a1f565b6040516103dc919061375f565b60405180910390f35b6103ed611ac6565b6040516103fa9190614175565b60405180910390f35b61041d60048036038101906104189190614197565b611d92565b005b610427611e57565b6040516104349190613e1e565b60405180910390f35b610457600480360381019061045291906141f3565b6125a3565b60405161046491906135ec565b60405180910390f35b61048760048036038101906104829190613b8b565b612637565b005b60007f80ac58cd000000000000000000000000000000000000000000000000000000007bffffffffffffffffffffffffffffffffffffffffffffffffffffffff1916827bffffffffffffffffffffffffffffffffffffffffffffffffffffffff1916148061055457507f5b5e139f000000000000000000000000000000000000000000000000000000007bffffffffffffffffffffffffffffffffffffffffffffffffffffffff1916827bffffffffffffffffffffffffffffffffffffffffffffffffffffffff1916145b80610564575061056382612855565b5b9050919050565b60096020528060005260406000206000915090505481565b60606000805461059290614262565b80601f01602080910402602001604051908101604052809291908181526020018280546105be90614262565b801561060b5780601f106105e05761010080835404028352916020019161060b565b820191906000526020600020905b8154815290600101906020018083116105ee57829003601f168201915b5050505050905090565b6000610620826128bf565b61065f576040517f08c379a000000000000000000000000000000000000000000000000000000000815260040161065690614306565b60405180910390fd5b6004600083815260200190815260200160002060009054906101000a900473ffffffffffffffffffffffffffffffffffffffff169050919050565b60006106a5826112d9565b90508073ffffffffffffffffffffffffffffffffffffffff168373ffffffffffffffffffffffffffffffffffffffff161415610716576040517f08c379a000000000000000000000000000000000000000000000000000000000815260040161070d90614398565b60405180910390fd5b8073ffffffffffffffffffffffffffffffffffffffff1661073561292b565b73ffffffffffffffffffffffffffffffffffffffff16148061076457506107638161075e61292b565b6125a3565b5b6107a3576040517f08c379a000000000000000000000000000000000000000000000000000000000815260040161079a9061442a565b60405180910390fd5b6107ad8383612933565b505050565b6000600760008c81526020019081526020016000205414610808576040517f08c379a00000000000000000000000000000000000000000000000000000000081526004016107ff906144bc565b60405180910390fd5b61081260066129ec565b61081c6006612a02565b600760008c8152602001908152602001600020819055506001600960003373ffffffffffffffffffffffffffffffffffffffff1673ffffffffffffffffffffffffffffffffffffffff1681526020019081526020016000205461087f919061450b565b600960003373ffffffffffffffffffffffffffffffffffffffff1673ffffffffffffffffffffffffffffffffffffffff168152602001908152602001600020819055506040518061016001604052808b81526020018a81526020013373ffffffffffffffffffffffffffffffffffffffff16815260200189815260200188815260200187815260200186815260200185815260200184815260200183815260200182815250600860006109326006612a02565b8152602001908152602001600020600082015181600001556020820151816001015560408201518160020160006101000a81548173ffffffffffffffffffffffffffffffffffffffff021916908373ffffffffffffffffffffffffffffffffffffffff16021790555060608201518160030190805190602001906109b7929190613425565b5060808201518160040190805190602001906109d4929190613425565b5060a08201518160050190805190602001906109f1929190613425565b5060c0820151816006019080519060200190610a0e929190613425565b5060e0820151816007019080519060200190610a2b929190613425565b50610100820151816008019080519060200190610a49929190613425565b50610120820151816009019080519060200190610a67929190613425565b5061014082015181600a019080519060200190610a85929190613425565b50905050610a93338b612a10565b50505050505050505050565b610ab0610aaa61292b565b82612bea565b610aef576040517f08c379a0000000000000000000000000000000000000000000000000000000008152600401610ae6906145d3565b60405180910390fd5b610afa838383612cc8565b505050565b60606000600960003373ffffffffffffffffffffffffffffffffffffffff1673ffffffffffffffffffffffffffffffffffffffff168152602001908152602001600020541415610b84576040517f08c379a0000000000000000000000000000000000000000000000000000000008152600401610b7b9061463f565b60405180910390fd5b6000600960003373ffffffffffffffffffffffffffffffffffffffff1673ffffffffffffffffffffffffffffffffffffffff1681526020019081526020016000205467ffffffffffffffff811115610bdf57610bde61384e565b5b604051908082528060200260200182016040528015610c1857816020015b610c056134ab565b815260200190600190039081610bfd5790505b509050600080600190505b610c2d6006612a02565b8111158015610c7a5750600960003373ffffffffffffffffffffffffffffffffffffffff1673ffffffffffffffffffffffffffffffffffffffff1681526020019081526020016000205482105b156112ae573373ffffffffffffffffffffffffffffffffffffffff166008600083815260200190815260200160002060020160009054906101000a900473ffffffffffffffffffffffffffffffffffffffff1673ffffffffffffffffffffffffffffffffffffffff16148015610d50575084604051602001610cfc919061469b565b6040516020818303038152906040528051906020012060086000838152602001908152602001600020600a01604051602001610d389190614746565b60405160208183030381529060405280519060200120145b1561129b57600860008281526020019081526020016000206040518061016001604052908160008201548152602001600182015481526020016002820160009054906101000a900473ffffffffffffffffffffffffffffffffffffffff1673ffffffffffffffffffffffffffffffffffffffff1673ffffffffffffffffffffffffffffffffffffffff168152602001600382018054610dee90614262565b80601f0160208091040260200160405190810160405280929190818152602001828054610e1a90614262565b8015610e675780601f10610e3c57610100808354040283529160200191610e67565b820191906000526020600020905b815481529060010190602001808311610e4a57829003601f168201915b50505050508152602001600482018054610e8090614262565b80601f0160208091040260200160405190810160405280929190818152602001828054610eac90614262565b8015610ef95780601f10610ece57610100808354040283529160200191610ef9565b820191906000526020600020905b815481529060010190602001808311610edc57829003601f168201915b50505050508152602001600582018054610f1290614262565b80601f0160208091040260200160405190810160405280929190818152602001828054610f3e90614262565b8015610f8b5780601f10610f6057610100808354040283529160200191610f8b565b820191906000526020600020905b815481529060010190602001808311610f6e57829003601f168201915b50505050508152602001600682018054610fa490614262565b80601f0160208091040260200160405190810160405280929190818152602001828054610fd090614262565b801561101d5780601f10610ff25761010080835404028352916020019161101d565b820191906000526020600020905b81548152906001019060200180831161100057829003601f168201915b5050505050815260200160078201805461103690614262565b80601f016020809104026020016040519081016040528092919081815260200182805461106290614262565b80156110af5780601f10611084576101008083540402835291602001916110af565b820191906000526020600020905b81548152906001019060200180831161109257829003601f168201915b505050505081526020016008820180546110c890614262565b80601f01602080910402602001604051908101604052809291908181526020018280546110f490614262565b80156111415780601f1061111657610100808354040283529160200191611141565b820191906000526020600020905b81548152906001019060200180831161112457829003601f168201915b5050505050815260200160098201805461115a90614262565b80601f016020809104026020016040519081016040528092919081815260200182805461118690614262565b80156111d35780601f106111a8576101008083540402835291602001916111d3565b820191906000526020600020905b8154815290600101906020018083116111b657829003601f168201915b50505050508152602001600a820180546111ec90614262565b80601f016020809104026020016040519081016040528092919081815260200182805461121890614262565b80156112655780601f1061123a57610100808354040283529160200191611265565b820191906000526020600020905b81548152906001019060200180831161124857829003601f168201915b5050505050815250508383815181106112815761128061475d565b5b602002602001018190525081806112979061478c565b9250505b80806112a69061478c565b915050610c23565b508192505050919050565b6112d4838383604051806020016040528060008152506119bd565b505050565b6000806002600084815260200190815260200160002060009054906101000a900473ffffffffffffffffffffffffffffffffffffffff169050600073ffffffffffffffffffffffffffffffffffffffff168173ffffffffffffffffffffffffffffffffffffffff161415611382576040517f08c379a000000000000000000000000000000000000000000000000000000000815260040161137990614847565b60405180910390fd5b80915050919050565b60008073ffffffffffffffffffffffffffffffffffffffff168273ffffffffffffffffffffffffffffffffffffffff1614156113fc576040517f08c379a00000000000000000000000000000000000000000000000000000000081526004016113f3906148d9565b60405180910390fd5b600360008373ffffffffffffffffffffffffffffffffffffffff1673ffffffffffffffffffffffffffffffffffffffff168152602001908152602001600020549050919050565b60076020528060005260406000206000915090505481565b60606001805461146a90614262565b80601f016020809104026020016040519081016040528092919081815260200182805461149690614262565b80156114e35780601f106114b8576101008083540402835291602001916114e3565b820191906000526020600020905b8154815290600101906020018083116114c657829003601f168201915b5050505050905090565b6114ff6114f861292b565b8383612f2f565b5050565b60086020528060005260406000206000915090508060000154908060010154908060020160009054906101000a900473ffffffffffffffffffffffffffffffffffffffff169080600301805461155890614262565b80601f016020809104026020016040519081016040528092919081815260200182805461158490614262565b80156115d15780601f106115a6576101008083540402835291602001916115d1565b820191906000526020600020905b8154815290600101906020018083116115b457829003601f168201915b5050505050908060040180546115e690614262565b80601f016020809104026020016040519081016040528092919081815260200182805461161290614262565b801561165f5780601f106116345761010080835404028352916020019161165f565b820191906000526020600020905b81548152906001019060200180831161164257829003601f168201915b50505050509080600501805461167490614262565b80601f01602080910402602001604051908101604052809291908181526020018280546116a090614262565b80156116ed5780601f106116c2576101008083540402835291602001916116ed565b820191906000526020600020905b8154815290600101906020018083116116d057829003601f168201915b50505050509080600601805461170290614262565b80601f016020809104026020016040519081016040528092919081815260200182805461172e90614262565b801561177b5780601f106117505761010080835404028352916020019161177b565b820191906000526020600020905b81548152906001019060200180831161175e57829003601f168201915b50505050509080600701805461179090614262565b80601f01602080910402602001604051908101604052809291908181526020018280546117bc90614262565b80156118095780601f106117de57610100808354040283529160200191611809565b820191906000526020600020905b8154815290600101906020018083116117ec57829003601f168201915b50505050509080600801805461181e90614262565b80601f016020809104026020016040519081016040528092919081815260200182805461184a90614262565b80156118975780601f1061186c57610100808354040283529160200191611897565b820191906000526020600020905b81548152906001019060200180831161187a57829003601f168201915b5050505050908060090180546118ac90614262565b80601f01602080910402602001604051908101604052809291908181526020018280546118d890614262565b80156119255780601f106118fa57610100808354040283529160200191611925565b820191906000526020600020905b81548152906001019060200180831161190857829003601f168201915b50505050509080600a01805461193a90614262565b80601f016020809104026020016040519081016040528092919081815260200182805461196690614262565b80156119b35780601f10611988576101008083540402835291602001916119b3565b820191906000526020600020905b81548152906001019060200180831161199657829003601f168201915b505050505090508b565b6119ce6119c861292b565b83612bea565b611a0d576040517f08c379a0000000000000000000000000000000000000000000000000000000008152600401611a04906145d3565b60405180910390fd5b611a198484848461309c565b50505050565b6060611a2a826128bf565b611a69576040517f08c379a0000000000000000000000000000000000000000000000000000000008152600401611a609061496b565b60405180910390fd5b6000611a736130f8565b90506000815111611a935760405180602001604052806000815250611abe565b80611a9d8461310f565b604051602001611aae92919061498b565b6040516020818303038152906040525b915050919050565b60606000600960003373ffffffffffffffffffffffffffffffffffffffff1673ffffffffffffffffffffffffffffffffffffffff168152602001908152602001600020541415611b4b576040517f08c379a0000000000000000000000000000000000000000000000000000000008152600401611b429061463f565b60405180910390fd5b6000600960003373ffffffffffffffffffffffffffffffffffffffff1673ffffffffffffffffffffffffffffffffffffffff1681526020019081526020016000205467ffffffffffffffff811115611ba657611ba561384e565b5b604051908082528060200260200182016040528015611bd957816020015b6060815260200190600190039081611bc45790505b509050600080600190505b611bee6006612a02565b8111158015611c3b5750600960003373ffffffffffffffffffffffffffffffffffffffff1673ffffffffffffffffffffffffffffffffffffffff1681526020019081526020016000205482105b15611d89573373ffffffffffffffffffffffffffffffffffffffff166008600083815260200190815260200160002060020160009054906101000a900473ffffffffffffffffffffffffffffffffffffffff1673ffffffffffffffffffffffffffffffffffffffff161415611d765760086000828152602001908152602001600020600a018054611ccb90614262565b80601f0160208091040260200160405190810160405280929190818152602001828054611cf790614262565b8015611d445780601f10611d1957610100808354040283529160200191611d44565b820191906000526020600020905b815481529060010190602001808311611d2757829003601f168201915b5050505050838381518110611d5c57611d5b61475d565b5b60200260200101819052508180611d729061478c565b9250505b8080611d819061478c565b915050611be4565b50819250505090565b6000600960003373ffffffffffffffffffffffffffffffffffffffff1673ffffffffffffffffffffffffffffffffffffffff168152602001908152602001600020541415611e15576040517f08c379a0000000000000000000000000000000000000000000000000000000008152600401611e0c9061463f565b60405180910390fd5b806008600060076000868152602001908152602001600020548152602001908152602001600020600a019080519060200190611e52929190613425565b505050565b60606000600960003373ffffffffffffffffffffffffffffffffffffffff1673ffffffffffffffffffffffffffffffffffffffff168152602001908152602001600020541415611edc576040517f08c379a0000000000000000000000000000000000000000000000000000000008152600401611ed39061463f565b60405180910390fd5b6000600960003373ffffffffffffffffffffffffffffffffffffffff1673ffffffffffffffffffffffffffffffffffffffff1681526020019081526020016000205467ffffffffffffffff811115611f3757611f3661384e565b5b604051908082528060200260200182016040528015611f7057816020015b611f5d6134ab565b815260200190600190039081611f555790505b509050600080600190505b611f856006612a02565b8111158015611fd25750600960003373ffffffffffffffffffffffffffffffffffffffff1673ffffffffffffffffffffffffffffffffffffffff1681526020019081526020016000205482105b1561259a573373ffffffffffffffffffffffffffffffffffffffff166008600083815260200190815260200160002060020160009054906101000a900473ffffffffffffffffffffffffffffffffffffffff1673ffffffffffffffffffffffffffffffffffffffff16141561258757600860008281526020019081526020016000206040518061016001604052908160008201548152602001600182015481526020016002820160009054906101000a900473ffffffffffffffffffffffffffffffffffffffff1673ffffffffffffffffffffffffffffffffffffffff1673ffffffffffffffffffffffffffffffffffffffff1681526020016003820180546120da90614262565b80601f016020809104026020016040519081016040528092919081815260200182805461210690614262565b80156121535780601f1061212857610100808354040283529160200191612153565b820191906000526020600020905b81548152906001019060200180831161213657829003601f168201915b5050505050815260200160048201805461216c90614262565b80601f016020809104026020016040519081016040528092919081815260200182805461219890614262565b80156121e55780601f106121ba576101008083540402835291602001916121e5565b820191906000526020600020905b8154815290600101906020018083116121c857829003601f168201915b505050505081526020016005820180546121fe90614262565b80601f016020809104026020016040519081016040528092919081815260200182805461222a90614262565b80156122775780601f1061224c57610100808354040283529160200191612277565b820191906000526020600020905b81548152906001019060200180831161225a57829003601f168201915b5050505050815260200160068201805461229090614262565b80601f01602080910402602001604051908101604052809291908181526020018280546122bc90614262565b80156123095780601f106122de57610100808354040283529160200191612309565b820191906000526020600020905b8154815290600101906020018083116122ec57829003601f168201915b5050505050815260200160078201805461232290614262565b80601f016020809104026020016040519081016040528092919081815260200182805461234e90614262565b801561239b5780601f106123705761010080835404028352916020019161239b565b820191906000526020600020905b81548152906001019060200180831161237e57829003601f168201915b505050505081526020016008820180546123b490614262565b80601f01602080910402602001604051908101604052809291908181526020018280546123e090614262565b801561242d5780601f106124025761010080835404028352916020019161242d565b820191906000526020600020905b81548152906001019060200180831161241057829003601f168201915b5050505050815260200160098201805461244690614262565b80601f016020809104026020016040519081016040528092919081815260200182805461247290614262565b80156124bf5780601f10612494576101008083540402835291602001916124bf565b820191906000526020600020905b8154815290600101906020018083116124a257829003601f168201915b50505050508152602001600a820180546124d890614262565b80601f016020809104026020016040519081016040528092919081815260200182805461250490614262565b80156125515780601f1061252657610100808354040283529160200191612551565b820191906000526020600020905b81548152906001019060200180831161253457829003601f168201915b50505050508152505083838151811061256d5761256c61475d565b5b602002602001018190525081806125839061478c565b9250505b80806125929061478c565b915050611f7b565b50819250505090565b6000600560008473ffffffffffffffffffffffffffffffffffffffff1673ffffffffffffffffffffffffffffffffffffffff16815260200190815260200160002060008373ffffffffffffffffffffffffffffffffffffffff1673ffffffffffffffffffffffffffffffffffffffff16815260200190815260200160002060009054906101000a900460ff16905092915050565b6000600960003373ffffffffffffffffffffffffffffffffffffffff1673ffffffffffffffffffffffffffffffffffffffff1681526020019081526020016000205414156126ba576040517f08c379a00000000000000000000000000000000000000000000000000000000081526004016126b19061463f565b60405180910390fd5b600080600190505b6126cc6006612a02565b81111580156127195750600960003373ffffffffffffffffffffffffffffffffffffffff1673ffffffffffffffffffffffffffffffffffffffff1681526020019081526020016000205482105b15612850573373ffffffffffffffffffffffffffffffffffffffff166008600083815260200190815260200160002060020160009054906101000a900473ffffffffffffffffffffffffffffffffffffffff1673ffffffffffffffffffffffffffffffffffffffff161480156127ef57508260405160200161279b919061469b565b6040516020818303038152906040528051906020012060086000838152602001908152602001600020600a016040516020016127d79190614746565b60405160208183030381529060405280519060200120145b1561283d576040518060200160405280600081525060086000838152602001908152602001600020600a01908051906020019061282d929190613425565b5081806128399061478c565b9250505b80806128489061478c565b9150506126c2565b505050565b60007f01ffc9a7000000000000000000000000000000000000000000000000000000007bffffffffffffffffffffffffffffffffffffffffffffffffffffffff1916827bffffffffffffffffffffffffffffffffffffffffffffffffffffffff1916149050919050565b60008073ffffffffffffffffffffffffffffffffffffffff166002600084815260200190815260200160002060009054906101000a900473ffffffffffffffffffffffffffffffffffffffff1673ffffffffffffffffffffffffffffffffffffffff1614159050919050565b600033905090565b816004600083815260200190815260200160002060006101000a81548173ffffffffffffffffffffffffffffffffffffffff021916908373ffffffffffffffffffffffffffffffffffffffff160217905550808273ffffffffffffffffffffffffffffffffffffffff166129a6836112d9565b73ffffffffffffffffffffffffffffffffffffffff167f8c5be1e5ebec7d5bd14f71427d1e84f3dd0314c0f7b2291e5b200ac8c7c3b92560405160405180910390a45050565b6001816000016000828254019250508190555050565b600081600001549050919050565b600073ffffffffffffffffffffffffffffffffffffffff168273ffffffffffffffffffffffffffffffffffffffff161415612a80576040517f08c379a0000000000000000000000000000000000000000000000000000000008152600401612a77906149fb565b60405180910390fd5b612a89816128bf565b15612ac9576040517f08c379a0000000000000000000000000000000000000000000000000000000008152600401612ac090614a67565b60405180910390fd5b612ad560008383613270565b6001600360008473ffffffffffffffffffffffffffffffffffffffff1673ffffffffffffffffffffffffffffffffffffffff1681526020019081526020016000206000828254612b25919061450b565b92505081905550816002600083815260200190815260200160002060006101000a81548173ffffffffffffffffffffffffffffffffffffffff021916908373ffffffffffffffffffffffffffffffffffffffff160217905550808273ffffffffffffffffffffffffffffffffffffffff16600073ffffffffffffffffffffffffffffffffffffffff167fddf252ad1be2c89b69c2b068fc378daa952ba7f163c4a11628f55a4df523b3ef60405160405180910390a4612be660008383613275565b5050565b6000612bf5826128bf565b612c34576040517f08c379a0000000000000000000000000000000000000000000000000000000008152600401612c2b90614af9565b60405180910390fd5b6000612c3f836112d9565b90508073ffffffffffffffffffffffffffffffffffffffff168473ffffffffffffffffffffffffffffffffffffffff161480612cae57508373ffffffffffffffffffffffffffffffffffffffff16612c9684610615565b73ffffffffffffffffffffffffffffffffffffffff16145b80612cbf5750612cbe81856125a3565b5b91505092915050565b8273ffffffffffffffffffffffffffffffffffffffff16612ce8826112d9565b73ffffffffffffffffffffffffffffffffffffffff1614612d3e576040517f08c379a0000000000000000000000000000000000000000000000000000000008152600401612d3590614b8b565b60405180910390fd5b600073ffffffffffffffffffffffffffffffffffffffff168273ffffffffffffffffffffffffffffffffffffffff161415612dae576040517f08c379a0000000000000000000000000000000000000000000000000000000008152600401612da590614c1d565b60405180910390fd5b612db9838383613270565b612dc4600082612933565b6001600360008573ffffffffffffffffffffffffffffffffffffffff1673ffffffffffffffffffffffffffffffffffffffff1681526020019081526020016000206000828254612e149190614c3d565b925050819055506001600360008473ffffffffffffffffffffffffffffffffffffffff1673ffffffffffffffffffffffffffffffffffffffff1681526020019081526020016000206000828254612e6b919061450b565b92505081905550816002600083815260200190815260200160002060006101000a81548173ffffffffffffffffffffffffffffffffffffffff021916908373ffffffffffffffffffffffffffffffffffffffff160217905550808273ffffffffffffffffffffffffffffffffffffffff168473ffffffffffffffffffffffffffffffffffffffff167fddf252ad1be2c89b69c2b068fc378daa952ba7f163c4a11628f55a4df523b3ef60405160405180910390a4612f2a838383613275565b505050565b8173ffffffffffffffffffffffffffffffffffffffff168373ffffffffffffffffffffffffffffffffffffffff161415612f9e576040517f08c379a0000000000000000000000000000000000000000000000000000000008152600401612f9590614cbd565b60405180910390fd5b80600560008573ffffffffffffffffffffffffffffffffffffffff1673ffffffffffffffffffffffffffffffffffffffff16815260200190815260200160002060008473ffffffffffffffffffffffffffffffffffffffff1673ffffffffffffffffffffffffffffffffffffffff16815260200190815260200160002060006101000a81548160ff0219169083151502179055508173ffffffffffffffffffffffffffffffffffffffff168373ffffffffffffffffffffffffffffffffffffffff167f17307eab39ab6107e8899845ad3d59bd9653f200f220920489ca2b5937696c318360405161308f91906135ec565b60405180910390a3505050565b6130a7848484612cc8565b6130b38484848461327a565b6130f2576040517f08c379a00000000000000000000000000000000000000000000000000000000081526004016130e990614d4f565b60405180910390fd5b50505050565b606060405180602001604052806000815250905090565b60606000821415613157576040518060400160405280600181526020017f3000000000000000000000000000000000000000000000000000000000000000815250905061326b565b600082905060005b600082146131895780806131729061478c565b915050600a826131829190614d9e565b915061315f565b60008167ffffffffffffffff8111156131a5576131a461384e565b5b6040519080825280601f01601f1916602001820160405280156131d75781602001600182028036833780820191505090505b5090505b60008514613264576001826131f09190614c3d565b9150600a856131ff9190614dcf565b603061320b919061450b565b60f81b8183815181106132215761322061475d565b5b60200101907effffffffffffffffffffffffffffffffffffffffffffffffffffffffffffff1916908160001a905350600a8561325d9190614d9e565b94506131db565b8093505050505b919050565b505050565b505050565b600061329b8473ffffffffffffffffffffffffffffffffffffffff16613402565b156133f5578373ffffffffffffffffffffffffffffffffffffffff1663150b7a026132c461292b565b8786866040518563ffffffff1660e01b81526004016132e69493929190614e55565b6020604051808303816000875af192505050801561332257506040513d601f19601f8201168201806040525081019061331f9190614eb6565b60015b6133a5573d8060008114613352576040519150601f19603f3d011682016040523d82523d6000602084013e613357565b606091505b5060008151141561339d576040517f08c379a000000000000000000000000000000000000000000000000000000000815260040161339490614d4f565b60405180910390fd5b805181602001fd5b63150b7a0260e01b7bffffffffffffffffffffffffffffffffffffffffffffffffffffffff1916817bffffffffffffffffffffffffffffffffffffffffffffffffffffffff1916149150506133fa565b600190505b949350505050565b6000808273ffffffffffffffffffffffffffffffffffffffff163b119050919050565b82805461343190614262565b90600052602060002090601f016020900481019282613453576000855561349a565b82601f1061346c57805160ff191683800117855561349a565b8280016001018555821561349a579182015b8281111561349957825182559160200191906001019061347e565b5b5090506134a7919061351b565b5090565b6040518061016001604052806000815260200160008152602001600073ffffffffffffffffffffffffffffffffffffffff16815260200160608152602001606081526020016060815260200160608152602001606081526020016060815260200160608152602001606081525090565b5b8082111561353457600081600090555060010161351c565b5090565b6000604051905090565b600080fd5b600080fd5b60007fffffffff0000000000000000000000000000000000000000000000000000000082169050919050565b6135818161354c565b811461358c57600080fd5b50565b60008135905061359e81613578565b92915050565b6000602082840312156135ba576135b9613542565b5b60006135c88482850161358f565b91505092915050565b60008115159050919050565b6135e6816135d1565b82525050565b600060208201905061360160008301846135dd565b92915050565b600073ffffffffffffffffffffffffffffffffffffffff82169050919050565b600061363282613607565b9050919050565b61364281613627565b811461364d57600080fd5b50565b60008135905061365f81613639565b92915050565b60006020828403121561367b5761367a613542565b5b600061368984828501613650565b91505092915050565b6000819050919050565b6136a581613692565b82525050565b60006020820190506136c0600083018461369c565b92915050565b600081519050919050565b600082825260208201905092915050565b60005b838110156137005780820151818401526020810190506136e5565b8381111561370f576000848401525b50505050565b6000601f19601f8301169050919050565b6000613731826136c6565b61373b81856136d1565b935061374b8185602086016136e2565b61375481613715565b840191505092915050565b600060208201905081810360008301526137798184613726565b905092915050565b61378a81613692565b811461379557600080fd5b50565b6000813590506137a781613781565b92915050565b6000602082840312156137c3576137c2613542565b5b60006137d184828501613798565b91505092915050565b6137e381613627565b82525050565b60006020820190506137fe60008301846137da565b92915050565b6000806040838503121561381b5761381a613542565b5b600061382985828601613650565b925050602061383a85828601613798565b9150509250929050565b600080fd5b600080fd5b7f4e487b7100000000000000000000000000000000000000000000000000000000600052604160045260246000fd5b61388682613715565b810181811067ffffffffffffffff821117156138a5576138a461384e565b5b80604052505050565b60006138b8613538565b90506138c4828261387d565b919050565b600067ffffffffffffffff8211156138e4576138e361384e565b5b6138ed82613715565b9050602081019050919050565b82818337600083830152505050565b600061391c613917846138c9565b6138ae565b90508281526020810184848401111561393857613937613849565b5b6139438482856138fa565b509392505050565b600082601f8301126139605761395f613844565b5b8135613970848260208601613909565b91505092915050565b6000806000806000806000806000806101408b8d03121561399d5761399c613542565b5b60006139ab8d828e01613798565b9a505060206139bc8d828e01613798565b99505060408b013567ffffffffffffffff8111156139dd576139dc613547565b5b6139e98d828e0161394b565b98505060608b013567ffffffffffffffff811115613a0a57613a09613547565b5b613a168d828e0161394b565b97505060808b013567ffffffffffffffff811115613a3757613a36613547565b5b613a438d828e0161394b565b96505060a08b013567ffffffffffffffff811115613a6457613a63613547565b5b613a708d828e0161394b565b95505060c08b013567ffffffffffffffff811115613a9157613a90613547565b5b613a9d8d828e0161394b565b94505060e08b013567ffffffffffffffff811115613abe57613abd613547565b5b613aca8d828e0161394b565b9350506101008b013567ffffffffffffffff811115613aec57613aeb613547565b5b613af88d828e0161394b565b9250506101208b013567ffffffffffffffff811115613b1a57613b19613547565b5b613b268d828e0161394b565b9150509295989b9194979a5092959850565b600080600060608486031215613b5157613b50613542565b5b6000613b5f86828701613650565b9350506020613b7086828701613650565b9250506040613b8186828701613798565b9150509250925092565b600060208284031215613ba157613ba0613542565b5b600082013567ffffffffffffffff811115613bbf57613bbe613547565b5b613bcb8482850161394b565b91505092915050565b600081519050919050565b600082825260208201905092915050565b6000819050602082019050919050565b613c0981613692565b82525050565b613c1881613627565b82525050565b600082825260208201905092915050565b6000613c3a826136c6565b613c448185613c1e565b9350613c548185602086016136e2565b613c5d81613715565b840191505092915050565b600061016083016000830151613c816000860182613c00565b506020830151613c946020860182613c00565b506040830151613ca76040860182613c0f565b5060608301518482036060860152613cbf8282613c2f565b91505060808301518482036080860152613cd98282613c2f565b91505060a083015184820360a0860152613cf38282613c2f565b91505060c083015184820360c0860152613d0d8282613c2f565b91505060e083015184820360e0860152613d278282613c2f565b915050610100830151848203610100860152613d438282613c2f565b915050610120830151848203610120860152613d5f8282613c2f565b915050610140830151848203610140860152613d7b8282613c2f565b9150508091505092915050565b6000613d948383613c68565b905092915050565b6000602082019050919050565b6000613db482613bd4565b613dbe8185613bdf565b935083602082028501613dd085613bf0565b8060005b85811015613e0c5784840389528151613ded8582613d88565b9450613df883613d9c565b925060208a01995050600181019050613dd4565b50829750879550505050505092915050565b60006020820190508181036000830152613e388184613da9565b905092915050565b613e49816135d1565b8114613e5457600080fd5b50565b600081359050613e6681613e40565b92915050565b60008060408385031215613e8357613e82613542565b5b6000613e9185828601613650565b9250506020613ea285828601613e57565b9150509250929050565b600061016082019050613ec2600083018e61369c565b613ecf602083018d61369c565b613edc604083018c6137da565b8181036060830152613eee818b613726565b90508181036080830152613f02818a613726565b905081810360a0830152613f168189613726565b905081810360c0830152613f2a8188613726565b905081810360e0830152613f3e8187613726565b9050818103610100830152613f538186613726565b9050818103610120830152613f688185613726565b9050818103610140830152613f7d8184613726565b90509c9b505050505050505050505050565b600067ffffffffffffffff821115613faa57613fa961384e565b5b613fb382613715565b9050602081019050919050565b6000613fd3613fce84613f8f565b6138ae565b905082815260208101848484011115613fef57613fee613849565b5b613ffa8482856138fa565b509392505050565b600082601f83011261401757614016613844565b5b8135614027848260208601613fc0565b91505092915050565b6000806000806080858703121561404a57614049613542565b5b600061405887828801613650565b945050602061406987828801613650565b935050604061407a87828801613798565b925050606085013567ffffffffffffffff81111561409b5761409a613547565b5b6140a787828801614002565b91505092959194509250565b600081519050919050565b600082825260208201905092915050565b6000819050602082019050919050565b60006140eb8383613c2f565b905092915050565b6000602082019050919050565b600061410b826140b3565b61411581856140be565b935083602082028501614127856140cf565b8060005b85811015614163578484038952815161414485826140df565b945061414f836140f3565b925060208a0199505060018101905061412b565b50829750879550505050505092915050565b6000602082019050818103600083015261418f8184614100565b905092915050565b600080604083850312156141ae576141ad613542565b5b60006141bc85828601613798565b925050602083013567ffffffffffffffff8111156141dd576141dc613547565b5b6141e98582860161394b565b9150509250929050565b6000806040838503121561420a57614209613542565b5b600061421885828601613650565b925050602061422985828601613650565b9150509250929050565b7f4e487b7100000000000000000000000000000000000000000000000000000000600052602260045260246000fd5b6000600282049050600182168061427a57607f821691505b6020821081141561428e5761428d614233565b5b50919050565b7f4552433732313a20617070726f76656420717565727920666f72206e6f6e657860008201527f697374656e7420746f6b656e0000000000000000000000000000000000000000602082015250565b60006142f0602c836136d1565b91506142fb82614294565b604082019050919050565b6000602082019050818103600083015261431f816142e3565b9050919050565b7f4552433732313a20617070726f76616c20746f2063757272656e74206f776e6560008201527f7200000000000000000000000000000000000000000000000000000000000000602082015250565b60006143826021836136d1565b915061438d82614326565b604082019050919050565b600060208201905081810360008301526143b181614375565b9050919050565b7f4552433732313a20617070726f76652063616c6c6572206973206e6f74206f7760008201527f6e6572206e6f7220617070726f76656420666f7220616c6c0000000000000000602082015250565b60006144146038836136d1565b915061441f826143b8565b604082019050919050565b6000602082019050818103600083015261444381614407565b9050919050565b7f416e204e46542077697468207468617420636f6e74656e74204964206861732060008201527f616c7265616479206265656e206d696e7465642e000000000000000000000000602082015250565b60006144a66034836136d1565b91506144b18261444a565b604082019050919050565b600060208201905081810360008301526144d581614499565b9050919050565b7f4e487b7100000000000000000000000000000000000000000000000000000000600052601160045260246000fd5b600061451682613692565b915061452183613692565b9250827fffffffffffffffffffffffffffffffffffffffffffffffffffffffffffffffff03821115614556576145556144dc565b5b828201905092915050565b7f4552433732313a207472616e736665722063616c6c6572206973206e6f74206f60008201527f776e6572206e6f7220617070726f766564000000000000000000000000000000602082015250565b60006145bd6031836136d1565b91506145c882614561565b604082019050919050565b600060208201905081810360008301526145ec816145b0565b9050919050565b7f5468652075736572206f776e73206e6f204e4654732e00000000000000000000600082015250565b60006146296016836136d1565b9150614634826145f3565b602082019050919050565b600060208201905081810360008301526146588161461c565b9050919050565b600081905092915050565b6000614675826136c6565b61467f818561465f565b935061468f8185602086016136e2565b80840191505092915050565b60006146a7828461466a565b915081905092915050565b60008190508160005260206000209050919050565b600081546146d481614262565b6146de818661465f565b945060018216600081146146f9576001811461470a5761473d565b60ff1983168652818601935061473d565b614713856146b2565b60005b8381101561473557815481890152600182019150602081019050614716565b838801955050505b50505092915050565b600061475282846146c7565b915081905092915050565b7f4e487b7100000000000000000000000000000000000000000000000000000000600052603260045260246000fd5b600061479782613692565b91507fffffffffffffffffffffffffffffffffffffffffffffffffffffffffffffffff8214156147ca576147c96144dc565b5b600182019050919050565b7f4552433732313a206f776e657220717565727920666f72206e6f6e657869737460008201527f656e7420746f6b656e0000000000000000000000000000000000000000000000602082015250565b60006148316029836136d1565b915061483c826147d5565b604082019050919050565b6000602082019050818103600083015261486081614824565b9050919050565b7f4552433732313a2062616c616e636520717565727920666f7220746865207a6560008201527f726f206164647265737300000000000000000000000000000000000000000000602082015250565b60006148c3602a836136d1565b91506148ce82614867565b604082019050919050565b600060208201905081810360008301526148f2816148b6565b9050919050565b7f4552433732314d657461646174613a2055524920717565727920666f72206e6f60008201527f6e6578697374656e7420746f6b656e0000000000000000000000000000000000602082015250565b6000614955602f836136d1565b9150614960826148f9565b604082019050919050565b6000602082019050818103600083015261498481614948565b9050919050565b6000614997828561466a565b91506149a3828461466a565b91508190509392505050565b7f4552433732313a206d696e7420746f20746865207a65726f2061646472657373600082015250565b60006149e56020836136d1565b91506149f0826149af565b602082019050919050565b60006020820190508181036000830152614a14816149d8565b9050919050565b7f4552433732313a20746f6b656e20616c7265616479206d696e74656400000000600082015250565b6000614a51601c836136d1565b9150614a5c82614a1b565b602082019050919050565b60006020820190508181036000830152614a8081614a44565b9050919050565b7f4552433732313a206f70657261746f7220717565727920666f72206e6f6e657860008201527f697374656e7420746f6b656e0000000000000000000000000000000000000000602082015250565b6000614ae3602c836136d1565b9150614aee82614a87565b604082019050919050565b60006020820190508181036000830152614b1281614ad6565b9050919050565b7f4552433732313a207472616e736665722066726f6d20696e636f72726563742060008201527f6f776e6572000000000000000000000000000000000000000000000000000000602082015250565b6000614b756025836136d1565b9150614b8082614b19565b604082019050919050565b60006020820190508181036000830152614ba481614b68565b9050919050565b7f4552433732313a207472616e7366657220746f20746865207a65726f2061646460008201527f7265737300000000000000000000000000000000000000000000000000000000602082015250565b6000614c076024836136d1565b9150614c1282614bab565b604082019050919050565b60006020820190508181036000830152614c3681614bfa565b9050919050565b6000614c4882613692565b9150614c5383613692565b925082821015614c6657614c656144dc565b5b828203905092915050565b7f4552433732313a20617070726f766520746f2063616c6c657200000000000000600082015250565b6000614ca76019836136d1565b9150614cb282614c71565b602082019050919050565b60006020820190508181036000830152614cd681614c9a565b9050919050565b7f4552433732313a207472616e7366657220746f206e6f6e20455243373231526560008201527f63656976657220696d706c656d656e7465720000000000000000000000000000602082015250565b6000614d396032836136d1565b9150614d4482614cdd565b604082019050919050565b60006020820190508181036000830152614d6881614d2c565b9050919050565b7f4e487b7100000000000000000000000000000000000000000000000000000000600052601260045260246000fd5b6000614da982613692565b9150614db483613692565b925082614dc457614dc3614d6f565b5b828204905092915050565b6000614dda82613692565b9150614de583613692565b925082614df557614df4614d6f565b5b828206905092915050565b600081519050919050565b600082825260208201905092915050565b6000614e2782614e00565b614e318185614e0b565b9350614e418185602086016136e2565b614e4a81613715565b840191505092915050565b6000608082019050614e6a60008301876137da565b614e7760208301866137da565b614e84604083018561369c565b8181036060830152614e968184614e1c565b905095945050505050565b600081519050614eb081613578565b92915050565b600060208284031215614ecc57614ecb613542565b5b6000614eda84828501614ea1565b9150509291505056fea2646970667358221220e6a558f513c28c42b08fb56bf245c8ce0e22d0ab8b155cc14b4aa6f30a831f3164736f6c634300080b0033",
  "immutableReferences": {},
  "source": "// contracts/MyNFT.sol\n// SPDX-License-Identifier: MIT\n//pragma experimental ABIEncoderV2;\npragma solidity ^0.8.0;\n\nimport \"@openzeppelin/contracts/token/ERC721/ERC721.sol\";\n//import \"@openzeppelin/contracts/token/ERC721/extensions/ERC721Royalty.sol\";\nimport \"@openzeppelin/contracts/utils/Counters.sol\";\n\ncontract NFTea is ERC721 { // ERC721Royalty to be added in US036\n    struct Media {\n        uint256 id;\n        uint256 publisherId;\n        address publisherAddress;\n        string  mediaType;\n        string  URL;\n        string  permaLink;\n        string  thumbnailURL;\n        string  timestamp;\n        string  publisherUsername;\n        string  caption;\n        string  CollectionName;\n    }\n\n    using Counters for Counters.Counter;\n    Counters.Counter private _contentCount;\n    mapping (uint256 => uint256) public nftToMedia;\n    mapping (uint256 => Media) public contents;\n    mapping (address => uint256) public contentCountByUser;\n\n    constructor() ERC721(\"NF-TEA\", \"NFTEA\") {}\n\n    function mintNFTea (\n        uint256 id,\n        uint256 publisherId,\n        string memory  mediaType,\n        string memory  URL,\n        string memory  permaLink,\n        string memory  thumbnailURL,\n        string memory  timestamp,\n        string memory  publisherUsername,\n        string memory  caption,\n        string memory  CollectionName\n    )\n    public\n    {\n        require(nftToMedia[id] == 0, \"An NFT with that content Id has already been minted.\");\n\n        _contentCount.increment();\n        nftToMedia[id] = _contentCount.current();\n        contentCountByUser[msg.sender] = contentCountByUser[msg.sender] + 1;\n\n        contents[_contentCount.current()] = Media(\n            id,\n            publisherId,\n            msg.sender,\n            mediaType,\n            URL,\n            permaLink,\n            thumbnailURL,\n            timestamp,\n            publisherUsername,\n            caption,\n            CollectionName\n        );\n\n        _mint(msg.sender, id);\n    }\n\n    function getMediaByUser () public view returns (Media[] memory) {\n        require(contentCountByUser[msg.sender] != 0, \"The user owns no NFTs.\");\n\n        Media[] memory memoryArray = new Media[](contentCountByUser[msg.sender]);\n        uint256 j = 0;\n\n        for(uint256 i = 1; i <= _contentCount.current() && j < contentCountByUser[msg.sender]; i++) {\n            if(contents[i].publisherAddress == msg.sender) {\n                memoryArray[j] = contents[i];\n                j++;\n            }\n        }\n\n        return memoryArray;\n    }\n\n    function getMediaByCollection (string memory CollectionName) public view returns (Media[] memory) {\n        require(contentCountByUser[msg.sender] != 0, \"The user owns no NFTs.\");\n\n        Media[] memory memoryArray = new Media[](contentCountByUser[msg.sender]);\n        uint256 j = 0;\n\n        for(uint256 i = 1; i <= _contentCount.current() && j < contentCountByUser[msg.sender]; i++) {\n            if(contents[i].publisherAddress == msg.sender &&\n                keccak256(abi.encodePacked((contents[i].CollectionName))) == keccak256(abi.encodePacked((CollectionName)))) {\n                memoryArray[j] = contents[i];\n                j++;\n            }\n        }\n\n        return memoryArray;\n    }\n\n    function getCollectionByUser () public view returns (string[] memory) {\n        require(contentCountByUser[msg.sender] != 0, \"The user owns no NFTs.\");\n\n        string[] memory memoryArray = new string[](contentCountByUser[msg.sender]);\n        uint256 j = 0;\n\n        for(uint256 i = 1; i <= _contentCount.current() && j < contentCountByUser[msg.sender]; i++) {\n            if(contents[i].publisherAddress == msg.sender) {\n                memoryArray[j] = contents[i].CollectionName;\n                j++;\n            }\n        }\n\n        return memoryArray;\n    }\n\n    function changeCollection (uint256 _nftId, string memory _newCollectionName) public {\n        require(contentCountByUser[msg.sender] != 0, \"The user owns no NFTs.\");\n\n        contents[nftToMedia[_nftId]].CollectionName = _newCollectionName;\n    }\n\n    function deleteCollection (string memory _collectionName) public {\n        require(contentCountByUser[msg.sender] != 0, \"The user owns no NFTs.\");\n\n        uint256 j = 0;\n\n        for(uint256 i = 1; i <= _contentCount.current() && j < contentCountByUser[msg.sender]; i++) {\n            if(contents[i].publisherAddress == msg.sender\n                && keccak256(abi.encodePacked((contents[i].CollectionName))) == keccak256(abi.encodePacked((_collectionName)))) {\n                contents[i].CollectionName = \"\";\n                j++;\n            }\n        }\n    }\n}\n",
  "sourcePath": "/Users/mircea/Documents/McGill/Classes/ECSE/428/Project/NF-TEA/NFTEA-Blockchain/contracts/NFTEA.sol",
  "compiler": {
    "name": "solc",
    "version": "0.8.11+commit.d7f03943.Emscripten.clang"
  },
  "schemaVersion": "3.4.5",
  "updatedAt": "2022-02-27T08:39:05.887Z",
  "networkType": "ethereum",
  "devdoc": {
    "kind": "dev",
    "methods": {
      "approve(address,uint256)": {
        "details": "See {IERC721-approve}."
      },
      "balanceOf(address)": {
        "details": "See {IERC721-balanceOf}."
      },
      "getApproved(uint256)": {
        "details": "See {IERC721-getApproved}."
      },
      "isApprovedForAll(address,address)": {
        "details": "See {IERC721-isApprovedForAll}."
      },
      "name()": {
        "details": "See {IERC721Metadata-name}."
      },
      "ownerOf(uint256)": {
        "details": "See {IERC721-ownerOf}."
      },
      "safeTransferFrom(address,address,uint256)": {
        "details": "See {IERC721-safeTransferFrom}."
      },
      "safeTransferFrom(address,address,uint256,bytes)": {
        "details": "See {IERC721-safeTransferFrom}."
      },
      "setApprovalForAll(address,bool)": {
        "details": "See {IERC721-setApprovalForAll}."
      },
      "supportsInterface(bytes4)": {
        "details": "See {IERC165-supportsInterface}."
      },
      "symbol()": {
        "details": "See {IERC721Metadata-symbol}."
      },
      "tokenURI(uint256)": {
        "details": "See {IERC721Metadata-tokenURI}."
      },
      "transferFrom(address,address,uint256)": {
        "details": "See {IERC721-transferFrom}."
      }
    },
    "version": 1
  },
  "userdoc": {
    "kind": "user",
    "methods": {},
    "version": 1
  }
}