{
  "contractName": "NFTea",
  "abi": [
    {
      "inputs": [],
      "stateMutability": "nonpayable",
      "type": "constructor"
    },
    {
      "anonymous": false,
      "inputs": [
        {
          "indexed": true,
          "internalType": "address",
          "name": "owner",
          "type": "address"
        },
        {
          "indexed": true,
          "internalType": "address",
          "name": "approved",
          "type": "address"
        },
        {
          "indexed": true,
          "internalType": "uint256",
          "name": "tokenId",
          "type": "uint256"
        }
      ],
      "name": "Approval",
      "type": "event"
    },
    {
      "anonymous": false,
      "inputs": [
        {
          "indexed": true,
          "internalType": "address",
          "name": "owner",
          "type": "address"
        },
        {
          "indexed": true,
          "internalType": "address",
          "name": "operator",
          "type": "address"
        },
        {
          "indexed": false,
          "internalType": "bool",
          "name": "approved",
          "type": "bool"
        }
      ],
      "name": "ApprovalForAll",
      "type": "event"
    },
    {
      "anonymous": false,
      "inputs": [
        {
          "indexed": true,
          "internalType": "address",
          "name": "from",
          "type": "address"
        },
        {
          "indexed": true,
          "internalType": "address",
          "name": "to",
          "type": "address"
        },
        {
          "indexed": true,
          "internalType": "uint256",
          "name": "tokenId",
          "type": "uint256"
        }
      ],
      "name": "Transfer",
      "type": "event"
    },
    {
      "inputs": [
        {
          "internalType": "address",
          "name": "to",
          "type": "address"
        },
        {
          "internalType": "uint256",
          "name": "tokenId",
          "type": "uint256"
        }
      ],
      "name": "approve",
      "outputs": [],
      "stateMutability": "nonpayable",
      "type": "function"
    },
    {
      "inputs": [
        {
          "internalType": "address",
          "name": "owner",
          "type": "address"
        }
      ],
      "name": "balanceOf",
      "outputs": [
        {
          "internalType": "uint256",
          "name": "",
          "type": "uint256"
        }
      ],
      "stateMutability": "view",
      "type": "function",
      "constant": true
    },
    {
      "inputs": [
        {
          "internalType": "address",
          "name": "",
          "type": "address"
        }
      ],
      "name": "contentCountByUser",
      "outputs": [
        {
          "internalType": "uint256",
          "name": "",
          "type": "uint256"
        }
      ],
      "stateMutability": "view",
      "type": "function",
      "constant": true
    },
    {
      "inputs": [
        {
          "internalType": "uint256",
          "name": "",
          "type": "uint256"
        }
      ],
      "name": "contents",
      "outputs": [
        {
          "internalType": "uint256",
          "name": "id",
          "type": "uint256"
        },
        {
          "internalType": "uint256",
          "name": "publisherId",
          "type": "uint256"
        },
        {
          "internalType": "address",
          "name": "publisherAddress",
          "type": "address"
        },
        {
          "internalType": "string",
          "name": "mediaType",
          "type": "string"
        },
        {
          "internalType": "string",
          "name": "URL",
          "type": "string"
        },
        {
          "internalType": "string",
          "name": "permaLink",
          "type": "string"
        },
        {
          "internalType": "string",
          "name": "thumbnailURL",
          "type": "string"
        },
        {
          "internalType": "string",
          "name": "timestamp",
          "type": "string"
        },
        {
          "internalType": "string",
          "name": "publisherUsername",
          "type": "string"
        },
        {
          "internalType": "string",
          "name": "caption",
          "type": "string"
        }
      ],
      "stateMutability": "view",
      "type": "function",
      "constant": true
    },
    {
      "inputs": [
        {
          "internalType": "uint256",
          "name": "tokenId",
          "type": "uint256"
        }
      ],
      "name": "getApproved",
      "outputs": [
        {
          "internalType": "address",
          "name": "",
          "type": "address"
        }
      ],
      "stateMutability": "view",
      "type": "function",
      "constant": true
    },
    {
      "inputs": [
        {
          "internalType": "address",
          "name": "owner",
          "type": "address"
        },
        {
          "internalType": "address",
          "name": "operator",
          "type": "address"
        }
      ],
      "name": "isApprovedForAll",
      "outputs": [
        {
          "internalType": "bool",
          "name": "",
          "type": "bool"
        }
      ],
      "stateMutability": "view",
      "type": "function",
      "constant": true
    },
    {
      "inputs": [],
      "name": "name",
      "outputs": [
        {
          "internalType": "string",
          "name": "",
          "type": "string"
        }
      ],
      "stateMutability": "view",
      "type": "function",
      "constant": true
    },
    {
      "inputs": [
        {
          "internalType": "uint256",
          "name": "",
          "type": "uint256"
        }
      ],
      "name": "nftToMedia",
      "outputs": [
        {
          "internalType": "uint256",
          "name": "",
          "type": "uint256"
        }
      ],
      "stateMutability": "view",
      "type": "function",
      "constant": true
    },
    {
      "inputs": [
        {
          "internalType": "uint256",
          "name": "tokenId",
          "type": "uint256"
        }
      ],
      "name": "ownerOf",
      "outputs": [
        {
          "internalType": "address",
          "name": "",
          "type": "address"
        }
      ],
      "stateMutability": "view",
      "type": "function",
      "constant": true
    },
    {
      "inputs": [
        {
          "internalType": "address",
          "name": "from",
          "type": "address"
        },
        {
          "internalType": "address",
          "name": "to",
          "type": "address"
        },
        {
          "internalType": "uint256",
          "name": "tokenId",
          "type": "uint256"
        }
      ],
      "name": "safeTransferFrom",
      "outputs": [],
      "stateMutability": "nonpayable",
      "type": "function"
    },
    {
      "inputs": [
        {
          "internalType": "address",
          "name": "from",
          "type": "address"
        },
        {
          "internalType": "address",
          "name": "to",
          "type": "address"
        },
        {
          "internalType": "uint256",
          "name": "tokenId",
          "type": "uint256"
        },
        {
          "internalType": "bytes",
          "name": "_data",
          "type": "bytes"
        }
      ],
      "name": "safeTransferFrom",
      "outputs": [],
      "stateMutability": "nonpayable",
      "type": "function"
    },
    {
      "inputs": [
        {
          "internalType": "address",
          "name": "operator",
          "type": "address"
        },
        {
          "internalType": "bool",
          "name": "approved",
          "type": "bool"
        }
      ],
      "name": "setApprovalForAll",
      "outputs": [],
      "stateMutability": "nonpayable",
      "type": "function"
    },
    {
      "inputs": [
        {
          "internalType": "bytes4",
          "name": "interfaceId",
          "type": "bytes4"
        }
      ],
      "name": "supportsInterface",
      "outputs": [
        {
          "internalType": "bool",
          "name": "",
          "type": "bool"
        }
      ],
      "stateMutability": "view",
      "type": "function",
      "constant": true
    },
    {
      "inputs": [],
      "name": "symbol",
      "outputs": [
        {
          "internalType": "string",
          "name": "",
          "type": "string"
        }
      ],
      "stateMutability": "view",
      "type": "function",
      "constant": true
    },
    {
      "inputs": [
        {
          "internalType": "uint256",
          "name": "tokenId",
          "type": "uint256"
        }
      ],
      "name": "tokenURI",
      "outputs": [
        {
          "internalType": "string",
          "name": "",
          "type": "string"
        }
      ],
      "stateMutability": "view",
      "type": "function",
      "constant": true
    },
    {
      "inputs": [
        {
          "internalType": "address",
          "name": "from",
          "type": "address"
        },
        {
          "internalType": "address",
          "name": "to",
          "type": "address"
        },
        {
          "internalType": "uint256",
          "name": "tokenId",
          "type": "uint256"
        }
      ],
      "name": "transferFrom",
      "outputs": [],
      "stateMutability": "nonpayable",
      "type": "function"
    },
    {
      "inputs": [
        {
          "internalType": "uint256",
          "name": "id",
          "type": "uint256"
        },
        {
          "internalType": "uint256",
          "name": "publisherId",
          "type": "uint256"
        },
        {
          "internalType": "string",
          "name": "mediaType",
          "type": "string"
        },
        {
          "internalType": "string",
          "name": "URL",
          "type": "string"
        },
        {
          "internalType": "string",
          "name": "permaLink",
          "type": "string"
        },
        {
          "internalType": "string",
          "name": "thumbnailURL",
          "type": "string"
        },
        {
          "internalType": "string",
          "name": "timestamp",
          "type": "string"
        },
        {
          "internalType": "string",
          "name": "publisherUsername",
          "type": "string"
        },
        {
          "internalType": "string",
          "name": "caption",
          "type": "string"
        }
      ],
      "name": "mintNFTea",
      "outputs": [],
      "stateMutability": "nonpayable",
      "type": "function"
    },
    {
      "inputs": [],
      "name": "getMediaByUser",
      "outputs": [
        {
          "components": [
            {
              "internalType": "uint256",
              "name": "id",
              "type": "uint256"
            },
            {
              "internalType": "uint256",
              "name": "publisherId",
              "type": "uint256"
            },
            {
              "internalType": "address",
              "name": "publisherAddress",
              "type": "address"
            },
            {
              "internalType": "string",
              "name": "mediaType",
              "type": "string"
            },
            {
              "internalType": "string",
              "name": "URL",
              "type": "string"
            },
            {
              "internalType": "string",
              "name": "permaLink",
              "type": "string"
            },
            {
              "internalType": "string",
              "name": "thumbnailURL",
              "type": "string"
            },
            {
              "internalType": "string",
              "name": "timestamp",
              "type": "string"
            },
            {
              "internalType": "string",
              "name": "publisherUsername",
              "type": "string"
            },
            {
              "internalType": "string",
              "name": "caption",
              "type": "string"
            }
          ],
          "internalType": "struct NFTea.Media[]",
          "name": "",
          "type": "tuple[]"
        }
      ],
      "stateMutability": "view",
      "type": "function",
      "constant": true
    }
  ],
  "bytecode": "0x60806040523480156200001157600080fd5b506040518060400160405280600681526020017f4e462d54454100000000000000000000000000000000000000000000000000008152506040518060400160405280600581526020017f4e46544541000000000000000000000000000000000000000000000000000000815250816000908051906020019062000096929190620000b8565b508060019080519060200190620000af929190620000b8565b505050620001cd565b828054620000c69062000197565b90600052602060002090601f016020900481019282620000ea576000855562000136565b82601f106200010557805160ff191683800117855562000136565b8280016001018555821562000136579182015b828111156200013557825182559160200191906001019062000118565b5b50905062000145919062000149565b5090565b5b80821115620001645760008160009055506001016200014a565b5090565b7f4e487b7100000000000000000000000000000000000000000000000000000000600052602260045260246000fd5b60006002820490506001821680620001b057607f821691505b60208210811415620001c757620001c662000168565b5b50919050565b613d0380620001dd6000396000f3fe608060405234801561001057600080fd5b50600436106101165760003560e01c80637327f42c116100a2578063b5ecf91211610071578063b5ecf91214610303578063b88d4fde1461033c578063c87b56dd14610358578063d6287ce414610388578063e985e9c5146103a657610116565b80637327f42c1461027d5780637ea09bd91461029957806395d89b41146102c9578063a22cb465146102e757610116565b8063095ea7b3116100e9578063095ea7b3146101c957806323b872dd146101e557806342842e0e146102015780636352211e1461021d57806370a082311461024d57610116565b806301ffc9a71461011b5780630499445b1461014b57806306fdde031461017b578063081812fc14610199575b600080fd5b6101356004803603810190610130919061263c565b6103d6565b6040516101429190612684565b60405180910390f35b610165600480360381019061016091906126fd565b6104b8565b6040516101729190612743565b60405180910390f35b6101836104d0565b60405161019091906127f7565b60405180910390f35b6101b360048036038101906101ae9190612845565b610562565b6040516101c09190612881565b60405180910390f35b6101e360048036038101906101de919061289c565b6105e7565b005b6101ff60048036038101906101fa91906128dc565b6106ff565b005b61021b600480360381019061021691906128dc565b61075f565b005b61023760048036038101906102329190612845565b61077f565b6040516102449190612881565b60405180910390f35b610267600480360381019061026291906126fd565b610831565b6040516102749190612743565b60405180910390f35b61029760048036038101906102929190612a64565b6108e9565b005b6102b360048036038101906102ae9190612845565b610bb1565b6040516102c09190612743565b60405180910390f35b6102d1610bc9565b6040516102de91906127f7565b60405180910390f35b61030160048036038101906102fc9190612c1e565b610c5b565b005b61031d60048036038101906103189190612845565b610c71565b6040516103339a99989796959493929190612c5e565b60405180910390f35b61035660048036038101906103519190612dcc565b61109d565b005b610372600480360381019061036d9190612845565b6110ff565b60405161037f91906127f7565b60405180910390f35b6103906111a6565b60405161039d919061307d565b60405180910390f35b6103c060048036038101906103bb919061309f565b611860565b6040516103cd9190612684565b60405180910390f35b60007f80ac58cd000000000000000000000000000000000000000000000000000000007bffffffffffffffffffffffffffffffffffffffffffffffffffffffff1916827bffffffffffffffffffffffffffffffffffffffffffffffffffffffff191614806104a157507f5b5e139f000000000000000000000000000000000000000000000000000000007bffffffffffffffffffffffffffffffffffffffffffffffffffffffff1916827bffffffffffffffffffffffffffffffffffffffffffffffffffffffff1916145b806104b157506104b0826118f4565b5b9050919050565b60096020528060005260406000206000915090505481565b6060600080546104df9061310e565b80601f016020809104026020016040519081016040528092919081815260200182805461050b9061310e565b80156105585780601f1061052d57610100808354040283529160200191610558565b820191906000526020600020905b81548152906001019060200180831161053b57829003601f168201915b5050505050905090565b600061056d8261195e565b6105ac576040517f08c379a00000000000000000000000000000000000000000000000000000000081526004016105a3906131b2565b60405180910390fd5b6004600083815260200190815260200160002060009054906101000a900473ffffffffffffffffffffffffffffffffffffffff169050919050565b60006105f28261077f565b90508073ffffffffffffffffffffffffffffffffffffffff168373ffffffffffffffffffffffffffffffffffffffff161415610663576040517f08c379a000000000000000000000000000000000000000000000000000000000815260040161065a90613244565b60405180910390fd5b8073ffffffffffffffffffffffffffffffffffffffff166106826119ca565b73ffffffffffffffffffffffffffffffffffffffff1614806106b157506106b0816106ab6119ca565b611860565b5b6106f0576040517f08c379a00000000000000000000000000000000000000000000000000000000081526004016106e7906132d6565b60405180910390fd5b6106fa83836119d2565b505050565b61071061070a6119ca565b82611a8b565b61074f576040517f08c379a000000000000000000000000000000000000000000000000000000000815260040161074690613368565b60405180910390fd5b61075a838383611b69565b505050565b61077a8383836040518060200160405280600081525061109d565b505050565b6000806002600084815260200190815260200160002060009054906101000a900473ffffffffffffffffffffffffffffffffffffffff169050600073ffffffffffffffffffffffffffffffffffffffff168173ffffffffffffffffffffffffffffffffffffffff161415610828576040517f08c379a000000000000000000000000000000000000000000000000000000000815260040161081f906133fa565b60405180910390fd5b80915050919050565b60008073ffffffffffffffffffffffffffffffffffffffff168273ffffffffffffffffffffffffffffffffffffffff1614156108a2576040517f08c379a00000000000000000000000000000000000000000000000000000000081526004016108999061348c565b60405180910390fd5b600360008373ffffffffffffffffffffffffffffffffffffffff1673ffffffffffffffffffffffffffffffffffffffff168152602001908152602001600020549050919050565b6000600760008b8152602001908152602001600020541461093f576040517f08c379a00000000000000000000000000000000000000000000000000000000081526004016109369061351e565b60405180910390fd5b6109496006611dd0565b6109536006611de6565b600760008b8152602001908152602001600020819055506001600960003373ffffffffffffffffffffffffffffffffffffffff1673ffffffffffffffffffffffffffffffffffffffff168152602001908152602001600020546109b6919061356d565b600960003373ffffffffffffffffffffffffffffffffffffffff1673ffffffffffffffffffffffffffffffffffffffff168152602001908152602001600020819055506040518061014001604052808a81526020018981526020013373ffffffffffffffffffffffffffffffffffffffff1681526020018881526020018781526020018681526020018581526020018481526020018381526020018281525060086000610a636006611de6565b8152602001908152602001600020600082015181600001556020820151816001015560408201518160020160006101000a81548173ffffffffffffffffffffffffffffffffffffffff021916908373ffffffffffffffffffffffffffffffffffffffff1602179055506060820151816003019080519060200190610ae89291906124c4565b506080820151816004019080519060200190610b059291906124c4565b5060a0820151816005019080519060200190610b229291906124c4565b5060c0820151816006019080519060200190610b3f9291906124c4565b5060e0820151816007019080519060200190610b5c9291906124c4565b50610100820151816008019080519060200190610b7a9291906124c4565b50610120820151816009019080519060200190610b989291906124c4565b50905050610ba6338a611df4565b505050505050505050565b60076020528060005260406000206000915090505481565b606060018054610bd89061310e565b80601f0160208091040260200160405190810160405280929190818152602001828054610c049061310e565b8015610c515780601f10610c2657610100808354040283529160200191610c51565b820191906000526020600020905b815481529060010190602001808311610c3457829003601f168201915b5050505050905090565b610c6d610c666119ca565b8383611fce565b5050565b60086020528060005260406000206000915090508060000154908060010154908060020160009054906101000a900473ffffffffffffffffffffffffffffffffffffffff1690806003018054610cc69061310e565b80601f0160208091040260200160405190810160405280929190818152602001828054610cf29061310e565b8015610d3f5780601f10610d1457610100808354040283529160200191610d3f565b820191906000526020600020905b815481529060010190602001808311610d2257829003601f168201915b505050505090806004018054610d549061310e565b80601f0160208091040260200160405190810160405280929190818152602001828054610d809061310e565b8015610dcd5780601f10610da257610100808354040283529160200191610dcd565b820191906000526020600020905b815481529060010190602001808311610db057829003601f168201915b505050505090806005018054610de29061310e565b80601f0160208091040260200160405190810160405280929190818152602001828054610e0e9061310e565b8015610e5b5780601f10610e3057610100808354040283529160200191610e5b565b820191906000526020600020905b815481529060010190602001808311610e3e57829003601f168201915b505050505090806006018054610e709061310e565b80601f0160208091040260200160405190810160405280929190818152602001828054610e9c9061310e565b8015610ee95780601f10610ebe57610100808354040283529160200191610ee9565b820191906000526020600020905b815481529060010190602001808311610ecc57829003601f168201915b505050505090806007018054610efe9061310e565b80601f0160208091040260200160405190810160405280929190818152602001828054610f2a9061310e565b8015610f775780601f10610f4c57610100808354040283529160200191610f77565b820191906000526020600020905b815481529060010190602001808311610f5a57829003601f168201915b505050505090806008018054610f8c9061310e565b80601f0160208091040260200160405190810160405280929190818152602001828054610fb89061310e565b80156110055780601f10610fda57610100808354040283529160200191611005565b820191906000526020600020905b815481529060010190602001808311610fe857829003601f168201915b50505050509080600901805461101a9061310e565b80601f01602080910402602001604051908101604052809291908181526020018280546110469061310e565b80156110935780601f1061106857610100808354040283529160200191611093565b820191906000526020600020905b81548152906001019060200180831161107657829003601f168201915b505050505090508a565b6110ae6110a86119ca565b83611a8b565b6110ed576040517f08c379a00000000000000000000000000000000000000000000000000000000081526004016110e490613368565b60405180910390fd5b6110f98484848461213b565b50505050565b606061110a8261195e565b611149576040517f08c379a000000000000000000000000000000000000000000000000000000000815260040161114090613635565b60405180910390fd5b6000611153612197565b90506000815111611173576040518060200160405280600081525061119e565b8061117d846121ae565b60405160200161118e929190613691565b6040516020818303038152906040525b915050919050565b60606000600960003373ffffffffffffffffffffffffffffffffffffffff1673ffffffffffffffffffffffffffffffffffffffff16815260200190815260200160002054141561122b576040517f08c379a000000000000000000000000000000000000000000000000000000000815260040161122290613701565b60405180910390fd5b6000600960003373ffffffffffffffffffffffffffffffffffffffff1673ffffffffffffffffffffffffffffffffffffffff1681526020019081526020016000205467ffffffffffffffff81111561128657611285612939565b5b6040519080825280602002602001820160405280156112bf57816020015b6112ac61254a565b8152602001906001900390816112a45790505b509050600080600190505b6112d46006611de6565b81111580156113215750600960003373ffffffffffffffffffffffffffffffffffffffff1673ffffffffffffffffffffffffffffffffffffffff1681526020019081526020016000205482105b15611857573373ffffffffffffffffffffffffffffffffffffffff166008600083815260200190815260200160002060020160009054906101000a900473ffffffffffffffffffffffffffffffffffffffff1673ffffffffffffffffffffffffffffffffffffffff16141561184457600860008281526020019081526020016000206040518061014001604052908160008201548152602001600182015481526020016002820160009054906101000a900473ffffffffffffffffffffffffffffffffffffffff1673ffffffffffffffffffffffffffffffffffffffff1673ffffffffffffffffffffffffffffffffffffffff1681526020016003820180546114299061310e565b80601f01602080910402602001604051908101604052809291908181526020018280546114559061310e565b80156114a25780601f10611477576101008083540402835291602001916114a2565b820191906000526020600020905b81548152906001019060200180831161148557829003601f168201915b505050505081526020016004820180546114bb9061310e565b80601f01602080910402602001604051908101604052809291908181526020018280546114e79061310e565b80156115345780601f1061150957610100808354040283529160200191611534565b820191906000526020600020905b81548152906001019060200180831161151757829003601f168201915b5050505050815260200160058201805461154d9061310e565b80601f01602080910402602001604051908101604052809291908181526020018280546115799061310e565b80156115c65780601f1061159b576101008083540402835291602001916115c6565b820191906000526020600020905b8154815290600101906020018083116115a957829003601f168201915b505050505081526020016006820180546115df9061310e565b80601f016020809104026020016040519081016040528092919081815260200182805461160b9061310e565b80156116585780601f1061162d57610100808354040283529160200191611658565b820191906000526020600020905b81548152906001019060200180831161163b57829003601f168201915b505050505081526020016007820180546116719061310e565b80601f016020809104026020016040519081016040528092919081815260200182805461169d9061310e565b80156116ea5780601f106116bf576101008083540402835291602001916116ea565b820191906000526020600020905b8154815290600101906020018083116116cd57829003601f168201915b505050505081526020016008820180546117039061310e565b80601f016020809104026020016040519081016040528092919081815260200182805461172f9061310e565b801561177c5780601f106117515761010080835404028352916020019161177c565b820191906000526020600020905b81548152906001019060200180831161175f57829003601f168201915b505050505081526020016009820180546117959061310e565b80601f01602080910402602001604051908101604052809291908181526020018280546117c19061310e565b801561180e5780601f106117e35761010080835404028352916020019161180e565b820191906000526020600020905b8154815290600101906020018083116117f157829003601f168201915b50505050508152505083838151811061182a57611829613721565b5b6020026020010181905250818061184090613750565b9250505b808061184f90613750565b9150506112ca565b50819250505090565b6000600560008473ffffffffffffffffffffffffffffffffffffffff1673ffffffffffffffffffffffffffffffffffffffff16815260200190815260200160002060008373ffffffffffffffffffffffffffffffffffffffff1673ffffffffffffffffffffffffffffffffffffffff16815260200190815260200160002060009054906101000a900460ff16905092915050565b60007f01ffc9a7000000000000000000000000000000000000000000000000000000007bffffffffffffffffffffffffffffffffffffffffffffffffffffffff1916827bffffffffffffffffffffffffffffffffffffffffffffffffffffffff1916149050919050565b60008073ffffffffffffffffffffffffffffffffffffffff166002600084815260200190815260200160002060009054906101000a900473ffffffffffffffffffffffffffffffffffffffff1673ffffffffffffffffffffffffffffffffffffffff1614159050919050565b600033905090565b816004600083815260200190815260200160002060006101000a81548173ffffffffffffffffffffffffffffffffffffffff021916908373ffffffffffffffffffffffffffffffffffffffff160217905550808273ffffffffffffffffffffffffffffffffffffffff16611a458361077f565b73ffffffffffffffffffffffffffffffffffffffff167f8c5be1e5ebec7d5bd14f71427d1e84f3dd0314c0f7b2291e5b200ac8c7c3b92560405160405180910390a45050565b6000611a968261195e565b611ad5576040517f08c379a0000000000000000000000000000000000000000000000000000000008152600401611acc9061380b565b60405180910390fd5b6000611ae08361077f565b90508073ffffffffffffffffffffffffffffffffffffffff168473ffffffffffffffffffffffffffffffffffffffff161480611b4f57508373ffffffffffffffffffffffffffffffffffffffff16611b3784610562565b73ffffffffffffffffffffffffffffffffffffffff16145b80611b605750611b5f8185611860565b5b91505092915050565b8273ffffffffffffffffffffffffffffffffffffffff16611b898261077f565b73ffffffffffffffffffffffffffffffffffffffff1614611bdf576040517f08c379a0000000000000000000000000000000000000000000000000000000008152600401611bd69061389d565b60405180910390fd5b600073ffffffffffffffffffffffffffffffffffffffff168273ffffffffffffffffffffffffffffffffffffffff161415611c4f576040517f08c379a0000000000000000000000000000000000000000000000000000000008152600401611c469061392f565b60405180910390fd5b611c5a83838361230f565b611c656000826119d2565b6001600360008573ffffffffffffffffffffffffffffffffffffffff1673ffffffffffffffffffffffffffffffffffffffff1681526020019081526020016000206000828254611cb5919061394f565b925050819055506001600360008473ffffffffffffffffffffffffffffffffffffffff1673ffffffffffffffffffffffffffffffffffffffff1681526020019081526020016000206000828254611d0c919061356d565b92505081905550816002600083815260200190815260200160002060006101000a81548173ffffffffffffffffffffffffffffffffffffffff021916908373ffffffffffffffffffffffffffffffffffffffff160217905550808273ffffffffffffffffffffffffffffffffffffffff168473ffffffffffffffffffffffffffffffffffffffff167fddf252ad1be2c89b69c2b068fc378daa952ba7f163c4a11628f55a4df523b3ef60405160405180910390a4611dcb838383612314565b505050565b6001816000016000828254019250508190555050565b600081600001549050919050565b600073ffffffffffffffffffffffffffffffffffffffff168273ffffffffffffffffffffffffffffffffffffffff161415611e64576040517f08c379a0000000000000000000000000000000000000000000000000000000008152600401611e5b906139cf565b60405180910390fd5b611e6d8161195e565b15611ead576040517f08c379a0000000000000000000000000000000000000000000000000000000008152600401611ea490613a3b565b60405180910390fd5b611eb96000838361230f565b6001600360008473ffffffffffffffffffffffffffffffffffffffff1673ffffffffffffffffffffffffffffffffffffffff1681526020019081526020016000206000828254611f09919061356d565b92505081905550816002600083815260200190815260200160002060006101000a81548173ffffffffffffffffffffffffffffffffffffffff021916908373ffffffffffffffffffffffffffffffffffffffff160217905550808273ffffffffffffffffffffffffffffffffffffffff16600073ffffffffffffffffffffffffffffffffffffffff167fddf252ad1be2c89b69c2b068fc378daa952ba7f163c4a11628f55a4df523b3ef60405160405180910390a4611fca60008383612314565b5050565b8173ffffffffffffffffffffffffffffffffffffffff168373ffffffffffffffffffffffffffffffffffffffff16141561203d576040517f08c379a000000000000000000000000000000000000000000000000000000000815260040161203490613aa7565b60405180910390fd5b80600560008573ffffffffffffffffffffffffffffffffffffffff1673ffffffffffffffffffffffffffffffffffffffff16815260200190815260200160002060008473ffffffffffffffffffffffffffffffffffffffff1673ffffffffffffffffffffffffffffffffffffffff16815260200190815260200160002060006101000a81548160ff0219169083151502179055508173ffffffffffffffffffffffffffffffffffffffff168373ffffffffffffffffffffffffffffffffffffffff167f17307eab39ab6107e8899845ad3d59bd9653f200f220920489ca2b5937696c318360405161212e9190612684565b60405180910390a3505050565b612146848484611b69565b61215284848484612319565b612191576040517f08c379a000000000000000000000000000000000000000000000000000000000815260040161218890613b39565b60405180910390fd5b50505050565b606060405180602001604052806000815250905090565b606060008214156121f6576040518060400160405280600181526020017f3000000000000000000000000000000000000000000000000000000000000000815250905061230a565b600082905060005b6000821461222857808061221190613750565b915050600a826122219190613b88565b91506121fe565b60008167ffffffffffffffff81111561224457612243612939565b5b6040519080825280601f01601f1916602001820160405280156122765781602001600182028036833780820191505090505b5090505b600085146123035760018261228f919061394f565b9150600a8561229e9190613bb9565b60306122aa919061356d565b60f81b8183815181106122c0576122bf613721565b5b60200101907effffffffffffffffffffffffffffffffffffffffffffffffffffffffffffff1916908160001a905350600a856122fc9190613b88565b945061227a565b8093505050505b919050565b505050565b505050565b600061233a8473ffffffffffffffffffffffffffffffffffffffff166124a1565b15612494578373ffffffffffffffffffffffffffffffffffffffff1663150b7a026123636119ca565b8786866040518563ffffffff1660e01b81526004016123859493929190613c3f565b6020604051808303816000875af19250505080156123c157506040513d601f19601f820116820180604052508101906123be9190613ca0565b60015b612444573d80600081146123f1576040519150601f19603f3d011682016040523d82523d6000602084013e6123f6565b606091505b5060008151141561243c576040517f08c379a000000000000000000000000000000000000000000000000000000000815260040161243390613b39565b60405180910390fd5b805181602001fd5b63150b7a0260e01b7bffffffffffffffffffffffffffffffffffffffffffffffffffffffff1916817bffffffffffffffffffffffffffffffffffffffffffffffffffffffff191614915050612499565b600190505b949350505050565b6000808273ffffffffffffffffffffffffffffffffffffffff163b119050919050565b8280546124d09061310e565b90600052602060002090601f0160209004810192826124f25760008555612539565b82601f1061250b57805160ff1916838001178555612539565b82800160010185558215612539579182015b8281111561253857825182559160200191906001019061251d565b5b50905061254691906125b3565b5090565b6040518061014001604052806000815260200160008152602001600073ffffffffffffffffffffffffffffffffffffffff168152602001606081526020016060815260200160608152602001606081526020016060815260200160608152602001606081525090565b5b808211156125cc5760008160009055506001016125b4565b5090565b6000604051905090565b600080fd5b600080fd5b60007fffffffff0000000000000000000000000000000000000000000000000000000082169050919050565b612619816125e4565b811461262457600080fd5b50565b60008135905061263681612610565b92915050565b600060208284031215612652576126516125da565b5b600061266084828501612627565b91505092915050565b60008115159050919050565b61267e81612669565b82525050565b60006020820190506126996000830184612675565b92915050565b600073ffffffffffffffffffffffffffffffffffffffff82169050919050565b60006126ca8261269f565b9050919050565b6126da816126bf565b81146126e557600080fd5b50565b6000813590506126f7816126d1565b92915050565b600060208284031215612713576127126125da565b5b6000612721848285016126e8565b91505092915050565b6000819050919050565b61273d8161272a565b82525050565b60006020820190506127586000830184612734565b92915050565b600081519050919050565b600082825260208201905092915050565b60005b8381101561279857808201518184015260208101905061277d565b838111156127a7576000848401525b50505050565b6000601f19601f8301169050919050565b60006127c98261275e565b6127d38185612769565b93506127e381856020860161277a565b6127ec816127ad565b840191505092915050565b6000602082019050818103600083015261281181846127be565b905092915050565b6128228161272a565b811461282d57600080fd5b50565b60008135905061283f81612819565b92915050565b60006020828403121561285b5761285a6125da565b5b600061286984828501612830565b91505092915050565b61287b816126bf565b82525050565b60006020820190506128966000830184612872565b92915050565b600080604083850312156128b3576128b26125da565b5b60006128c1858286016126e8565b92505060206128d285828601612830565b9150509250929050565b6000806000606084860312156128f5576128f46125da565b5b6000612903868287016126e8565b9350506020612914868287016126e8565b925050604061292586828701612830565b9150509250925092565b600080fd5b600080fd5b7f4e487b7100000000000000000000000000000000000000000000000000000000600052604160045260246000fd5b612971826127ad565b810181811067ffffffffffffffff821117156129905761298f612939565b5b80604052505050565b60006129a36125d0565b90506129af8282612968565b919050565b600067ffffffffffffffff8211156129cf576129ce612939565b5b6129d8826127ad565b9050602081019050919050565b82818337600083830152505050565b6000612a07612a02846129b4565b612999565b905082815260208101848484011115612a2357612a22612934565b5b612a2e8482856129e5565b509392505050565b600082601f830112612a4b57612a4a61292f565b5b8135612a5b8482602086016129f4565b91505092915050565b60008060008060008060008060006101208a8c031215612a8757612a866125da565b5b6000612a958c828d01612830565b9950506020612aa68c828d01612830565b98505060408a013567ffffffffffffffff811115612ac757612ac66125df565b5b612ad38c828d01612a36565b97505060608a013567ffffffffffffffff811115612af457612af36125df565b5b612b008c828d01612a36565b96505060808a013567ffffffffffffffff811115612b2157612b206125df565b5b612b2d8c828d01612a36565b95505060a08a013567ffffffffffffffff811115612b4e57612b4d6125df565b5b612b5a8c828d01612a36565b94505060c08a013567ffffffffffffffff811115612b7b57612b7a6125df565b5b612b878c828d01612a36565b93505060e08a013567ffffffffffffffff811115612ba857612ba76125df565b5b612bb48c828d01612a36565b9250506101008a013567ffffffffffffffff811115612bd657612bd56125df565b5b612be28c828d01612a36565b9150509295985092959850929598565b612bfb81612669565b8114612c0657600080fd5b50565b600081359050612c1881612bf2565b92915050565b60008060408385031215612c3557612c346125da565b5b6000612c43858286016126e8565b9250506020612c5485828601612c09565b9150509250929050565b600061014082019050612c74600083018d612734565b612c81602083018c612734565b612c8e604083018b612872565b8181036060830152612ca0818a6127be565b90508181036080830152612cb481896127be565b905081810360a0830152612cc881886127be565b905081810360c0830152612cdc81876127be565b905081810360e0830152612cf081866127be565b9050818103610100830152612d0581856127be565b9050818103610120830152612d1a81846127be565b90509b9a5050505050505050505050565b600067ffffffffffffffff821115612d4657612d45612939565b5b612d4f826127ad565b9050602081019050919050565b6000612d6f612d6a84612d2b565b612999565b905082815260208101848484011115612d8b57612d8a612934565b5b612d968482856129e5565b509392505050565b600082601f830112612db357612db261292f565b5b8135612dc3848260208601612d5c565b91505092915050565b60008060008060808587031215612de657612de56125da565b5b6000612df4878288016126e8565b9450506020612e05878288016126e8565b9350506040612e1687828801612830565b925050606085013567ffffffffffffffff811115612e3757612e366125df565b5b612e4387828801612d9e565b91505092959194509250565b600081519050919050565b600082825260208201905092915050565b6000819050602082019050919050565b612e848161272a565b82525050565b612e93816126bf565b82525050565b600082825260208201905092915050565b6000612eb58261275e565b612ebf8185612e99565b9350612ecf81856020860161277a565b612ed8816127ad565b840191505092915050565b600061014083016000830151612efc6000860182612e7b565b506020830151612f0f6020860182612e7b565b506040830151612f226040860182612e8a565b5060608301518482036060860152612f3a8282612eaa565b91505060808301518482036080860152612f548282612eaa565b91505060a083015184820360a0860152612f6e8282612eaa565b91505060c083015184820360c0860152612f888282612eaa565b91505060e083015184820360e0860152612fa28282612eaa565b915050610100830151848203610100860152612fbe8282612eaa565b915050610120830151848203610120860152612fda8282612eaa565b9150508091505092915050565b6000612ff38383612ee3565b905092915050565b6000602082019050919050565b600061301382612e4f565b61301d8185612e5a565b93508360208202850161302f85612e6b565b8060005b8581101561306b578484038952815161304c8582612fe7565b945061305783612ffb565b925060208a01995050600181019050613033565b50829750879550505050505092915050565b600060208201905081810360008301526130978184613008565b905092915050565b600080604083850312156130b6576130b56125da565b5b60006130c4858286016126e8565b92505060206130d5858286016126e8565b9150509250929050565b7f4e487b7100000000000000000000000000000000000000000000000000000000600052602260045260246000fd5b6000600282049050600182168061312657607f821691505b6020821081141561313a576131396130df565b5b50919050565b7f4552433732313a20617070726f76656420717565727920666f72206e6f6e657860008201527f697374656e7420746f6b656e0000000000000000000000000000000000000000602082015250565b600061319c602c83612769565b91506131a782613140565b604082019050919050565b600060208201905081810360008301526131cb8161318f565b9050919050565b7f4552433732313a20617070726f76616c20746f2063757272656e74206f776e6560008201527f7200000000000000000000000000000000000000000000000000000000000000602082015250565b600061322e602183612769565b9150613239826131d2565b604082019050919050565b6000602082019050818103600083015261325d81613221565b9050919050565b7f4552433732313a20617070726f76652063616c6c6572206973206e6f74206f7760008201527f6e6572206e6f7220617070726f76656420666f7220616c6c0000000000000000602082015250565b60006132c0603883612769565b91506132cb82613264565b604082019050919050565b600060208201905081810360008301526132ef816132b3565b9050919050565b7f4552433732313a207472616e736665722063616c6c6572206973206e6f74206f60008201527f776e6572206e6f7220617070726f766564000000000000000000000000000000602082015250565b6000613352603183612769565b915061335d826132f6565b604082019050919050565b6000602082019050818103600083015261338181613345565b9050919050565b7f4552433732313a206f776e657220717565727920666f72206e6f6e657869737460008201527f656e7420746f6b656e0000000000000000000000000000000000000000000000602082015250565b60006133e4602983612769565b91506133ef82613388565b604082019050919050565b60006020820190508181036000830152613413816133d7565b9050919050565b7f4552433732313a2062616c616e636520717565727920666f7220746865207a6560008201527f726f206164647265737300000000000000000000000000000000000000000000602082015250565b6000613476602a83612769565b91506134818261341a565b604082019050919050565b600060208201905081810360008301526134a581613469565b9050919050565b7f416e204e46542077697468207468617420636f6e74656e74204964206861732060008201527f616c7265616479206265656e206d696e7465642e000000000000000000000000602082015250565b6000613508603483612769565b9150613513826134ac565b604082019050919050565b60006020820190508181036000830152613537816134fb565b9050919050565b7f4e487b7100000000000000000000000000000000000000000000000000000000600052601160045260246000fd5b60006135788261272a565b91506135838361272a565b9250827fffffffffffffffffffffffffffffffffffffffffffffffffffffffffffffffff038211156135b8576135b761353e565b5b828201905092915050565b7f4552433732314d657461646174613a2055524920717565727920666f72206e6f60008201527f6e6578697374656e7420746f6b656e0000000000000000000000000000000000602082015250565b600061361f602f83612769565b915061362a826135c3565b604082019050919050565b6000602082019050818103600083015261364e81613612565b9050919050565b600081905092915050565b600061366b8261275e565b6136758185613655565b935061368581856020860161277a565b80840191505092915050565b600061369d8285613660565b91506136a98284613660565b91508190509392505050565b7f5468652075736572206f776e73206e6f204e4654732e00000000000000000000600082015250565b60006136eb601683612769565b91506136f6826136b5565b602082019050919050565b6000602082019050818103600083015261371a816136de565b9050919050565b7f4e487b7100000000000000000000000000000000000000000000000000000000600052603260045260246000fd5b600061375b8261272a565b91507fffffffffffffffffffffffffffffffffffffffffffffffffffffffffffffffff82141561378e5761378d61353e565b5b600182019050919050565b7f4552433732313a206f70657261746f7220717565727920666f72206e6f6e657860008201527f697374656e7420746f6b656e0000000000000000000000000000000000000000602082015250565b60006137f5602c83612769565b915061380082613799565b604082019050919050565b60006020820190508181036000830152613824816137e8565b9050919050565b7f4552433732313a207472616e736665722066726f6d20696e636f72726563742060008201527f6f776e6572000000000000000000000000000000000000000000000000000000602082015250565b6000613887602583612769565b91506138928261382b565b604082019050919050565b600060208201905081810360008301526138b68161387a565b9050919050565b7f4552433732313a207472616e7366657220746f20746865207a65726f2061646460008201527f7265737300000000000000000000000000000000000000000000000000000000602082015250565b6000613919602483612769565b9150613924826138bd565b604082019050919050565b600060208201905081810360008301526139488161390c565b9050919050565b600061395a8261272a565b91506139658361272a565b9250828210156139785761397761353e565b5b828203905092915050565b7f4552433732313a206d696e7420746f20746865207a65726f2061646472657373600082015250565b60006139b9602083612769565b91506139c482613983565b602082019050919050565b600060208201905081810360008301526139e8816139ac565b9050919050565b7f4552433732313a20746f6b656e20616c7265616479206d696e74656400000000600082015250565b6000613a25601c83612769565b9150613a30826139ef565b602082019050919050565b60006020820190508181036000830152613a5481613a18565b9050919050565b7f4552433732313a20617070726f766520746f2063616c6c657200000000000000600082015250565b6000613a91601983612769565b9150613a9c82613a5b565b602082019050919050565b60006020820190508181036000830152613ac081613a84565b9050919050565b7f4552433732313a207472616e7366657220746f206e6f6e20455243373231526560008201527f63656976657220696d706c656d656e7465720000000000000000000000000000602082015250565b6000613b23603283612769565b9150613b2e82613ac7565b604082019050919050565b60006020820190508181036000830152613b5281613b16565b9050919050565b7f4e487b7100000000000000000000000000000000000000000000000000000000600052601260045260246000fd5b6000613b938261272a565b9150613b9e8361272a565b925082613bae57613bad613b59565b5b828204905092915050565b6000613bc48261272a565b9150613bcf8361272a565b925082613bdf57613bde613b59565b5b828206905092915050565b600081519050919050565b600082825260208201905092915050565b6000613c1182613bea565b613c1b8185613bf5565b9350613c2b81856020860161277a565b613c34816127ad565b840191505092915050565b6000608082019050613c546000830187612872565b613c616020830186612872565b613c6e6040830185612734565b8181036060830152613c808184613c06565b905095945050505050565b600081519050613c9a81612610565b92915050565b600060208284031215613cb657613cb56125da565b5b6000613cc484828501613c8b565b9150509291505056fea26469706673582212207129e58839498109423ff882da08c65a97e38a0947978847f4472257e05eb0d664736f6c634300080b0033",
  "immutableReferences": {},
  "source": "// contracts/MyNFT.sol\n// SPDX-License-Identifier: MIT\n//pragma experimental ABIEncoderV2;\npragma solidity ^0.8.0;\n\nimport \"@openzeppelin/contracts/token/ERC721/ERC721.sol\";\n//import \"@openzeppelin/contracts/token/ERC721/extensions/ERC721Royalty.sol\";\nimport \"@openzeppelin/contracts/utils/Counters.sol\";\n\ncontract NFTea is ERC721 { // ERC721Royalty to be added in US036\n    struct Media {\n        uint256 id;\n        uint256 publisherId;\n        address publisherAddress;\n        string  mediaType;\n        string  URL;\n        string  permaLink;\n        string  thumbnailURL;\n        string  timestamp;\n        string  publisherUsername;\n        string  caption;\n    }\n\n    using Counters for Counters.Counter;\n    Counters.Counter private _contentCount;\n    mapping (uint256 => uint256) public nftToMedia;\n    mapping (uint256 => Media) public contents;\n    mapping (address => uint256) public contentCountByUser;\n\n    constructor() ERC721(\"NF-TEA\", \"NFTEA\") {}\n\n    function mintNFTea (\n        uint256 id,\n        uint256 publisherId,\n        string memory  mediaType,\n        string memory  URL,\n        string memory  permaLink,\n        string memory  thumbnailURL,\n        string memory  timestamp,\n        string memory  publisherUsername,\n        string memory  caption\n    )\n    public\n    {\n        require(nftToMedia[id] == 0, \"An NFT with that content Id has already been minted.\");\n\n        _contentCount.increment();\n        nftToMedia[id] = _contentCount.current();\n        contentCountByUser[msg.sender] = contentCountByUser[msg.sender] + 1;\n\n        contents[_contentCount.current()] = Media(\n            id,\n            publisherId,\n            msg.sender,\n            mediaType,\n            URL,\n            permaLink,\n            thumbnailURL,\n            timestamp,\n            publisherUsername,\n            caption\n        );\n\n        _mint(msg.sender, id);\n    }\n\n    function getMediaByUser () public view returns (Media[] memory) {\n        require(contentCountByUser[msg.sender] != 0, \"The user owns no NFTs.\");\n\n        Media[] memory memoryArray = new Media[](contentCountByUser[msg.sender]);\n        uint256 j = 0;\n\n        for(uint256 i = 1; i <= _contentCount.current() && j < contentCountByUser[msg.sender]; i++) {\n            if(contents[i].publisherAddress == msg.sender) {\n                memoryArray[j] = contents[i];\n                j++;\n            }\n        }\n\n        return memoryArray;\n    }\n}\n",
  "sourcePath": "/Users/mircea/Documents/McGill/Classes/ECSE/428/Project/NF-TEA/NFTEA-Blockchain/contracts/NFTEA.sol",
  "compiler": {
    "name": "solc",
    "version": "0.8.11+commit.d7f03943.Emscripten.clang"
  },
  "schemaVersion": "3.4.5",
  "updatedAt": "2022-02-23T21:32:24.000Z",
  "networkType": "ethereum",
  "devdoc": {
    "kind": "dev",
    "methods": {
      "approve(address,uint256)": {
        "details": "See {IERC721-approve}."
      },
      "balanceOf(address)": {
        "details": "See {IERC721-balanceOf}."
      },
      "getApproved(uint256)": {
        "details": "See {IERC721-getApproved}."
      },
      "isApprovedForAll(address,address)": {
        "details": "See {IERC721-isApprovedForAll}."
      },
      "name()": {
        "details": "See {IERC721Metadata-name}."
      },
      "ownerOf(uint256)": {
        "details": "See {IERC721-ownerOf}."
      },
      "safeTransferFrom(address,address,uint256)": {
        "details": "See {IERC721-safeTransferFrom}."
      },
      "safeTransferFrom(address,address,uint256,bytes)": {
        "details": "See {IERC721-safeTransferFrom}."
      },
      "setApprovalForAll(address,bool)": {
        "details": "See {IERC721-setApprovalForAll}."
      },
      "supportsInterface(bytes4)": {
        "details": "See {IERC165-supportsInterface}."
      },
      "symbol()": {
        "details": "See {IERC721Metadata-symbol}."
      },
      "tokenURI(uint256)": {
        "details": "See {IERC721Metadata-tokenURI}."
      },
      "transferFrom(address,address,uint256)": {
        "details": "See {IERC721-transferFrom}."
      }
    },
    "version": 1
  },
  "userdoc": {
    "kind": "user",
    "methods": {},
    "version": 1
  }
}