{
  "contractName": "NFTea",
  "abi": [
    {
      "inputs": [],
      "stateMutability": "nonpayable",
      "type": "constructor"
    },
    {
      "anonymous": false,
      "inputs": [
        {
          "indexed": true,
          "internalType": "address",
          "name": "owner",
          "type": "address"
        },
        {
          "indexed": true,
          "internalType": "address",
          "name": "approved",
          "type": "address"
        },
        {
          "indexed": true,
          "internalType": "uint256",
          "name": "tokenId",
          "type": "uint256"
        }
      ],
      "name": "Approval",
      "type": "event"
    },
    {
      "anonymous": false,
      "inputs": [
        {
          "indexed": true,
          "internalType": "address",
          "name": "owner",
          "type": "address"
        },
        {
          "indexed": true,
          "internalType": "address",
          "name": "operator",
          "type": "address"
        },
        {
          "indexed": false,
          "internalType": "bool",
          "name": "approved",
          "type": "bool"
        }
      ],
      "name": "ApprovalForAll",
      "type": "event"
    },
    {
      "anonymous": false,
      "inputs": [
        {
          "indexed": true,
          "internalType": "address",
          "name": "from",
          "type": "address"
        },
        {
          "indexed": true,
          "internalType": "address",
          "name": "to",
          "type": "address"
        },
        {
          "indexed": true,
          "internalType": "uint256",
          "name": "tokenId",
          "type": "uint256"
        }
      ],
      "name": "Transfer",
      "type": "event"
    },
    {
      "inputs": [
        {
          "internalType": "address",
          "name": "to",
          "type": "address"
        },
        {
          "internalType": "uint256",
          "name": "tokenId",
          "type": "uint256"
        }
      ],
      "name": "approve",
      "outputs": [],
      "stateMutability": "nonpayable",
      "type": "function"
    },
    {
      "inputs": [
        {
          "internalType": "address",
          "name": "owner",
          "type": "address"
        }
      ],
      "name": "balanceOf",
      "outputs": [
        {
          "internalType": "uint256",
          "name": "",
          "type": "uint256"
        }
      ],
      "stateMutability": "view",
      "type": "function"
    },
    {
      "inputs": [
        {
          "internalType": "uint256",
          "name": "",
          "type": "uint256"
        }
      ],
      "name": "contents",
      "outputs": [
        {
          "internalType": "uint256",
          "name": "id",
          "type": "uint256"
        },
        {
          "internalType": "uint256",
          "name": "publisherId",
          "type": "uint256"
        },
        {
          "internalType": "address",
          "name": "publisherAddress",
          "type": "address"
        },
        {
          "internalType": "string",
          "name": "mediaType",
          "type": "string"
        },
        {
          "internalType": "string",
          "name": "URL",
          "type": "string"
        },
        {
          "internalType": "string",
          "name": "permaLink",
          "type": "string"
        },
        {
          "internalType": "string",
          "name": "thumbnailURL",
          "type": "string"
        },
        {
          "internalType": "string",
          "name": "timestamp",
          "type": "string"
        },
        {
          "internalType": "string",
          "name": "publisherUsername",
          "type": "string"
        },
        {
          "internalType": "string",
          "name": "caption",
          "type": "string"
        }
      ],
      "stateMutability": "view",
      "type": "function"
    },
    {
      "inputs": [
        {
          "internalType": "uint256",
          "name": "tokenId",
          "type": "uint256"
        }
      ],
      "name": "getApproved",
      "outputs": [
        {
          "internalType": "address",
          "name": "",
          "type": "address"
        }
      ],
      "stateMutability": "view",
      "type": "function"
    },
    {
      "inputs": [
        {
          "internalType": "address",
          "name": "owner",
          "type": "address"
        },
        {
          "internalType": "address",
          "name": "operator",
          "type": "address"
        }
      ],
      "name": "isApprovedForAll",
      "outputs": [
        {
          "internalType": "bool",
          "name": "",
          "type": "bool"
        }
      ],
      "stateMutability": "view",
      "type": "function"
    },
    {
      "inputs": [],
      "name": "name",
      "outputs": [
        {
          "internalType": "string",
          "name": "",
          "type": "string"
        }
      ],
      "stateMutability": "view",
      "type": "function"
    },
    {
      "inputs": [
        {
          "internalType": "uint256",
          "name": "tokenId",
          "type": "uint256"
        }
      ],
      "name": "ownerOf",
      "outputs": [
        {
          "internalType": "address",
          "name": "",
          "type": "address"
        }
      ],
      "stateMutability": "view",
      "type": "function"
    },
    {
      "inputs": [
        {
          "internalType": "address",
          "name": "from",
          "type": "address"
        },
        {
          "internalType": "address",
          "name": "to",
          "type": "address"
        },
        {
          "internalType": "uint256",
          "name": "tokenId",
          "type": "uint256"
        }
      ],
      "name": "safeTransferFrom",
      "outputs": [],
      "stateMutability": "nonpayable",
      "type": "function"
    },
    {
      "inputs": [
        {
          "internalType": "address",
          "name": "from",
          "type": "address"
        },
        {
          "internalType": "address",
          "name": "to",
          "type": "address"
        },
        {
          "internalType": "uint256",
          "name": "tokenId",
          "type": "uint256"
        },
        {
          "internalType": "bytes",
          "name": "_data",
          "type": "bytes"
        }
      ],
      "name": "safeTransferFrom",
      "outputs": [],
      "stateMutability": "nonpayable",
      "type": "function"
    },
    {
      "inputs": [
        {
          "internalType": "address",
          "name": "operator",
          "type": "address"
        },
        {
          "internalType": "bool",
          "name": "approved",
          "type": "bool"
        }
      ],
      "name": "setApprovalForAll",
      "outputs": [],
      "stateMutability": "nonpayable",
      "type": "function"
    },
    {
      "inputs": [
        {
          "internalType": "bytes4",
          "name": "interfaceId",
          "type": "bytes4"
        }
      ],
      "name": "supportsInterface",
      "outputs": [
        {
          "internalType": "bool",
          "name": "",
          "type": "bool"
        }
      ],
      "stateMutability": "view",
      "type": "function"
    },
    {
      "inputs": [],
      "name": "symbol",
      "outputs": [
        {
          "internalType": "string",
          "name": "",
          "type": "string"
        }
      ],
      "stateMutability": "view",
      "type": "function"
    },
    {
      "inputs": [
        {
          "internalType": "uint256",
          "name": "tokenId",
          "type": "uint256"
        }
      ],
      "name": "tokenURI",
      "outputs": [
        {
          "internalType": "string",
          "name": "",
          "type": "string"
        }
      ],
      "stateMutability": "view",
      "type": "function"
    },
    {
      "inputs": [
        {
          "internalType": "address",
          "name": "from",
          "type": "address"
        },
        {
          "internalType": "address",
          "name": "to",
          "type": "address"
        },
        {
          "internalType": "uint256",
          "name": "tokenId",
          "type": "uint256"
        }
      ],
      "name": "transferFrom",
      "outputs": [],
      "stateMutability": "nonpayable",
      "type": "function"
    },
    {
      "inputs": [
        {
          "internalType": "uint256",
          "name": "id",
          "type": "uint256"
        },
        {
          "internalType": "uint256",
          "name": "publisherId",
          "type": "uint256"
        },
        {
          "internalType": "address",
          "name": "publisherAddress",
          "type": "address"
        },
        {
          "internalType": "string",
          "name": "mediaType",
          "type": "string"
        },
        {
          "internalType": "string",
          "name": "URL",
          "type": "string"
        },
        {
          "internalType": "string",
          "name": "permaLink",
          "type": "string"
        },
        {
          "internalType": "string",
          "name": "thumbnailURL",
          "type": "string"
        },
        {
          "internalType": "string",
          "name": "timestamp",
          "type": "string"
        },
        {
          "internalType": "string",
          "name": "publisherUsername",
          "type": "string"
        },
        {
          "internalType": "string",
          "name": "caption",
          "type": "string"
        }
      ],
      "name": "mintNFTea",
      "outputs": [],
      "stateMutability": "nonpayable",
      "type": "function"
    },
    {
      "inputs": [],
      "name": "getMediaByUser",
      "outputs": [
        {
          "components": [
            {
              "internalType": "uint256",
              "name": "id",
              "type": "uint256"
            },
            {
              "internalType": "uint256",
              "name": "publisherId",
              "type": "uint256"
            },
            {
              "internalType": "address",
              "name": "publisherAddress",
              "type": "address"
            },
            {
              "internalType": "string",
              "name": "mediaType",
              "type": "string"
            },
            {
              "internalType": "string",
              "name": "URL",
              "type": "string"
            },
            {
              "internalType": "string",
              "name": "permaLink",
              "type": "string"
            },
            {
              "internalType": "string",
              "name": "thumbnailURL",
              "type": "string"
            },
            {
              "internalType": "string",
              "name": "timestamp",
              "type": "string"
            },
            {
              "internalType": "string",
              "name": "publisherUsername",
              "type": "string"
            },
            {
              "internalType": "string",
              "name": "caption",
              "type": "string"
            }
          ],
          "internalType": "struct NFTea.Media[]",
          "name": "",
          "type": "tuple[]"
        }
      ],
      "stateMutability": "view",
      "type": "function"
    }
  ],
  "bytecode": "0x60806040523480156200001157600080fd5b506040518060400160405280600681526020017f4e462d54454100000000000000000000000000000000000000000000000000008152506040518060400160405280600581526020017f4e46544541000000000000000000000000000000000000000000000000000000815250816000908051906020019062000096929190620000b8565b508060019080519060200190620000af929190620000b8565b505050620001cd565b828054620000c69062000197565b90600052602060002090601f016020900481019282620000ea576000855562000136565b82601f106200010557805160ff191683800117855562000136565b8280016001018555821562000136579182015b828111156200013557825182559160200191906001019062000118565b5b50905062000145919062000149565b5090565b5b80821115620001645760008160009055506001016200014a565b5090565b7f4e487b7100000000000000000000000000000000000000000000000000000000600052602260045260246000fd5b60006002820490506001821680620001b057607f821691505b60208210811415620001c757620001c662000168565b5b50919050565b613a2680620001dd6000396000f3fe608060405234801561001057600080fd5b50600436106101005760003560e01c806370a0823111610097578063b88d4fde11610066578063b88d4fde146102c6578063c87b56dd146102e2578063d6287ce414610312578063e985e9c51461033057610100565b806370a082311461022357806395d89b4114610253578063a22cb46514610271578063b5ecf9121461028d57610100565b806323b872dd116100d357806323b872dd1461019f57806342842e0e146101bb57806355db95e3146101d75780636352211e146101f357610100565b806301ffc9a71461010557806306fdde0314610135578063081812fc14610153578063095ea7b314610183575b600080fd5b61011f600480360381019061011a91906123b6565b610360565b60405161012c91906123fe565b60405180910390f35b61013d610442565b60405161014a91906124b2565b60405180910390f35b61016d6004803603810190610168919061250a565b6104d4565b60405161017a9190612578565b60405180910390f35b61019d600480360381019061019891906125bf565b610559565b005b6101b960048036038101906101b491906125ff565b610671565b005b6101d560048036038101906101d091906125ff565b6106d1565b005b6101f160048036038101906101ec9190612787565b6106f1565b005b61020d6004803603810190610208919061250a565b610950565b60405161021a9190612578565b60405180910390f35b61023d6004803603810190610238919061292a565b610a02565b60405161024a9190612966565b60405180910390f35b61025b610aba565b60405161026891906124b2565b60405180910390f35b61028b600480360381019061028691906129ad565b610b4c565b005b6102a760048036038101906102a2919061250a565b610b62565b6040516102bd9a999897969594939291906129ed565b60405180910390f35b6102e060048036038101906102db9190612b5b565b610f8e565b005b6102fc60048036038101906102f7919061250a565b610ff0565b60405161030991906124b2565b60405180910390f35b61031a611097565b6040516103279190612e0c565b60405180910390f35b61034a60048036038101906103459190612e2e565b6115da565b60405161035791906123fe565b60405180910390f35b60007f80ac58cd000000000000000000000000000000000000000000000000000000007bffffffffffffffffffffffffffffffffffffffffffffffffffffffff1916827bffffffffffffffffffffffffffffffffffffffffffffffffffffffff1916148061042b57507f5b5e139f000000000000000000000000000000000000000000000000000000007bffffffffffffffffffffffffffffffffffffffffffffffffffffffff1916827bffffffffffffffffffffffffffffffffffffffffffffffffffffffff1916145b8061043b575061043a8261166e565b5b9050919050565b60606000805461045190612e9d565b80601f016020809104026020016040519081016040528092919081815260200182805461047d90612e9d565b80156104ca5780601f1061049f576101008083540402835291602001916104ca565b820191906000526020600020905b8154815290600101906020018083116104ad57829003601f168201915b5050505050905090565b60006104df826116d8565b61051e576040517f08c379a000000000000000000000000000000000000000000000000000000000815260040161051590612f41565b60405180910390fd5b6004600083815260200190815260200160002060009054906101000a900473ffffffffffffffffffffffffffffffffffffffff169050919050565b600061056482610950565b90508073ffffffffffffffffffffffffffffffffffffffff168373ffffffffffffffffffffffffffffffffffffffff1614156105d5576040517f08c379a00000000000000000000000000000000000000000000000000000000081526004016105cc90612fd3565b60405180910390fd5b8073ffffffffffffffffffffffffffffffffffffffff166105f4611744565b73ffffffffffffffffffffffffffffffffffffffff16148061062357506106228161061d611744565b6115da565b5b610662576040517f08c379a000000000000000000000000000000000000000000000000000000000815260040161065990613065565b60405180910390fd5b61066c838361174c565b505050565b61068261067c611744565b82611805565b6106c1576040517f08c379a00000000000000000000000000000000000000000000000000000000081526004016106b8906130f7565b60405180910390fd5b6106cc8383836118e3565b505050565b6106ec83838360405180602001604052806000815250610f8e565b505050565b600073ffffffffffffffffffffffffffffffffffffffff16600760008c815260200190815260200160002060020160009054906101000a900473ffffffffffffffffffffffffffffffffffffffff1673ffffffffffffffffffffffffffffffffffffffff1614610796576040517f08c379a000000000000000000000000000000000000000000000000000000000815260040161078d90613189565b60405180910390fd5b6040518061014001604052808b81526020018a81526020018973ffffffffffffffffffffffffffffffffffffffff16815260200188815260200187815260200186815260200185815260200184815260200183815260200182815250600760008c8152602001908152602001600020600082015181600001556020820151816001015560408201518160020160006101000a81548173ffffffffffffffffffffffffffffffffffffffff021916908373ffffffffffffffffffffffffffffffffffffffff160217905550606082015181600301908051906020019061087c92919061223e565b50608082015181600401908051906020019061089992919061223e565b5060a08201518160050190805190602001906108b692919061223e565b5060c08201518160060190805190602001906108d392919061223e565b5060e08201518160070190805190602001906108f092919061223e565b5061010082015181600801908051906020019061090e92919061223e565b5061012082015181600901908051906020019061092c92919061223e565b5090505061093a888b611b4a565b6109446006611d24565b50505050505050505050565b6000806002600084815260200190815260200160002060009054906101000a900473ffffffffffffffffffffffffffffffffffffffff169050600073ffffffffffffffffffffffffffffffffffffffff168173ffffffffffffffffffffffffffffffffffffffff1614156109f9576040517f08c379a00000000000000000000000000000000000000000000000000000000081526004016109f09061321b565b60405180910390fd5b80915050919050565b60008073ffffffffffffffffffffffffffffffffffffffff168273ffffffffffffffffffffffffffffffffffffffff161415610a73576040517f08c379a0000000000000000000000000000000000000000000000000000000008152600401610a6a906132ad565b60405180910390fd5b600360008373ffffffffffffffffffffffffffffffffffffffff1673ffffffffffffffffffffffffffffffffffffffff168152602001908152602001600020549050919050565b606060018054610ac990612e9d565b80601f0160208091040260200160405190810160405280929190818152602001828054610af590612e9d565b8015610b425780601f10610b1757610100808354040283529160200191610b42565b820191906000526020600020905b815481529060010190602001808311610b2557829003601f168201915b5050505050905090565b610b5e610b57611744565b8383611d3a565b5050565b60076020528060005260406000206000915090508060000154908060010154908060020160009054906101000a900473ffffffffffffffffffffffffffffffffffffffff1690806003018054610bb790612e9d565b80601f0160208091040260200160405190810160405280929190818152602001828054610be390612e9d565b8015610c305780601f10610c0557610100808354040283529160200191610c30565b820191906000526020600020905b815481529060010190602001808311610c1357829003601f168201915b505050505090806004018054610c4590612e9d565b80601f0160208091040260200160405190810160405280929190818152602001828054610c7190612e9d565b8015610cbe5780601f10610c9357610100808354040283529160200191610cbe565b820191906000526020600020905b815481529060010190602001808311610ca157829003601f168201915b505050505090806005018054610cd390612e9d565b80601f0160208091040260200160405190810160405280929190818152602001828054610cff90612e9d565b8015610d4c5780601f10610d2157610100808354040283529160200191610d4c565b820191906000526020600020905b815481529060010190602001808311610d2f57829003601f168201915b505050505090806006018054610d6190612e9d565b80601f0160208091040260200160405190810160405280929190818152602001828054610d8d90612e9d565b8015610dda5780601f10610daf57610100808354040283529160200191610dda565b820191906000526020600020905b815481529060010190602001808311610dbd57829003601f168201915b505050505090806007018054610def90612e9d565b80601f0160208091040260200160405190810160405280929190818152602001828054610e1b90612e9d565b8015610e685780601f10610e3d57610100808354040283529160200191610e68565b820191906000526020600020905b815481529060010190602001808311610e4b57829003601f168201915b505050505090806008018054610e7d90612e9d565b80601f0160208091040260200160405190810160405280929190818152602001828054610ea990612e9d565b8015610ef65780601f10610ecb57610100808354040283529160200191610ef6565b820191906000526020600020905b815481529060010190602001808311610ed957829003601f168201915b505050505090806009018054610f0b90612e9d565b80601f0160208091040260200160405190810160405280929190818152602001828054610f3790612e9d565b8015610f845780601f10610f5957610100808354040283529160200191610f84565b820191906000526020600020905b815481529060010190602001808311610f6757829003601f168201915b505050505090508a565b610f9f610f99611744565b83611805565b610fde576040517f08c379a0000000000000000000000000000000000000000000000000000000008152600401610fd5906130f7565b60405180910390fd5b610fea84848484611ea7565b50505050565b6060610ffb826116d8565b61103a576040517f08c379a00000000000000000000000000000000000000000000000000000000081526004016110319061333f565b60405180910390fd5b6000611044611f03565b90506000815111611064576040518060200160405280600081525061108f565b8061106e84611f1a565b60405160200161107f92919061339b565b6040516020818303038152906040525b915050919050565b606060006110a5600661207b565b67ffffffffffffffff8111156110be576110bd61265c565b5b6040519080825280602002602001820160405280156110f757816020015b6110e46122c4565b8152602001906001900390816110dc5790505b50905060005b611107600661207b565b8110156115d2576007600060018361111f91906133ee565b81526020019081526020016000206040518061014001604052908160008201548152602001600182015481526020016002820160009054906101000a900473ffffffffffffffffffffffffffffffffffffffff1673ffffffffffffffffffffffffffffffffffffffff1673ffffffffffffffffffffffffffffffffffffffff1681526020016003820180546111b390612e9d565b80601f01602080910402602001604051908101604052809291908181526020018280546111df90612e9d565b801561122c5780601f106112015761010080835404028352916020019161122c565b820191906000526020600020905b81548152906001019060200180831161120f57829003601f168201915b5050505050815260200160048201805461124590612e9d565b80601f016020809104026020016040519081016040528092919081815260200182805461127190612e9d565b80156112be5780601f10611293576101008083540402835291602001916112be565b820191906000526020600020905b8154815290600101906020018083116112a157829003601f168201915b505050505081526020016005820180546112d790612e9d565b80601f016020809104026020016040519081016040528092919081815260200182805461130390612e9d565b80156113505780601f1061132557610100808354040283529160200191611350565b820191906000526020600020905b81548152906001019060200180831161133357829003601f168201915b5050505050815260200160068201805461136990612e9d565b80601f016020809104026020016040519081016040528092919081815260200182805461139590612e9d565b80156113e25780601f106113b7576101008083540402835291602001916113e2565b820191906000526020600020905b8154815290600101906020018083116113c557829003601f168201915b505050505081526020016007820180546113fb90612e9d565b80601f016020809104026020016040519081016040528092919081815260200182805461142790612e9d565b80156114745780601f1061144957610100808354040283529160200191611474565b820191906000526020600020905b81548152906001019060200180831161145757829003601f168201915b5050505050815260200160088201805461148d90612e9d565b80601f01602080910402602001604051908101604052809291908181526020018280546114b990612e9d565b80156115065780601f106114db57610100808354040283529160200191611506565b820191906000526020600020905b8154815290600101906020018083116114e957829003601f168201915b5050505050815260200160098201805461151f90612e9d565b80601f016020809104026020016040519081016040528092919081815260200182805461154b90612e9d565b80156115985780601f1061156d57610100808354040283529160200191611598565b820191906000526020600020905b81548152906001019060200180831161157b57829003601f168201915b5050505050815250508282815181106115b4576115b3613444565b5b602002602001018190525080806115ca90613473565b9150506110fd565b508091505090565b6000600560008473ffffffffffffffffffffffffffffffffffffffff1673ffffffffffffffffffffffffffffffffffffffff16815260200190815260200160002060008373ffffffffffffffffffffffffffffffffffffffff1673ffffffffffffffffffffffffffffffffffffffff16815260200190815260200160002060009054906101000a900460ff16905092915050565b60007f01ffc9a7000000000000000000000000000000000000000000000000000000007bffffffffffffffffffffffffffffffffffffffffffffffffffffffff1916827bffffffffffffffffffffffffffffffffffffffffffffffffffffffff1916149050919050565b60008073ffffffffffffffffffffffffffffffffffffffff166002600084815260200190815260200160002060009054906101000a900473ffffffffffffffffffffffffffffffffffffffff1673ffffffffffffffffffffffffffffffffffffffff1614159050919050565b600033905090565b816004600083815260200190815260200160002060006101000a81548173ffffffffffffffffffffffffffffffffffffffff021916908373ffffffffffffffffffffffffffffffffffffffff160217905550808273ffffffffffffffffffffffffffffffffffffffff166117bf83610950565b73ffffffffffffffffffffffffffffffffffffffff167f8c5be1e5ebec7d5bd14f71427d1e84f3dd0314c0f7b2291e5b200ac8c7c3b92560405160405180910390a45050565b6000611810826116d8565b61184f576040517f08c379a00000000000000000000000000000000000000000000000000000000081526004016118469061352e565b60405180910390fd5b600061185a83610950565b90508073ffffffffffffffffffffffffffffffffffffffff168473ffffffffffffffffffffffffffffffffffffffff1614806118c957508373ffffffffffffffffffffffffffffffffffffffff166118b1846104d4565b73ffffffffffffffffffffffffffffffffffffffff16145b806118da57506118d981856115da565b5b91505092915050565b8273ffffffffffffffffffffffffffffffffffffffff1661190382610950565b73ffffffffffffffffffffffffffffffffffffffff1614611959576040517f08c379a0000000000000000000000000000000000000000000000000000000008152600401611950906135c0565b60405180910390fd5b600073ffffffffffffffffffffffffffffffffffffffff168273ffffffffffffffffffffffffffffffffffffffff1614156119c9576040517f08c379a00000000000000000000000000000000000000000000000000000000081526004016119c090613652565b60405180910390fd5b6119d4838383612089565b6119df60008261174c565b6001600360008573ffffffffffffffffffffffffffffffffffffffff1673ffffffffffffffffffffffffffffffffffffffff1681526020019081526020016000206000828254611a2f9190613672565b925050819055506001600360008473ffffffffffffffffffffffffffffffffffffffff1673ffffffffffffffffffffffffffffffffffffffff1681526020019081526020016000206000828254611a8691906133ee565b92505081905550816002600083815260200190815260200160002060006101000a81548173ffffffffffffffffffffffffffffffffffffffff021916908373ffffffffffffffffffffffffffffffffffffffff160217905550808273ffffffffffffffffffffffffffffffffffffffff168473ffffffffffffffffffffffffffffffffffffffff167fddf252ad1be2c89b69c2b068fc378daa952ba7f163c4a11628f55a4df523b3ef60405160405180910390a4611b4583838361208e565b505050565b600073ffffffffffffffffffffffffffffffffffffffff168273ffffffffffffffffffffffffffffffffffffffff161415611bba576040517f08c379a0000000000000000000000000000000000000000000000000000000008152600401611bb1906136f2565b60405180910390fd5b611bc3816116d8565b15611c03576040517f08c379a0000000000000000000000000000000000000000000000000000000008152600401611bfa9061375e565b60405180910390fd5b611c0f60008383612089565b6001600360008473ffffffffffffffffffffffffffffffffffffffff1673ffffffffffffffffffffffffffffffffffffffff1681526020019081526020016000206000828254611c5f91906133ee565b92505081905550816002600083815260200190815260200160002060006101000a81548173ffffffffffffffffffffffffffffffffffffffff021916908373ffffffffffffffffffffffffffffffffffffffff160217905550808273ffffffffffffffffffffffffffffffffffffffff16600073ffffffffffffffffffffffffffffffffffffffff167fddf252ad1be2c89b69c2b068fc378daa952ba7f163c4a11628f55a4df523b3ef60405160405180910390a4611d206000838361208e565b5050565b6001816000016000828254019250508190555050565b8173ffffffffffffffffffffffffffffffffffffffff168373ffffffffffffffffffffffffffffffffffffffff161415611da9576040517f08c379a0000000000000000000000000000000000000000000000000000000008152600401611da0906137ca565b60405180910390fd5b80600560008573ffffffffffffffffffffffffffffffffffffffff1673ffffffffffffffffffffffffffffffffffffffff16815260200190815260200160002060008473ffffffffffffffffffffffffffffffffffffffff1673ffffffffffffffffffffffffffffffffffffffff16815260200190815260200160002060006101000a81548160ff0219169083151502179055508173ffffffffffffffffffffffffffffffffffffffff168373ffffffffffffffffffffffffffffffffffffffff167f17307eab39ab6107e8899845ad3d59bd9653f200f220920489ca2b5937696c3183604051611e9a91906123fe565b60405180910390a3505050565b611eb28484846118e3565b611ebe84848484612093565b611efd576040517f08c379a0000000000000000000000000000000000000000000000000000000008152600401611ef49061385c565b60405180910390fd5b50505050565b606060405180602001604052806000815250905090565b60606000821415611f62576040518060400160405280600181526020017f30000000000000000000000000000000000000000000000000000000000000008152509050612076565b600082905060005b60008214611f94578080611f7d90613473565b915050600a82611f8d91906138ab565b9150611f6a565b60008167ffffffffffffffff811115611fb057611faf61265c565b5b6040519080825280601f01601f191660200182016040528015611fe25781602001600182028036833780820191505090505b5090505b6000851461206f57600182611ffb9190613672565b9150600a8561200a91906138dc565b603061201691906133ee565b60f81b81838151811061202c5761202b613444565b5b60200101907effffffffffffffffffffffffffffffffffffffffffffffffffffffffffffff1916908160001a905350600a8561206891906138ab565b9450611fe6565b8093505050505b919050565b600081600001549050919050565b505050565b505050565b60006120b48473ffffffffffffffffffffffffffffffffffffffff1661221b565b1561220e578373ffffffffffffffffffffffffffffffffffffffff1663150b7a026120dd611744565b8786866040518563ffffffff1660e01b81526004016120ff9493929190613962565b6020604051808303816000875af192505050801561213b57506040513d601f19601f8201168201806040525081019061213891906139c3565b60015b6121be573d806000811461216b576040519150601f19603f3d011682016040523d82523d6000602084013e612170565b606091505b506000815114156121b6576040517f08c379a00000000000000000000000000000000000000000000000000000000081526004016121ad9061385c565b60405180910390fd5b805181602001fd5b63150b7a0260e01b7bffffffffffffffffffffffffffffffffffffffffffffffffffffffff1916817bffffffffffffffffffffffffffffffffffffffffffffffffffffffff191614915050612213565b600190505b949350505050565b6000808273ffffffffffffffffffffffffffffffffffffffff163b119050919050565b82805461224a90612e9d565b90600052602060002090601f01602090048101928261226c57600085556122b3565b82601f1061228557805160ff19168380011785556122b3565b828001600101855582156122b3579182015b828111156122b2578251825591602001919060010190612297565b5b5090506122c0919061232d565b5090565b6040518061014001604052806000815260200160008152602001600073ffffffffffffffffffffffffffffffffffffffff168152602001606081526020016060815260200160608152602001606081526020016060815260200160608152602001606081525090565b5b8082111561234657600081600090555060010161232e565b5090565b6000604051905090565b600080fd5b600080fd5b60007fffffffff0000000000000000000000000000000000000000000000000000000082169050919050565b6123938161235e565b811461239e57600080fd5b50565b6000813590506123b08161238a565b92915050565b6000602082840312156123cc576123cb612354565b5b60006123da848285016123a1565b91505092915050565b60008115159050919050565b6123f8816123e3565b82525050565b600060208201905061241360008301846123ef565b92915050565b600081519050919050565b600082825260208201905092915050565b60005b83811015612453578082015181840152602081019050612438565b83811115612462576000848401525b50505050565b6000601f19601f8301169050919050565b600061248482612419565b61248e8185612424565b935061249e818560208601612435565b6124a781612468565b840191505092915050565b600060208201905081810360008301526124cc8184612479565b905092915050565b6000819050919050565b6124e7816124d4565b81146124f257600080fd5b50565b600081359050612504816124de565b92915050565b6000602082840312156125205761251f612354565b5b600061252e848285016124f5565b91505092915050565b600073ffffffffffffffffffffffffffffffffffffffff82169050919050565b600061256282612537565b9050919050565b61257281612557565b82525050565b600060208201905061258d6000830184612569565b92915050565b61259c81612557565b81146125a757600080fd5b50565b6000813590506125b981612593565b92915050565b600080604083850312156125d6576125d5612354565b5b60006125e4858286016125aa565b92505060206125f5858286016124f5565b9150509250929050565b60008060006060848603121561261857612617612354565b5b6000612626868287016125aa565b9350506020612637868287016125aa565b9250506040612648868287016124f5565b9150509250925092565b600080fd5b600080fd5b7f4e487b7100000000000000000000000000000000000000000000000000000000600052604160045260246000fd5b61269482612468565b810181811067ffffffffffffffff821117156126b3576126b261265c565b5b80604052505050565b60006126c661234a565b90506126d2828261268b565b919050565b600067ffffffffffffffff8211156126f2576126f161265c565b5b6126fb82612468565b9050602081019050919050565b82818337600083830152505050565b600061272a612725846126d7565b6126bc565b90508281526020810184848401111561274657612745612657565b5b612751848285612708565b509392505050565b600082601f83011261276e5761276d612652565b5b813561277e848260208601612717565b91505092915050565b6000806000806000806000806000806101408b8d0312156127ab576127aa612354565b5b60006127b98d828e016124f5565b9a505060206127ca8d828e016124f5565b99505060406127db8d828e016125aa565b98505060608b013567ffffffffffffffff8111156127fc576127fb612359565b5b6128088d828e01612759565b97505060808b013567ffffffffffffffff81111561282957612828612359565b5b6128358d828e01612759565b96505060a08b013567ffffffffffffffff81111561285657612855612359565b5b6128628d828e01612759565b95505060c08b013567ffffffffffffffff81111561288357612882612359565b5b61288f8d828e01612759565b94505060e08b013567ffffffffffffffff8111156128b0576128af612359565b5b6128bc8d828e01612759565b9350506101008b013567ffffffffffffffff8111156128de576128dd612359565b5b6128ea8d828e01612759565b9250506101208b013567ffffffffffffffff81111561290c5761290b612359565b5b6129188d828e01612759565b9150509295989b9194979a5092959850565b6000602082840312156129405761293f612354565b5b600061294e848285016125aa565b91505092915050565b612960816124d4565b82525050565b600060208201905061297b6000830184612957565b92915050565b61298a816123e3565b811461299557600080fd5b50565b6000813590506129a781612981565b92915050565b600080604083850312156129c4576129c3612354565b5b60006129d2858286016125aa565b92505060206129e385828601612998565b9150509250929050565b600061014082019050612a03600083018d612957565b612a10602083018c612957565b612a1d604083018b612569565b8181036060830152612a2f818a612479565b90508181036080830152612a438189612479565b905081810360a0830152612a578188612479565b905081810360c0830152612a6b8187612479565b905081810360e0830152612a7f8186612479565b9050818103610100830152612a948185612479565b9050818103610120830152612aa98184612479565b90509b9a5050505050505050505050565b600067ffffffffffffffff821115612ad557612ad461265c565b5b612ade82612468565b9050602081019050919050565b6000612afe612af984612aba565b6126bc565b905082815260208101848484011115612b1a57612b19612657565b5b612b25848285612708565b509392505050565b600082601f830112612b4257612b41612652565b5b8135612b52848260208601612aeb565b91505092915050565b60008060008060808587031215612b7557612b74612354565b5b6000612b83878288016125aa565b9450506020612b94878288016125aa565b9350506040612ba5878288016124f5565b925050606085013567ffffffffffffffff811115612bc657612bc5612359565b5b612bd287828801612b2d565b91505092959194509250565b600081519050919050565b600082825260208201905092915050565b6000819050602082019050919050565b612c13816124d4565b82525050565b612c2281612557565b82525050565b600082825260208201905092915050565b6000612c4482612419565b612c4e8185612c28565b9350612c5e818560208601612435565b612c6781612468565b840191505092915050565b600061014083016000830151612c8b6000860182612c0a565b506020830151612c9e6020860182612c0a565b506040830151612cb16040860182612c19565b5060608301518482036060860152612cc98282612c39565b91505060808301518482036080860152612ce38282612c39565b91505060a083015184820360a0860152612cfd8282612c39565b91505060c083015184820360c0860152612d178282612c39565b91505060e083015184820360e0860152612d318282612c39565b915050610100830151848203610100860152612d4d8282612c39565b915050610120830151848203610120860152612d698282612c39565b9150508091505092915050565b6000612d828383612c72565b905092915050565b6000602082019050919050565b6000612da282612bde565b612dac8185612be9565b935083602082028501612dbe85612bfa565b8060005b85811015612dfa5784840389528151612ddb8582612d76565b9450612de683612d8a565b925060208a01995050600181019050612dc2565b50829750879550505050505092915050565b60006020820190508181036000830152612e268184612d97565b905092915050565b60008060408385031215612e4557612e44612354565b5b6000612e53858286016125aa565b9250506020612e64858286016125aa565b9150509250929050565b7f4e487b7100000000000000000000000000000000000000000000000000000000600052602260045260246000fd5b60006002820490506001821680612eb557607f821691505b60208210811415612ec957612ec8612e6e565b5b50919050565b7f4552433732313a20617070726f76656420717565727920666f72206e6f6e657860008201527f697374656e7420746f6b656e0000000000000000000000000000000000000000602082015250565b6000612f2b602c83612424565b9150612f3682612ecf565b604082019050919050565b60006020820190508181036000830152612f5a81612f1e565b9050919050565b7f4552433732313a20617070726f76616c20746f2063757272656e74206f776e6560008201527f7200000000000000000000000000000000000000000000000000000000000000602082015250565b6000612fbd602183612424565b9150612fc882612f61565b604082019050919050565b60006020820190508181036000830152612fec81612fb0565b9050919050565b7f4552433732313a20617070726f76652063616c6c6572206973206e6f74206f7760008201527f6e6572206e6f7220617070726f76656420666f7220616c6c0000000000000000602082015250565b600061304f603883612424565b915061305a82612ff3565b604082019050919050565b6000602082019050818103600083015261307e81613042565b9050919050565b7f4552433732313a207472616e736665722063616c6c6572206973206e6f74206f60008201527f776e6572206e6f7220617070726f766564000000000000000000000000000000602082015250565b60006130e1603183612424565b91506130ec82613085565b604082019050919050565b60006020820190508181036000830152613110816130d4565b9050919050565b7f416e204e46542077697468207468617420636f6e74656e74204964206861732060008201527f616c7265616479206265656e206d696e7465642e000000000000000000000000602082015250565b6000613173603483612424565b915061317e82613117565b604082019050919050565b600060208201905081810360008301526131a281613166565b9050919050565b7f4552433732313a206f776e657220717565727920666f72206e6f6e657869737460008201527f656e7420746f6b656e0000000000000000000000000000000000000000000000602082015250565b6000613205602983612424565b9150613210826131a9565b604082019050919050565b60006020820190508181036000830152613234816131f8565b9050919050565b7f4552433732313a2062616c616e636520717565727920666f7220746865207a6560008201527f726f206164647265737300000000000000000000000000000000000000000000602082015250565b6000613297602a83612424565b91506132a28261323b565b604082019050919050565b600060208201905081810360008301526132c68161328a565b9050919050565b7f4552433732314d657461646174613a2055524920717565727920666f72206e6f60008201527f6e6578697374656e7420746f6b656e0000000000000000000000000000000000602082015250565b6000613329602f83612424565b9150613334826132cd565b604082019050919050565b600060208201905081810360008301526133588161331c565b9050919050565b600081905092915050565b600061337582612419565b61337f818561335f565b935061338f818560208601612435565b80840191505092915050565b60006133a7828561336a565b91506133b3828461336a565b91508190509392505050565b7f4e487b7100000000000000000000000000000000000000000000000000000000600052601160045260246000fd5b60006133f9826124d4565b9150613404836124d4565b9250827fffffffffffffffffffffffffffffffffffffffffffffffffffffffffffffffff03821115613439576134386133bf565b5b828201905092915050565b7f4e487b7100000000000000000000000000000000000000000000000000000000600052603260045260246000fd5b600061347e826124d4565b91507fffffffffffffffffffffffffffffffffffffffffffffffffffffffffffffffff8214156134b1576134b06133bf565b5b600182019050919050565b7f4552433732313a206f70657261746f7220717565727920666f72206e6f6e657860008201527f697374656e7420746f6b656e0000000000000000000000000000000000000000602082015250565b6000613518602c83612424565b9150613523826134bc565b604082019050919050565b600060208201905081810360008301526135478161350b565b9050919050565b7f4552433732313a207472616e736665722066726f6d20696e636f72726563742060008201527f6f776e6572000000000000000000000000000000000000000000000000000000602082015250565b60006135aa602583612424565b91506135b58261354e565b604082019050919050565b600060208201905081810360008301526135d98161359d565b9050919050565b7f4552433732313a207472616e7366657220746f20746865207a65726f2061646460008201527f7265737300000000000000000000000000000000000000000000000000000000602082015250565b600061363c602483612424565b9150613647826135e0565b604082019050919050565b6000602082019050818103600083015261366b8161362f565b9050919050565b600061367d826124d4565b9150613688836124d4565b92508282101561369b5761369a6133bf565b5b828203905092915050565b7f4552433732313a206d696e7420746f20746865207a65726f2061646472657373600082015250565b60006136dc602083612424565b91506136e7826136a6565b602082019050919050565b6000602082019050818103600083015261370b816136cf565b9050919050565b7f4552433732313a20746f6b656e20616c7265616479206d696e74656400000000600082015250565b6000613748601c83612424565b915061375382613712565b602082019050919050565b600060208201905081810360008301526137778161373b565b9050919050565b7f4552433732313a20617070726f766520746f2063616c6c657200000000000000600082015250565b60006137b4601983612424565b91506137bf8261377e565b602082019050919050565b600060208201905081810360008301526137e3816137a7565b9050919050565b7f4552433732313a207472616e7366657220746f206e6f6e20455243373231526560008201527f63656976657220696d706c656d656e7465720000000000000000000000000000602082015250565b6000613846603283612424565b9150613851826137ea565b604082019050919050565b6000602082019050818103600083015261387581613839565b9050919050565b7f4e487b7100000000000000000000000000000000000000000000000000000000600052601260045260246000fd5b60006138b6826124d4565b91506138c1836124d4565b9250826138d1576138d061387c565b5b828204905092915050565b60006138e7826124d4565b91506138f2836124d4565b9250826139025761390161387c565b5b828206905092915050565b600081519050919050565b600082825260208201905092915050565b60006139348261390d565b61393e8185613918565b935061394e818560208601612435565b61395781612468565b840191505092915050565b60006080820190506139776000830187612569565b6139846020830186612569565b6139916040830185612957565b81810360608301526139a38184613929565b905095945050505050565b6000815190506139bd8161238a565b92915050565b6000602082840312156139d9576139d8612354565b5b60006139e7848285016139ae565b9150509291505056fea2646970667358221220c42e81ca6dcdebb1422c1612339fd6cd5cdce5b2310ab21a3e96fc881b572f9e64736f6c634300080b0033",
  "immutableReferences": {},
  "source": "// contracts/MyNFT.sol\n// SPDX-License-Identifier: MIT\npragma experimental ABIEncoderV2;\npragma solidity ^0.8.0;\n\nimport \"@openzeppelin/contracts/token/ERC721/ERC721.sol\";\n//import \"@openzeppelin/contracts/token/ERC721/extensions/ERC721Royalty.sol\";\nimport \"@openzeppelin/contracts/utils/Counters.sol\";\n\ncontract NFTea is ERC721 { // ERC721Royalty to be added in US036\n    struct Media {\n        uint256 id;\n        uint256 publisherId;\n        address publisherAddress;\n        string  mediaType;\n        string  URL;\n        string  permaLink;\n        string  thumbnailURL;\n        string  timestamp;\n        string  publisherUsername;\n        string  caption;\n    }\n\n    using Counters for Counters.Counter;\n    Counters.Counter private _contentCount;\n    mapping (uint256 => Media) public contents;\n\n    constructor() ERC721(\"NF-TEA\", \"NFTEA\") {}\n\n    function mintNFTea (\n        uint256 id,\n        uint256 publisherId,\n        address publisherAddress,\n        string memory  mediaType,\n        string memory  URL,\n        string memory  permaLink,\n        string memory  thumbnailURL,\n        string memory  timestamp,\n        string memory  publisherUsername,\n        string memory  caption\n    )\n    public\n    {\n        require(contents[id].publisherAddress == address(0x0), \"An NFT with that content Id has already been minted.\");\n\n        contents[id] = Media(\n            id,\n            publisherId,\n            publisherAddress,\n            mediaType,\n            URL,\n            permaLink,\n            thumbnailURL,\n            timestamp,\n            publisherUsername,\n            caption\n        );\n        _mint(publisherAddress, id);\n        _contentCount.increment();\n    }\n\n    function getMediaByUser () public view returns (Media[] memory) {\n        Media[] memory memoryArray = new Media[](_contentCount.current());\n\n        for(uint i = 0; i < _contentCount.current(); i++) {\n            //if(contents[i+1].publisherAddress == msg.sender) {\n                memoryArray[i] = contents[i+1];\n            //}\n        }\n        return memoryArray;\n    }\n}\n",
  "sourcePath": "/Users/mircea/Documents/McGill/Classes/ECSE/428/Project/NF-TEA/NFTEA-Blockchain/contracts/NFTEA.sol",
  "compiler": {
    "name": "solc",
    "version": "0.8.11+commit.d7f03943.Emscripten.clang"
  },
  "schemaVersion": "3.4.5",
  "updatedAt": "2022-02-23T04:03:25.183Z",
  "devdoc": {
    "kind": "dev",
    "methods": {
      "approve(address,uint256)": {
        "details": "See {IERC721-approve}."
      },
      "balanceOf(address)": {
        "details": "See {IERC721-balanceOf}."
      },
      "getApproved(uint256)": {
        "details": "See {IERC721-getApproved}."
      },
      "isApprovedForAll(address,address)": {
        "details": "See {IERC721-isApprovedForAll}."
      },
      "name()": {
        "details": "See {IERC721Metadata-name}."
      },
      "ownerOf(uint256)": {
        "details": "See {IERC721-ownerOf}."
      },
      "safeTransferFrom(address,address,uint256)": {
        "details": "See {IERC721-safeTransferFrom}."
      },
      "safeTransferFrom(address,address,uint256,bytes)": {
        "details": "See {IERC721-safeTransferFrom}."
      },
      "setApprovalForAll(address,bool)": {
        "details": "See {IERC721-setApprovalForAll}."
      },
      "supportsInterface(bytes4)": {
        "details": "See {IERC165-supportsInterface}."
      },
      "symbol()": {
        "details": "See {IERC721Metadata-symbol}."
      },
      "tokenURI(uint256)": {
        "details": "See {IERC721Metadata-tokenURI}."
      },
      "transferFrom(address,address,uint256)": {
        "details": "See {IERC721-transferFrom}."
      }
    },
    "version": 1
  },
  "userdoc": {
    "kind": "user",
    "methods": {},
    "version": 1
  }
}