{
  "contractName": "NFTea",
  "abi": [
    {
      "inputs": [
        {
          "internalType": "address",
          "name": "productOwner",
          "type": "address"
        }
      ],
      "stateMutability": "nonpayable",
      "type": "constructor"
    },
    {
      "anonymous": false,
      "inputs": [
        {
          "indexed": true,
          "internalType": "address",
          "name": "owner",
          "type": "address"
        },
        {
          "indexed": true,
          "internalType": "address",
          "name": "approved",
          "type": "address"
        },
        {
          "indexed": true,
          "internalType": "uint256",
          "name": "tokenId",
          "type": "uint256"
        }
      ],
      "name": "Approval",
      "type": "event"
    },
    {
      "anonymous": false,
      "inputs": [
        {
          "indexed": true,
          "internalType": "address",
          "name": "owner",
          "type": "address"
        },
        {
          "indexed": true,
          "internalType": "address",
          "name": "operator",
          "type": "address"
        },
        {
          "indexed": false,
          "internalType": "bool",
          "name": "approved",
          "type": "bool"
        }
      ],
      "name": "ApprovalForAll",
      "type": "event"
    },
    {
      "anonymous": false,
      "inputs": [
        {
          "indexed": true,
          "internalType": "address",
          "name": "from",
          "type": "address"
        },
        {
          "indexed": true,
          "internalType": "address",
          "name": "to",
          "type": "address"
        },
        {
          "indexed": true,
          "internalType": "uint256",
          "name": "tokenId",
          "type": "uint256"
        }
      ],
      "name": "Transfer",
      "type": "event"
    },
    {
      "inputs": [
        {
          "internalType": "address",
          "name": "to",
          "type": "address"
        },
        {
          "internalType": "uint256",
          "name": "tokenId",
          "type": "uint256"
        }
      ],
      "name": "approve",
      "outputs": [],
      "stateMutability": "nonpayable",
      "type": "function"
    },
    {
      "inputs": [
        {
          "internalType": "address",
          "name": "owner",
          "type": "address"
        }
      ],
      "name": "balanceOf",
      "outputs": [
        {
          "internalType": "uint256",
          "name": "",
          "type": "uint256"
        }
      ],
      "stateMutability": "view",
      "type": "function",
      "constant": true
    },
    {
      "inputs": [
        {
          "internalType": "address",
          "name": "",
          "type": "address"
        }
      ],
      "name": "contentCountByUser",
      "outputs": [
        {
          "internalType": "uint256",
          "name": "",
          "type": "uint256"
        }
      ],
      "stateMutability": "view",
      "type": "function",
      "constant": true
    },
    {
      "inputs": [
        {
          "internalType": "uint256",
          "name": "",
          "type": "uint256"
        }
      ],
      "name": "contents",
      "outputs": [
        {
          "internalType": "uint256",
          "name": "id",
          "type": "uint256"
        },
        {
          "internalType": "uint256",
          "name": "publisherId",
          "type": "uint256"
        },
        {
          "internalType": "address",
          "name": "publisherAddress",
          "type": "address"
        },
        {
          "internalType": "string",
          "name": "mediaType",
          "type": "string"
        },
        {
          "internalType": "string",
          "name": "URL",
          "type": "string"
        },
        {
          "internalType": "string",
          "name": "permaLink",
          "type": "string"
        },
        {
          "internalType": "string",
          "name": "thumbnailURL",
          "type": "string"
        },
        {
          "internalType": "string",
          "name": "timestamp",
          "type": "string"
        },
        {
          "internalType": "string",
          "name": "publisherUsername",
          "type": "string"
        },
        {
          "internalType": "string",
          "name": "caption",
          "type": "string"
        },
        {
          "internalType": "string",
          "name": "CollectionName",
          "type": "string"
        }
      ],
      "stateMutability": "view",
      "type": "function",
      "constant": true
    },
    {
      "inputs": [
        {
          "internalType": "uint256",
          "name": "tokenId",
          "type": "uint256"
        }
      ],
      "name": "getApproved",
      "outputs": [
        {
          "internalType": "address",
          "name": "",
          "type": "address"
        }
      ],
      "stateMutability": "view",
      "type": "function",
      "constant": true
    },
    {
      "inputs": [
        {
          "internalType": "address",
          "name": "owner",
          "type": "address"
        },
        {
          "internalType": "address",
          "name": "operator",
          "type": "address"
        }
      ],
      "name": "isApprovedForAll",
      "outputs": [
        {
          "internalType": "bool",
          "name": "",
          "type": "bool"
        }
      ],
      "stateMutability": "view",
      "type": "function",
      "constant": true
    },
    {
      "inputs": [],
      "name": "name",
      "outputs": [
        {
          "internalType": "string",
          "name": "",
          "type": "string"
        }
      ],
      "stateMutability": "view",
      "type": "function",
      "constant": true
    },
    {
      "inputs": [
        {
          "internalType": "uint256",
          "name": "",
          "type": "uint256"
        }
      ],
      "name": "nftToMedia",
      "outputs": [
        {
          "internalType": "uint256",
          "name": "",
          "type": "uint256"
        }
      ],
      "stateMutability": "view",
      "type": "function",
      "constant": true
    },
    {
      "inputs": [
        {
          "internalType": "uint256",
          "name": "tokenId",
          "type": "uint256"
        }
      ],
      "name": "ownerOf",
      "outputs": [
        {
          "internalType": "address",
          "name": "",
          "type": "address"
        }
      ],
      "stateMutability": "view",
      "type": "function",
      "constant": true
    },
    {
      "inputs": [
        {
          "internalType": "uint256",
          "name": "_tokenId",
          "type": "uint256"
        },
        {
          "internalType": "uint256",
          "name": "_salePrice",
          "type": "uint256"
        }
      ],
      "name": "royaltyInfo",
      "outputs": [
        {
          "internalType": "address",
          "name": "",
          "type": "address"
        },
        {
          "internalType": "uint256",
          "name": "",
          "type": "uint256"
        }
      ],
      "stateMutability": "view",
      "type": "function",
      "constant": true
    },
    {
      "inputs": [
        {
          "internalType": "address",
          "name": "from",
          "type": "address"
        },
        {
          "internalType": "address",
          "name": "to",
          "type": "address"
        },
        {
          "internalType": "uint256",
          "name": "tokenId",
          "type": "uint256"
        }
      ],
      "name": "safeTransferFrom",
      "outputs": [],
      "stateMutability": "nonpayable",
      "type": "function"
    },
    {
      "inputs": [
        {
          "internalType": "address",
          "name": "from",
          "type": "address"
        },
        {
          "internalType": "address",
          "name": "to",
          "type": "address"
        },
        {
          "internalType": "uint256",
          "name": "tokenId",
          "type": "uint256"
        },
        {
          "internalType": "bytes",
          "name": "_data",
          "type": "bytes"
        }
      ],
      "name": "safeTransferFrom",
      "outputs": [],
      "stateMutability": "nonpayable",
      "type": "function"
    },
    {
      "inputs": [
        {
          "internalType": "address",
          "name": "operator",
          "type": "address"
        },
        {
          "internalType": "bool",
          "name": "approved",
          "type": "bool"
        }
      ],
      "name": "setApprovalForAll",
      "outputs": [],
      "stateMutability": "nonpayable",
      "type": "function"
    },
    {
      "inputs": [
        {
          "internalType": "bytes4",
          "name": "interfaceId",
          "type": "bytes4"
        }
      ],
      "name": "supportsInterface",
      "outputs": [
        {
          "internalType": "bool",
          "name": "",
          "type": "bool"
        }
      ],
      "stateMutability": "view",
      "type": "function",
      "constant": true
    },
    {
      "inputs": [],
      "name": "symbol",
      "outputs": [
        {
          "internalType": "string",
          "name": "",
          "type": "string"
        }
      ],
      "stateMutability": "view",
      "type": "function",
      "constant": true
    },
    {
      "inputs": [
        {
          "internalType": "uint256",
          "name": "tokenId",
          "type": "uint256"
        }
      ],
      "name": "tokenURI",
      "outputs": [
        {
          "internalType": "string",
          "name": "",
          "type": "string"
        }
      ],
      "stateMutability": "view",
      "type": "function",
      "constant": true
    },
    {
      "inputs": [
        {
          "internalType": "address",
          "name": "from",
          "type": "address"
        },
        {
          "internalType": "address",
          "name": "to",
          "type": "address"
        },
        {
          "internalType": "uint256",
          "name": "tokenId",
          "type": "uint256"
        }
      ],
      "name": "transferFrom",
      "outputs": [],
      "stateMutability": "nonpayable",
      "type": "function"
    },
    {
      "inputs": [
        {
          "internalType": "uint256",
          "name": "id",
          "type": "uint256"
        },
        {
          "internalType": "uint256",
          "name": "publisherId",
          "type": "uint256"
        },
        {
          "internalType": "string",
          "name": "mediaType",
          "type": "string"
        },
        {
          "internalType": "string",
          "name": "URL",
          "type": "string"
        },
        {
          "internalType": "string",
          "name": "permaLink",
          "type": "string"
        },
        {
          "internalType": "string",
          "name": "thumbnailURL",
          "type": "string"
        },
        {
          "internalType": "string",
          "name": "timestamp",
          "type": "string"
        },
        {
          "internalType": "string",
          "name": "publisherUsername",
          "type": "string"
        },
        {
          "internalType": "string",
          "name": "caption",
          "type": "string"
        },
        {
          "internalType": "string",
          "name": "CollectionName",
          "type": "string"
        }
      ],
      "name": "mintNFTea",
      "outputs": [],
      "stateMutability": "nonpayable",
      "type": "function"
    },
    {
      "inputs": [
        {
          "internalType": "uint256",
          "name": "tokenId",
          "type": "uint256"
        },
        {
          "internalType": "uint256",
          "name": "price",
          "type": "uint256"
        }
      ],
      "name": "buy",
      "outputs": [],
      "stateMutability": "payable",
      "type": "function",
      "payable": true
    },
    {
      "inputs": [
        {
          "internalType": "uint256",
          "name": "tokenId",
          "type": "uint256"
        }
      ],
      "name": "proposeTradeOffer",
      "outputs": [],
      "stateMutability": "payable",
      "type": "function",
      "payable": true
    },
    {
      "inputs": [
        {
          "internalType": "uint256",
          "name": "tokenId",
          "type": "uint256"
        }
      ],
      "name": "withdrawOffer",
      "outputs": [],
      "stateMutability": "nonpayable",
      "type": "function"
    },
    {
      "inputs": [
        {
          "internalType": "uint256",
          "name": "tokenId",
          "type": "uint256"
        },
        {
          "internalType": "address payable",
          "name": "buyer",
          "type": "address"
        }
      ],
      "name": "acceptTradeOffer",
      "outputs": [],
      "stateMutability": "nonpayable",
      "type": "function"
    },
    {
      "inputs": [],
      "name": "getMediaByUser",
      "outputs": [
        {
          "components": [
            {
              "internalType": "uint256",
              "name": "id",
              "type": "uint256"
            },
            {
              "internalType": "uint256",
              "name": "publisherId",
              "type": "uint256"
            },
            {
              "internalType": "address",
              "name": "publisherAddress",
              "type": "address"
            },
            {
              "internalType": "string",
              "name": "mediaType",
              "type": "string"
            },
            {
              "internalType": "string",
              "name": "URL",
              "type": "string"
            },
            {
              "internalType": "string",
              "name": "permaLink",
              "type": "string"
            },
            {
              "internalType": "string",
              "name": "thumbnailURL",
              "type": "string"
            },
            {
              "internalType": "string",
              "name": "timestamp",
              "type": "string"
            },
            {
              "internalType": "string",
              "name": "publisherUsername",
              "type": "string"
            },
            {
              "internalType": "string",
              "name": "caption",
              "type": "string"
            },
            {
              "internalType": "string",
              "name": "CollectionName",
              "type": "string"
            }
          ],
          "internalType": "struct NFTea.Media[]",
          "name": "",
          "type": "tuple[]"
        }
      ],
      "stateMutability": "view",
      "type": "function",
      "constant": true
    },
    {
      "inputs": [
        {
          "internalType": "string",
          "name": "CollectionName",
          "type": "string"
        }
      ],
      "name": "getMediaByCollection",
      "outputs": [
        {
          "components": [
            {
              "internalType": "uint256",
              "name": "id",
              "type": "uint256"
            },
            {
              "internalType": "uint256",
              "name": "publisherId",
              "type": "uint256"
            },
            {
              "internalType": "address",
              "name": "publisherAddress",
              "type": "address"
            },
            {
              "internalType": "string",
              "name": "mediaType",
              "type": "string"
            },
            {
              "internalType": "string",
              "name": "URL",
              "type": "string"
            },
            {
              "internalType": "string",
              "name": "permaLink",
              "type": "string"
            },
            {
              "internalType": "string",
              "name": "thumbnailURL",
              "type": "string"
            },
            {
              "internalType": "string",
              "name": "timestamp",
              "type": "string"
            },
            {
              "internalType": "string",
              "name": "publisherUsername",
              "type": "string"
            },
            {
              "internalType": "string",
              "name": "caption",
              "type": "string"
            },
            {
              "internalType": "string",
              "name": "CollectionName",
              "type": "string"
            }
          ],
          "internalType": "struct NFTea.Media[]",
          "name": "",
          "type": "tuple[]"
        }
      ],
      "stateMutability": "view",
      "type": "function",
      "constant": true
    },
    {
      "inputs": [],
      "name": "getCollectionByUser",
      "outputs": [
        {
          "internalType": "string[]",
          "name": "",
          "type": "string[]"
        }
      ],
      "stateMutability": "view",
      "type": "function",
      "constant": true
    },
    {
      "inputs": [
        {
          "internalType": "uint256",
          "name": "_nftId",
          "type": "uint256"
        },
        {
          "internalType": "string",
          "name": "_newCollectionName",
          "type": "string"
        }
      ],
      "name": "changeCollection",
      "outputs": [],
      "stateMutability": "nonpayable",
      "type": "function"
    },
    {
      "inputs": [
        {
          "internalType": "string",
          "name": "_collectionName",
          "type": "string"
        }
      ],
      "name": "deleteCollection",
      "outputs": [],
      "stateMutability": "nonpayable",
      "type": "function"
    }
  ],
  "bytecode": "0x60806040526002600d553480156200001657600080fd5b50604051620042c6380380620042c6833981016040819052620000399162000199565b604080518082018252600681527f4e462d544541000000000000000000000000000000000000000000000000000060208083019182528351808501909452600584527f4e46544541000000000000000000000000000000000000000000000000000000908401528151919291620000b391600291620000f3565b508051620000c9906003906020840190620000f3565b5050600c8054600160a060020a031916600160a060020a0393909316929092179091555062000221565b8280546200010190620001cb565b90600052602060002090601f01602090048101928262000125576000855562000170565b82601f106200014057805160ff191683800117855562000170565b8280016001018555821562000170579182015b828111156200017057825182559160200191906001019062000153565b506200017e92915062000182565b5090565b5b808211156200017e576000815560010162000183565b600060208284031215620001ac57600080fd5b8151600160a060020a0381168114620001c457600080fd5b9392505050565b600281046001821680620001e057607f821691505b602082108114156200021b577f4e487b7100000000000000000000000000000000000000000000000000000000600052602260045260246000fd5b50919050565b61409580620002316000396000f3fe6080604052600436106101b9576000357c0100000000000000000000000000000000000000000000000000000000900480638610f04511610109578063c87b56dd116100a7578063d6287ce411610081578063d6287ce414610524578063d6febde814610539578063e985e9c51461054c578063ec0a37071461059557600080fd5b8063c87b56dd146104c2578063d28d6a26146104e2578063d572734f1461050457600080fd5b806395d89b41116100e357806395d89b4114610436578063a22cb4651461044b578063b5ecf9121461046b578063b88d4fde146104a257600080fd5b80638610f045146103e35780639496c5bb146104035780639507c30d1461041657600080fd5b806323b872dd1161017657806342842e0e1161015057806342842e0e146103565780636352211e1461037657806370a08231146103965780637ea09bd9146103b657600080fd5b806323b872dd146102ca5780632a55205a146102ea5780632b30e1211461032957600080fd5b806301ffc9a7146101be5780630499445b146101f357806306fdde031461022e578063081812fc14610250578063095ea7b31461028857806313c3b22e146102aa575b600080fd5b3480156101ca57600080fd5b506101de6101d936600461354c565b6105b5565b60405190151581526020015b60405180910390f35b3480156101ff57600080fd5b5061022061020e36600461357e565b600b6020526000908152604090205481565b6040519081526020016101ea565b34801561023a57600080fd5b506102436105c6565b6040516101ea91906135f3565b34801561025c57600080fd5b5061027061026b366004613606565b610658565b604051600160a060020a0390911681526020016101ea565b34801561029457600080fd5b506102a86102a336600461361f565b610706565b005b3480156102b657600080fd5b506102a86102c53660046136fa565b61083e565b3480156102d657600080fd5b506102a86102e536600461384f565b610ae2565b3480156102f657600080fd5b5061030a610305366004613890565b610b16565b60408051600160a060020a0390931683526020830191909152016101ea565b34801561033557600080fd5b506103496103443660046138b2565b610bf3565b6040516101ea91906138e7565b34801561036257600080fd5b506102a861037136600461384f565b611267565b34801561038257600080fd5b50610270610391366004613606565b611282565b3480156103a257600080fd5b506102206103b136600461357e565b611310565b3480156103c257600080fd5b506102206103d1366004613606565b60096020526000908152604090205481565b3480156103ef57600080fd5b506102a86103fe366004613606565b6113ad565b6102a8610411366004613606565b611466565b34801561042257600080fd5b506102a8610431366004613a3d565b611498565b34801561044257600080fd5b5061024361159d565b34801561045757600080fd5b506102a8610466366004613a6d565b6115ac565b34801561047757600080fd5b5061048b610486366004613606565b6115b7565b6040516101ea9b9a99989796959493929190613aa0565b3480156104ae57600080fd5b506102a86104bd366004613b76565b611a56565b3480156104ce57600080fd5b506102436104dd366004613606565b611a91565b3480156104ee57600080fd5b506104f7611b8a565b6040516101ea9190613bf6565b34801561051057600080fd5b506102a861051f366004613c57565b611d4e565b34801561053057600080fd5b50610349611dab565b6102a8610547366004613890565b6123aa565b34801561055857600080fd5b506101de610567366004613c9e565b600160a060020a03918216600090815260076020908152604080832093909416825291909152205460ff1690565b3480156105a157600080fd5b506102a86105b03660046138b2565b612423565b60006105c082612561565b92915050565b6060600280546105d590613ccc565b80601f016020809104026020016040519081016040528092919081815260200182805461060190613ccc565b801561064e5780601f106106235761010080835404028352916020019161064e565b820191906000526020600020905b81548152906001019060200180831161063157829003601f168201915b5050505050905090565b600081815260046020526040812054600160a060020a03166106ea5760405160e560020a62461bcd02815260206004820152602c60248201527f4552433732313a20617070726f76656420717565727920666f72206e6f6e657860448201527f697374656e7420746f6b656e000000000000000000000000000000000000000060648201526084015b60405180910390fd5b50600090815260066020526040902054600160a060020a031690565b600061071182611282565b905080600160a060020a031683600160a060020a0316141561079e5760405160e560020a62461bcd02815260206004820152602160248201527f4552433732313a20617070726f76616c20746f2063757272656e74206f776e6560448201527f720000000000000000000000000000000000000000000000000000000000000060648201526084016106e1565b33600160a060020a03821614806107ba57506107ba8133610567565b61082f5760405160e560020a62461bcd02815260206004820152603860248201527f4552433732313a20617070726f76652063616c6c6572206973206e6f74206f7760448201527f6e6572206e6f7220617070726f76656420666f7220616c6c000000000000000060648201526084016106e1565b61083983836125d3565b505050565b60008a815260096020526040902054156108c35760405160e560020a62461bcd02815260206004820152603460248201527f416e204e46542077697468207468617420636f6e74656e74204964206861732060448201527f616c7265616479206265656e206d696e7465642e00000000000000000000000060648201526084016106e1565b6108d1600880546001019055565b60085460008b815260096020908152604080832093909355338252600b905220546108fd906001613d23565b600b600033600160a060020a0316600160a060020a03168152602001908152602001600020819055506040518061016001604052808b81526020018a815260200133600160a060020a0316815260200189815260200188815260200187815260200186815260200185815260200184815260200183815260200182815250600a600061098860085490565b81526020808201929092526040908101600020835181558383015160018201559083015160028201805473ffffffffffffffffffffffffffffffffffffffff1916600160a060020a039092169190911790556060830151805191926109f592600385019290910190613437565b5060808201518051610a11916004840191602090910190613437565b5060a08201518051610a2d916005840191602090910190613437565b5060c08201518051610a49916006840191602090910190613437565b5060e08201518051610a65916007840191602090910190613437565b506101008201518051610a82916008840191602090910190613437565b506101208201518051610a9f916009840191602090910190613437565b506101408201518051610abc91600a840191602090910190613437565b50905050610aca338b61264e565b610ad68a3360646127a3565b50505050505050505050565b610aec33826128e5565b610b0b5760405160e560020a62461bcd0281526004016106e190613d3b565b6108398383836129f0565b6000828152600160209081526040808320815180830190925254600160a060020a038116808352740100000000000000000000000000000000000000009091046bffffffffffffffffffffffff16928201929092528291610bb7575060408051808201909152600054600160a060020a03811682527401000000000000000000000000000000000000000090046bffffffffffffffffffffffff1660208201525b602081015160009061271090610bdb906bffffffffffffffffffffffff1687613d98565b610be59190613dd0565b915196919550909350505050565b336000908152600b6020526040902054606090610c255760405160e560020a62461bcd0281526004016106e190613de4565b336000908152600b602052604081205467ffffffffffffffff811115610c4d57610c4d61364b565b604051908082528060200260200182016040528015610c8657816020015b610c736134bb565b815260200190600190039081610c6b5790505b509050600060015b6008548111158015610cae5750336000908152600b602052604090205482105b1561125e576000818152600a60205260409020543390610ccd90611282565b600160a060020a0316148015610d43575084604051602001610cef9190613e1b565b60405160208183030381529060405280519060200120600a6000838152602001908152602001600020600a01604051602001610d2b9190613e37565b60405160208183030381529060405280519060200120145b1561124c576000818152600a6020908152604091829020825161016081018452815481526001820154928101929092526002810154600160a060020a031692820192909252600382018054919291606084019190610da090613ccc565b80601f0160208091040260200160405190810160405280929190818152602001828054610dcc90613ccc565b8015610e195780601f10610dee57610100808354040283529160200191610e19565b820191906000526020600020905b815481529060010190602001808311610dfc57829003601f168201915b50505050508152602001600482018054610e3290613ccc565b80601f0160208091040260200160405190810160405280929190818152602001828054610e5e90613ccc565b8015610eab5780601f10610e8057610100808354040283529160200191610eab565b820191906000526020600020905b815481529060010190602001808311610e8e57829003601f168201915b50505050508152602001600582018054610ec490613ccc565b80601f0160208091040260200160405190810160405280929190818152602001828054610ef090613ccc565b8015610f3d5780601f10610f1257610100808354040283529160200191610f3d565b820191906000526020600020905b815481529060010190602001808311610f2057829003601f168201915b50505050508152602001600682018054610f5690613ccc565b80601f0160208091040260200160405190810160405280929190818152602001828054610f8290613ccc565b8015610fcf5780601f10610fa457610100808354040283529160200191610fcf565b820191906000526020600020905b815481529060010190602001808311610fb257829003601f168201915b50505050508152602001600782018054610fe890613ccc565b80601f016020809104026020016040519081016040528092919081815260200182805461101490613ccc565b80156110615780601f1061103657610100808354040283529160200191611061565b820191906000526020600020905b81548152906001019060200180831161104457829003601f168201915b5050505050815260200160088201805461107a90613ccc565b80601f01602080910402602001604051908101604052809291908181526020018280546110a690613ccc565b80156110f35780601f106110c8576101008083540402835291602001916110f3565b820191906000526020600020905b8154815290600101906020018083116110d657829003601f168201915b5050505050815260200160098201805461110c90613ccc565b80601f016020809104026020016040519081016040528092919081815260200182805461113890613ccc565b80156111855780601f1061115a57610100808354040283529160200191611185565b820191906000526020600020905b81548152906001019060200180831161116857829003601f168201915b50505050508152602001600a8201805461119e90613ccc565b80601f01602080910402602001604051908101604052809291908181526020018280546111ca90613ccc565b80156112175780601f106111ec57610100808354040283529160200191611217565b820191906000526020600020905b8154815290600101906020018083116111fa57829003601f168201915b50505050508152505083838151811061123257611232613ed6565b6020026020010181905250818061124890613eef565b9250505b8061125681613eef565b915050610c8e565b50909392505050565b61083983838360405180602001604052806000815250611a56565b600081815260046020526040812054600160a060020a0316806105c05760405160e560020a62461bcd02815260206004820152602960248201527f4552433732313a206f776e657220717565727920666f72206e6f6e657869737460448201527f656e7420746f6b656e000000000000000000000000000000000000000000000060648201526084016106e1565b6000600160a060020a0382166113915760405160e560020a62461bcd02815260206004820152602a60248201527f4552433732313a2062616c616e636520717565727920666f7220746865207a6560448201527f726f20616464726573730000000000000000000000000000000000000000000060648201526084016106e1565b50600160a060020a031660009081526005602052604090205490565b336000818152600e60209081526040808320858452909152808220805490839055905190929083908381818185875af1925050503d806000811461140d576040519150601f19603f3d011682016040523d82523d6000602084013e611412565b606091505b50509050806108395760405160e560020a62461bcd02815260206004820152601760248201527f4661696c656420746f207769746864726177204554482e00000000000000000060448201526064016106e1565b336000908152600e6020908152604080832084845290915281208054349290611490908490613d23565b909155505050565b336114a283611282565b600160a060020a0316146114fb5760405160e560020a62461bcd02815260206004820152601c60248201527f53656c6c657220646f6573206e6f74206f776e20746865204e46542e0000000060448201526064016106e1565b600160a060020a0381166000908152600e6020908152604080832085845290915290205461152d908390836001612bd0565b336000908152600e602090815260408083208584528252808320839055600160a060020a0384168352600b909152812080549161156983613eef565b9091555050336000908152600b6020526040812080549161158983613f0a565b91905055506115993382846129f0565b5050565b6060600380546105d590613ccc565b611599338383613044565b600a60205260009081526040902080546001820154600283015460038401805493949293600160a060020a0390921692916115f190613ccc565b80601f016020809104026020016040519081016040528092919081815260200182805461161d90613ccc565b801561166a5780601f1061163f5761010080835404028352916020019161166a565b820191906000526020600020905b81548152906001019060200180831161164d57829003601f168201915b50505050509080600401805461167f90613ccc565b80601f01602080910402602001604051908101604052809291908181526020018280546116ab90613ccc565b80156116f85780601f106116cd576101008083540402835291602001916116f8565b820191906000526020600020905b8154815290600101906020018083116116db57829003601f168201915b50505050509080600501805461170d90613ccc565b80601f016020809104026020016040519081016040528092919081815260200182805461173990613ccc565b80156117865780601f1061175b57610100808354040283529160200191611786565b820191906000526020600020905b81548152906001019060200180831161176957829003601f168201915b50505050509080600601805461179b90613ccc565b80601f01602080910402602001604051908101604052809291908181526020018280546117c790613ccc565b80156118145780601f106117e957610100808354040283529160200191611814565b820191906000526020600020905b8154815290600101906020018083116117f757829003601f168201915b50505050509080600701805461182990613ccc565b80601f016020809104026020016040519081016040528092919081815260200182805461185590613ccc565b80156118a25780601f10611877576101008083540402835291602001916118a2565b820191906000526020600020905b81548152906001019060200180831161188557829003601f168201915b5050505050908060080180546118b790613ccc565b80601f01602080910402602001604051908101604052809291908181526020018280546118e390613ccc565b80156119305780601f1061190557610100808354040283529160200191611930565b820191906000526020600020905b81548152906001019060200180831161191357829003601f168201915b50505050509080600901805461194590613ccc565b80601f016020809104026020016040519081016040528092919081815260200182805461197190613ccc565b80156119be5780601f10611993576101008083540402835291602001916119be565b820191906000526020600020905b8154815290600101906020018083116119a157829003601f168201915b50505050509080600a0180546119d390613ccc565b80601f01602080910402602001604051908101604052809291908181526020018280546119ff90613ccc565b8015611a4c5780601f10611a2157610100808354040283529160200191611a4c565b820191906000526020600020905b815481529060010190602001808311611a2f57829003601f168201915b505050505090508b565b611a6033836128e5565b611a7f5760405160e560020a62461bcd0281526004016106e190613d3b565b611a8b84848484613116565b50505050565b600081815260046020526040902054606090600160a060020a0316611b215760405160e560020a62461bcd02815260206004820152602f60248201527f4552433732314d657461646174613a2055524920717565727920666f72206e6f60448201527f6e6578697374656e7420746f6b656e000000000000000000000000000000000060648201526084016106e1565b6000611b3860408051602081019091526000815290565b90506000815111611b585760405180602001604052806000815250611b83565b80611b628461314c565b604051602001611b73929190613f21565b6040516020818303038152906040525b9392505050565b336000908152600b6020526040902054606090611bbc5760405160e560020a62461bcd0281526004016106e190613de4565b336000908152600b602052604081205467ffffffffffffffff811115611be457611be461364b565b604051908082528060200260200182016040528015611c1757816020015b6060815260200190600190039081611c025790505b509050600060015b6008548111158015611c3f5750336000908152600b602052604090205482105b15611d46576000818152600a60205260409020543390611c5e90611282565b600160a060020a03161415611d34576000818152600a60208190526040909120018054611c8a90613ccc565b80601f0160208091040260200160405190810160405280929190818152602001828054611cb690613ccc565b8015611d035780601f10611cd857610100808354040283529160200191611d03565b820191906000526020600020905b815481529060010190602001808311611ce657829003601f168201915b5050505050838381518110611d1a57611d1a613ed6565b60200260200101819052508180611d3090613eef565b9250505b80611d3e81613eef565b915050611c1f565b509092915050565b336000908152600b6020526040902054611d7d5760405160e560020a62461bcd0281526004016106e190613de4565b6000828152600960209081526040808320548352600a80835292208351610839939190910191840190613437565b336000908152600b6020526040902054606090611ddd5760405160e560020a62461bcd0281526004016106e190613de4565b336000908152600b602052604081205467ffffffffffffffff811115611e0557611e0561364b565b604051908082528060200260200182016040528015611e3e57816020015b611e2b6134bb565b815260200190600190039081611e235790505b509050600060015b6008548111158015611e665750336000908152600b602052604090205482105b15611d46576000818152600a60205260409020543390611e8590611282565b600160a060020a03161415612398576000818152600a6020908152604091829020825161016081018452815481526001820154928101929092526002810154600160a060020a031692820192909252600382018054919291606084019190611eec90613ccc565b80601f0160208091040260200160405190810160405280929190818152602001828054611f1890613ccc565b8015611f655780601f10611f3a57610100808354040283529160200191611f65565b820191906000526020600020905b815481529060010190602001808311611f4857829003601f168201915b50505050508152602001600482018054611f7e90613ccc565b80601f0160208091040260200160405190810160405280929190818152602001828054611faa90613ccc565b8015611ff75780601f10611fcc57610100808354040283529160200191611ff7565b820191906000526020600020905b815481529060010190602001808311611fda57829003601f168201915b5050505050815260200160058201805461201090613ccc565b80601f016020809104026020016040519081016040528092919081815260200182805461203c90613ccc565b80156120895780601f1061205e57610100808354040283529160200191612089565b820191906000526020600020905b81548152906001019060200180831161206c57829003601f168201915b505050505081526020016006820180546120a290613ccc565b80601f01602080910402602001604051908101604052809291908181526020018280546120ce90613ccc565b801561211b5780601f106120f05761010080835404028352916020019161211b565b820191906000526020600020905b8154815290600101906020018083116120fe57829003601f168201915b5050505050815260200160078201805461213490613ccc565b80601f016020809104026020016040519081016040528092919081815260200182805461216090613ccc565b80156121ad5780601f10612182576101008083540402835291602001916121ad565b820191906000526020600020905b81548152906001019060200180831161219057829003601f168201915b505050505081526020016008820180546121c690613ccc565b80601f01602080910402602001604051908101604052809291908181526020018280546121f290613ccc565b801561223f5780601f106122145761010080835404028352916020019161223f565b820191906000526020600020905b81548152906001019060200180831161222257829003601f168201915b5050505050815260200160098201805461225890613ccc565b80601f016020809104026020016040519081016040528092919081815260200182805461228490613ccc565b80156122d15780601f106122a6576101008083540402835291602001916122d1565b820191906000526020600020905b8154815290600101906020018083116122b457829003601f168201915b50505050508152602001600a820180546122ea90613ccc565b80601f016020809104026020016040519081016040528092919081815260200182805461231690613ccc565b80156123635780601f1061233857610100808354040283529160200191612363565b820191906000526020600020905b81548152906001019060200180831161234657829003601f168201915b50505050508152505083838151811061237e5761237e613ed6565b6020026020010181905250818061239490613eef565b9250505b806123a281613eef565b915050611e46565b6123b78282336000612bd0565b336000908152600b602052604081208054916123d283613eef565b9190505550600b60006123e484611282565b600160a060020a031681526020810191909152604001600090812080549161240b83613f0a565b919050555061159961241c83611282565b33846129f0565b336000908152600b60205260409020546124525760405160e560020a62461bcd0281526004016106e190613de4565b600060015b60085481111580156124775750336000908152600b602052604090205482105b15610839576000818152600a6020526040902054339061249690611282565b600160a060020a031614801561250c5750826040516020016124b89190613e1b565b60405160208183030381529060405280519060200120600a6000838152602001908152602001600020600a016040516020016124f49190613e37565b60405160208183030381529060405280519060200120145b1561254f576040805160208082018084526000808452858152600a9283905293909320915161254093929091019190613437565b508161254b81613eef565b9250505b8061255981613eef565b915050612457565b6000600160e060020a031982167f80ac58cd0000000000000000000000000000000000000000000000000000000014806125c45750600160e060020a031982167f5b5e139f00000000000000000000000000000000000000000000000000000000145b806105c057506105c08261329d565b6000818152600660205260409020805473ffffffffffffffffffffffffffffffffffffffff1916600160a060020a038416908117909155819061261582611282565b600160a060020a03167f8c5be1e5ebec7d5bd14f71427d1e84f3dd0314c0f7b2291e5b200ac8c7c3b92560405160405180910390a45050565b600160a060020a0382166126a75760405160e560020a62461bcd02815260206004820181905260248201527f4552433732313a206d696e7420746f20746865207a65726f206164647265737360448201526064016106e1565b600081815260046020526040902054600160a060020a03161561270f5760405160e560020a62461bcd02815260206004820152601c60248201527f4552433732313a20746f6b656e20616c7265616479206d696e7465640000000060448201526064016106e1565b600160a060020a0382166000908152600560205260408120805460019290612738908490613d23565b9091555050600081815260046020526040808220805473ffffffffffffffffffffffffffffffffffffffff1916600160a060020a03861690811790915590518392907fddf252ad1be2c89b69c2b068fc378daa952ba7f163c4a11628f55a4df523b3ef908290a45050565b6127106bffffffffffffffffffffffff8216111561282c5760405160e560020a62461bcd02815260206004820152602a60248201527f455243323938313a20726f79616c7479206665652077696c6c2065786365656460448201527f2073616c6550726963650000000000000000000000000000000000000000000060648201526084016106e1565b600160a060020a0382166128855760405160e560020a62461bcd02815260206004820152601b60248201527f455243323938313a20496e76616c696420706172616d6574657273000000000060448201526064016106e1565b604080518082018252600160a060020a0393841681526bffffffffffffffffffffffff9283166020808301918252600096875260019052919094209351905190911674010000000000000000000000000000000000000000029116179055565b600081815260046020526040812054600160a060020a03166129725760405160e560020a62461bcd02815260206004820152602c60248201527f4552433732313a206f70657261746f7220717565727920666f72206e6f6e657860448201527f697374656e7420746f6b656e000000000000000000000000000000000000000060648201526084016106e1565b600061297d83611282565b905080600160a060020a031684600160a060020a031614806129b8575083600160a060020a03166129ad84610658565b600160a060020a0316145b806129e85750600160a060020a0380821660009081526007602090815260408083209388168352929052205460ff165b949350505050565b82600160a060020a0316612a0382611282565b600160a060020a031614612a825760405160e560020a62461bcd02815260206004820152602560248201527f4552433732313a207472616e736665722066726f6d20696e636f72726563742060448201527f6f776e657200000000000000000000000000000000000000000000000000000060648201526084016106e1565b600160a060020a038216612b005760405160e560020a62461bcd028152602060048201526024808201527f4552433732313a207472616e7366657220746f20746865207a65726f2061646460448201527f726573730000000000000000000000000000000000000000000000000000000060648201526084016106e1565b612b0b6000826125d3565b600160a060020a0383166000908152600560205260408120805460019290612b34908490613f50565b9091555050600160a060020a0382166000908152600560205260408120805460019290612b62908490613d23565b9091555050600081815260046020526040808220805473ffffffffffffffffffffffffffffffffffffffff1916600160a060020a0386811691821790925591518493918716917fddf252ad1be2c89b69c2b068fc378daa952ba7f163c4a11628f55a4df523b3ef91a4505050565b600084815260046020526040902054600160a060020a0316612c375760405160e560020a62461bcd02815260206004820181905260248201527f4e4654207769746820746f6b656e494420646f6573206e6f742065786973742e60448201526064016106e1565b612c4084611282565b600160a060020a031682600160a060020a03161415612ca45760405160e560020a62461bcd02815260206004820152601a60248201527f5573657220616c7265616479206f776e7320746865204e46542e00000000000060448201526064016106e1565b6040517f2a55205a000000000000000000000000000000000000000000000000000000008152600481018590526024810184905260009081903090632a55205a906044016040805180830381865afa158015612d04573d6000803e3d6000fd5b505050506040513d601f19601f82011682018060405250810190612d289190613f67565b9150915060006064600d5487612d3e9190613d98565b612d489190613dd0565b90508315612d6b57612d5a8282613d23565b612d649087613f50565b9550612dd2565b81612d768288613d23565b612d809190613d23565b341015612dd25760405160e560020a62461bcd02815260206004820152601360248201527f496e73756666696369656e742046756e64732e0000000000000000000000000060448201526064016106e1565b600c54604051600091600160a060020a03169083908381818185875af1925050503d8060008114612e1f576040519150601f19603f3d011682016040523d82523d6000602084013e612e24565b606091505b5050905080612e9e5760405160e560020a62461bcd02815260206004820152602160248201527f4661696c656420746f2073656e6420457468657220746f20706c6174666f726d60448201527f2e0000000000000000000000000000000000000000000000000000000000000060648201526084016106e1565b6000612ea989611282565b600160a060020a03168860405160006040518083038185875af1925050503d8060008114612ef3576040519150601f19603f3d011682016040523d82523d6000602084013e612ef8565b606091505b5050905080612f4c5760405160e560020a62461bcd02815260206004820152601f60248201527f4661696c656420746f2073656e6420457468657220746f2073656c6c65722e0060448201526064016106e1565b84600160a060020a0316612f5f8a611282565b600160a060020a03161461303957600085600160a060020a03168560405160006040518083038185875af1925050503d8060008114612fba576040519150601f19603f3d011682016040523d82523d6000602084013e612fbf565b606091505b5050905080610ad65760405160e560020a62461bcd02815260206004820152602960248201527f4661696c656420746f2073656e6420457468657220746f20726f79616c74792060448201527f64656c65676174652e000000000000000000000000000000000000000000000060648201526084016106e1565b505050505050505050565b81600160a060020a031683600160a060020a031614156130a95760405160e560020a62461bcd02815260206004820152601960248201527f4552433732313a20617070726f766520746f2063616c6c65720000000000000060448201526064016106e1565b600160a060020a03838116600081815260076020908152604080832094871680845294825291829020805460ff191686151590811790915591519182527f17307eab39ab6107e8899845ad3d59bd9653f200f220920489ca2b5937696c31910160405180910390a3505050565b6131218484846129f0565b61312d84848484613304565b611a8b5760405160e560020a62461bcd0281526004016106e190613f95565b60608161318c57505060408051808201909152600181527f3000000000000000000000000000000000000000000000000000000000000000602082015290565b8160005b81156131b657806131a081613eef565b91506131af9050600a83613dd0565b9150613190565b60008167ffffffffffffffff8111156131d1576131d161364b565b6040519080825280601f01601f1916602001820160405280156131fb576020820181803683370190505b5090505b84156129e857613210600183613f50565b915061321d600a86613ff2565b613228906030613d23565b7f01000000000000000000000000000000000000000000000000000000000000000281838151811061325c5761325c613ed6565b60200101907effffffffffffffffffffffffffffffffffffffffffffffffffffffffffffff1916908160001a905350613296600a86613dd0565b94506131ff565b6000600160e060020a031982167f2a55205a0000000000000000000000000000000000000000000000000000000014806105c057507f01ffc9a700000000000000000000000000000000000000000000000000000000600160e060020a03198316146105c0565b6000600160a060020a0384163b1561342c576040517f150b7a02000000000000000000000000000000000000000000000000000000008152600160a060020a0385169063150b7a0290613361903390899088908890600401614006565b6020604051808303816000875af192505050801561339c575060408051601f3d908101601f1916820190925261339991810190614042565b60015b6133f9573d8080156133ca576040519150601f19603f3d011682016040523d82523d6000602084013e6133cf565b606091505b5080516133f15760405160e560020a62461bcd0281526004016106e190613f95565b805181602001fd5b600160e060020a0319167f150b7a02000000000000000000000000000000000000000000000000000000001490506129e8565b506001949350505050565b82805461344390613ccc565b90600052602060002090601f01602090048101928261346557600085556134ab565b82601f1061347e57805160ff19168380011785556134ab565b828001600101855582156134ab579182015b828111156134ab578251825591602001919060010190613490565b506134b792915061351e565b5090565b60405180610160016040528060008152602001600081526020016000600160a060020a0316815260200160608152602001606081526020016060815260200160608152602001606081526020016060815260200160608152602001606081525090565b5b808211156134b7576000815560010161351f565b600160e060020a03198116811461354957600080fd5b50565b60006020828403121561355e57600080fd5b8135611b8381613533565b600160a060020a038116811461354957600080fd5b60006020828403121561359057600080fd5b8135611b8381613569565b60005b838110156135b657818101518382015260200161359e565b83811115611a8b5750506000910152565b600081518084526135df81602086016020860161359b565b601f01601f19169290920160200192915050565b602081526000611b8360208301846135c7565b60006020828403121561361857600080fd5b5035919050565b6000806040838503121561363257600080fd5b823561363d81613569565b946020939093013593505050565b60e060020a634e487b7102600052604160045260246000fd5b600067ffffffffffffffff8084111561367f5761367f61364b565b604051601f8501601f19908116603f011681019082821181831017156136a7576136a761364b565b816040528093508581528686860111156136c057600080fd5b858560208301376000602087830101525050509392505050565b600082601f8301126136eb57600080fd5b611b8383833560208501613664565b6000806000806000806000806000806101408b8d03121561371a57600080fd5b8a35995060208b0135985060408b013567ffffffffffffffff8082111561374057600080fd5b61374c8e838f016136da565b995060608d013591508082111561376257600080fd5b61376e8e838f016136da565b985060808d013591508082111561378457600080fd5b6137908e838f016136da565b975060a08d01359150808211156137a657600080fd5b6137b28e838f016136da565b965060c08d01359150808211156137c857600080fd5b6137d48e838f016136da565b955060e08d01359150808211156137ea57600080fd5b6137f68e838f016136da565b94506101008d013591508082111561380d57600080fd5b6138198e838f016136da565b93506101208d013591508082111561383057600080fd5b5061383d8d828e016136da565b9150509295989b9194979a5092959850565b60008060006060848603121561386457600080fd5b833561386f81613569565b9250602084013561387f81613569565b929592945050506040919091013590565b600080604083850312156138a357600080fd5b50508035926020909101359150565b6000602082840312156138c457600080fd5b813567ffffffffffffffff8111156138db57600080fd5b6129e8848285016136da565b60208082528251828201819052600091906040908185019080840286018301878501865b83811015613a2f57888303603f19018552815180518452878101518885015286810151600160a060020a0381168886015261016090506060808301518282880152613958838801826135c7565b925050506080808301518683038288015261397383826135c7565b9250505060a0808301518683038288015261398e83826135c7565b9250505060c080830151868303828801526139a983826135c7565b9250505060e080830151868303828801526139c483826135c7565b9250505061010080830151868303828801526139e083826135c7565b9250505061012080830151868303828801526139fc83826135c7565b925050506101408083015192508582038187015250613a1b81836135c7565b96890196945050509086019060010161390b565b509098975050505050505050565b60008060408385031215613a5057600080fd5b823591506020830135613a6281613569565b809150509250929050565b60008060408385031215613a8057600080fd5b8235613a8b81613569565b915060208301358015158114613a6257600080fd5b60006101608d83528c6020840152613ac3604084018d600160a060020a03169052565b806060840152613ad58184018c6135c7565b90508281036080840152613ae9818b6135c7565b905082810360a0840152613afd818a6135c7565b905082810360c0840152613b1181896135c7565b905082810360e0840152613b2581886135c7565b9050828103610100840152613b3a81876135c7565b9050828103610120840152613b4f81866135c7565b9050828103610140840152613b6481856135c7565b9e9d5050505050505050505050505050565b60008060008060808587031215613b8c57600080fd5b8435613b9781613569565b93506020850135613ba781613569565b925060408501359150606085013567ffffffffffffffff811115613bca57600080fd5b8501601f81018713613bdb57600080fd5b613bea87823560208401613664565b91505092959194509250565b600060208083018184528085518083526040860191506040848202870101925083870160005b82811015613c4a57603f19888603018452613c388583516135c7565b94509285019290850190600101613c1c565b5092979650505050505050565b60008060408385031215613c6a57600080fd5b82359150602083013567ffffffffffffffff811115613c8857600080fd5b613c94858286016136da565b9150509250929050565b60008060408385031215613cb157600080fd5b8235613cbc81613569565b91506020830135613a6281613569565b600281046001821680613ce057607f821691505b60208210811415613d045760e060020a634e487b7102600052602260045260246000fd5b50919050565b60e060020a634e487b7102600052601160045260246000fd5b60008219821115613d3657613d36613d0a565b500190565b60208082526031908201527f4552433732313a207472616e736665722063616c6c6572206973206e6f74206f60408201527f776e6572206e6f7220617070726f766564000000000000000000000000000000606082015260800190565b6000816000190483118215151615613db257613db2613d0a565b500290565b60e060020a634e487b7102600052601260045260246000fd5b600082613ddf57613ddf613db7565b500490565b60208082526016908201527f5468652075736572206f776e73206e6f204e4654732e00000000000000000000604082015260600190565b60008251613e2d81846020870161359b565b9190910192915050565b8154600090819060028104600180831680613e5357607f831692505b6020808410821415613e765760e060020a634e487b710286526022600452602486fd5b818015613e8a5760018114613e9b57613ec8565b60ff19861689528489019650613ec8565b60008a81526020902060005b86811015613ec05781548b820152908501908301613ea7565b505084890196505b509498975050505050505050565b60e060020a634e487b7102600052603260045260246000fd5b6000600019821415613f0357613f03613d0a565b5060010190565b600081613f1957613f19613d0a565b506000190190565b60008351613f3381846020880161359b565b835190830190613f4781836020880161359b565b01949350505050565b600082821015613f6257613f62613d0a565b500390565b60008060408385031215613f7a57600080fd5b8251613f8581613569565b6020939093015192949293505050565b60208082526032908201527f4552433732313a207472616e7366657220746f206e6f6e20455243373231526560408201527f63656976657220696d706c656d656e7465720000000000000000000000000000606082015260800190565b60008261400157614001613db7565b500690565b6000600160a060020a0380871683528086166020840152508360408301526080606083015261403860808301846135c7565b9695505050505050565b60006020828403121561405457600080fd5b8151611b838161353356fea2646970667358221220e6becf290b3f6fc107b10b6a470bb434e6cee0f269cb3a56f26b901ce8fed53b64736f6c634300080b0033",
  "immutableReferences": {},
  "source": "// contracts/MyNFT.sol\r\n// SPDX-License-Identifier: MIT\r\n//pragma experimental ABIEncoderV2;\r\npragma solidity ^0.8.0;\r\n// source : https://www.youtube.com/watch?v=t_vTQEQVCkQ&ab_channel=TechWithTim\r\nimport \"@openzeppelin/contracts/token/ERC721/ERC721.sol\";\r\nimport \"@openzeppelin/contracts/token/ERC721/extensions/ERC721Royalty.sol\";\r\nimport \"@openzeppelin/contracts/utils/Counters.sol\";\r\n\r\ncontract NFTea is ERC721Royalty {\r\n    struct Media {\r\n        uint256 id;\r\n        uint256 publisherId;\r\n        address publisherAddress;\r\n        string  mediaType;\r\n        string  URL;\r\n        string  permaLink;\r\n        string  thumbnailURL;\r\n        string  timestamp;\r\n        string  publisherUsername;\r\n        string  caption;\r\n        string  CollectionName;\r\n    }\r\n\r\n    using Counters for Counters.Counter;\r\n    Counters.Counter private _contentCount;\r\n    mapping (uint256 => uint256) public nftToMedia; // IG_ID -> Map_Counter -> Media_Struct\r\n    mapping (uint256 => Media) public contents;\r\n    mapping (address => uint256) public contentCountByUser;\r\n    address payable private _productOwner;\r\n    uint256 commission = 2;\r\n    mapping (address => mapping(uint256 => uint256)) offers; // User_Address -> NFT_ID -> WEI\r\n\r\n    constructor(address productOwner) ERC721(\"NF-TEA\", \"NFTEA\") {\r\n        // Set Product Owner address for marketplace markup\r\n        _productOwner = payable(productOwner);\r\n    }\r\n\r\n    function mintNFTea (\r\n        uint256 id,\r\n        uint256 publisherId,\r\n        string memory  mediaType,\r\n        string memory  URL,\r\n        string memory  permaLink,\r\n        string memory  thumbnailURL,\r\n        string memory  timestamp,\r\n        string memory  publisherUsername,\r\n        string memory  caption,\r\n        string memory  CollectionName\r\n    )\r\n    public\r\n    {\r\n        require(nftToMedia[id] == 0, \"An NFT with that content Id has already been minted.\");\r\n\r\n        _contentCount.increment();\r\n        nftToMedia[id] = _contentCount.current();\r\n        contentCountByUser[msg.sender] = contentCountByUser[msg.sender] + 1;\r\n\r\n        contents[_contentCount.current()] = Media(\r\n            id,\r\n            publisherId,\r\n            msg.sender,\r\n            mediaType,\r\n            URL,\r\n            permaLink,\r\n            thumbnailURL,\r\n            timestamp,\r\n            publisherUsername,\r\n            caption,\r\n            CollectionName\r\n        );\r\n\r\n        _mint(msg.sender, id);\r\n\r\n        // Set default 1% royalty for all tokens\r\n        _setTokenRoyalty(id, msg.sender, 0.01*10000); // Denominator is 10 000 by default in the interface\r\n    }\r\n\r\n    // Buyer initiates the transaction\r\n    function buy (uint256 tokenId, uint256 price) external payable {\r\n        _payFees(tokenId, price, payable(msg.sender), false);\r\n\r\n        contentCountByUser[msg.sender] ++;\r\n        contentCountByUser[ownerOf(tokenId)] --;\r\n\r\n        _transfer(ownerOf(tokenId), msg.sender, tokenId);\r\n    }\r\n\r\n    function proposeTradeOffer(uint256 tokenId) external payable {\r\n        offers[msg.sender][tokenId] += msg.value;\r\n    }\r\n\r\n    function withdrawOffer(uint256 tokenId) external {\r\n        uint256 offer = offers[msg.sender][tokenId];\r\n        offers[msg.sender][tokenId] = 0;\r\n\r\n        (bool withdrew, ) = payable(msg.sender).call{value: offer}(\"\");\r\n        require(withdrew, \"Failed to withdraw ETH.\");\r\n    }\r\n\r\n    // Seller initiates the transaction\r\n    function acceptTradeOffer (uint256 tokenId, address payable buyer) external {\r\n        require(ownerOf(tokenId) == msg.sender, \"Seller does not own the NFT.\");\r\n\r\n        _payFees(tokenId, offers[buyer][tokenId], buyer, true);\r\n        offers[msg.sender][tokenId] = 0;\r\n\r\n        contentCountByUser[buyer] ++;\r\n        contentCountByUser[msg.sender] --;\r\n\r\n        _transfer(msg.sender, buyer, tokenId);\r\n    }\r\n\r\n    function _payFees(uint256 tokenId, uint256 price, address payable buyer, bool bid) private {\r\n        require(_exists(tokenId), \"NFT with tokenID does not exist.\");\r\n        require(buyer != ownerOf(tokenId), \"User already owns the NFT.\");\r\n\r\n        // Determine Royalty & Commision\r\n        (address receiver, uint256 royalty) = this.royaltyInfo(tokenId, price);\r\n        uint256 commissionValue = price * commission / 100;\r\n\r\n        // Bidding fees can't overflow bid (seller pays for transaction)\r\n        if(bid) {\r\n            price -= commissionValue + royalty;\r\n        } else {\r\n            // Check Funds (buyer pays for transaction)\r\n            require(msg.value >= price + commissionValue + royalty, \"Insufficient Funds.\");\r\n        }\r\n\r\n        // Pay Platform Fees\r\n        (bool successPlatform, ) = _productOwner.call{value: commissionValue}(\"\");\r\n        require(successPlatform, \"Failed to send Ether to platform.\");\r\n\r\n        // Pay Owner\r\n        (bool success, ) = payable(ownerOf(tokenId)).call{value: price}(\"\");\r\n        require(success, \"Failed to send Ether to seller.\");\r\n\r\n        // Pay Royalties Fees\r\n        if(ownerOf(tokenId) != receiver) {\r\n            (bool successRoyalty, ) = payable(receiver).call{value: royalty}(\"\");\r\n            require(successRoyalty, \"Failed to send Ether to royalty delegate.\");\r\n        }\r\n    }\r\n\r\n    function getMediaByUser () public view returns (Media[] memory) {\r\n        require(contentCountByUser[msg.sender] != 0, \"The user owns no NFTs.\");\r\n\r\n        Media[] memory memoryArray = new Media[](contentCountByUser[msg.sender]);\r\n        uint256 j = 0;\r\n\r\n        for(uint256 i = 1; i <= _contentCount.current() && j < contentCountByUser[msg.sender]; i++) {\r\n            if(ownerOf(contents[i].id) == msg.sender) {\r\n                memoryArray[j] = contents[i];\r\n                j++;\r\n            }\r\n        }\r\n\r\n        return memoryArray;\r\n    }\r\n\r\n    function getMediaByCollection (string memory CollectionName) public view returns (Media[] memory) {\r\n        require(contentCountByUser[msg.sender] != 0, \"The user owns no NFTs.\");\r\n\r\n        Media[] memory memoryArray = new Media[](contentCountByUser[msg.sender]);\r\n        uint256 j = 0;\r\n\r\n        for(uint256 i = 1; i <= _contentCount.current() && j < contentCountByUser[msg.sender]; i++) {\r\n            if(ownerOf(contents[i].id) == msg.sender &&\r\n                keccak256(abi.encodePacked((contents[i].CollectionName))) == keccak256(abi.encodePacked((CollectionName)))) {\r\n                memoryArray[j] = contents[i];\r\n                j++;\r\n            }\r\n        }\r\n\r\n        return memoryArray;\r\n    }\r\n\r\n    function getCollectionByUser () public view returns (string[] memory) {\r\n        require(contentCountByUser[msg.sender] != 0, \"The user owns no NFTs.\");\r\n\r\n        string[] memory memoryArray = new string[](contentCountByUser[msg.sender]);\r\n        uint256 j = 0;\r\n\r\n        for(uint256 i = 1; i <= _contentCount.current() && j < contentCountByUser[msg.sender]; i++) {\r\n            if(ownerOf(contents[i].id) == msg.sender) {\r\n                memoryArray[j] = contents[i].CollectionName;\r\n                j++;\r\n            }\r\n        }\r\n\r\n        return memoryArray;\r\n    }\r\n\r\n    function changeCollection (uint256 _nftId, string memory _newCollectionName) public {\r\n        require(contentCountByUser[msg.sender] != 0, \"The user owns no NFTs.\");\r\n\r\n        contents[nftToMedia[_nftId]].CollectionName = _newCollectionName;\r\n    }\r\n\r\n    function deleteCollection (string memory _collectionName) public {\r\n        require(contentCountByUser[msg.sender] != 0, \"The user owns no NFTs.\");\r\n\r\n        uint256 j = 0;\r\n\r\n        for(uint256 i = 1; i <= _contentCount.current() && j < contentCountByUser[msg.sender]; i++) {\r\n            if(ownerOf(contents[i].id) == msg.sender\r\n                && keccak256(abi.encodePacked((contents[i].CollectionName))) == keccak256(abi.encodePacked((_collectionName)))) {\r\n                contents[i].CollectionName = \"\";\r\n                j++;\r\n            }\r\n        }\r\n    }\r\n}\r\n",
  "sourcePath": "C:\\Users\\mirce\\OneDrive\\Documents\\GitHub\\NF-TEA\\NFTEA-Blockchain\\contracts\\NFTEA.sol",
  "compiler": {
    "name": "solc",
    "version": "0.8.11+commit.d7f03943.Emscripten.clang"
  },
  "schemaVersion": "3.4.6",
  "updatedAt": "2022-03-30T14:18:55.626Z",
  "networkType": "ethereum",
  "devdoc": {
    "kind": "dev",
    "methods": {
      "approve(address,uint256)": {
        "details": "See {IERC721-approve}."
      },
      "balanceOf(address)": {
        "details": "See {IERC721-balanceOf}."
      },
      "getApproved(uint256)": {
        "details": "See {IERC721-getApproved}."
      },
      "isApprovedForAll(address,address)": {
        "details": "See {IERC721-isApprovedForAll}."
      },
      "name()": {
        "details": "See {IERC721Metadata-name}."
      },
      "ownerOf(uint256)": {
        "details": "See {IERC721-ownerOf}."
      },
      "royaltyInfo(uint256,uint256)": {
        "details": "Returns how much royalty is owed and to whom, based on a sale price that may be denominated in any unit of exchange. The royalty amount is denominated and should be payed in that same unit of exchange."
      },
      "safeTransferFrom(address,address,uint256)": {
        "details": "See {IERC721-safeTransferFrom}."
      },
      "safeTransferFrom(address,address,uint256,bytes)": {
        "details": "See {IERC721-safeTransferFrom}."
      },
      "setApprovalForAll(address,bool)": {
        "details": "See {IERC721-setApprovalForAll}."
      },
      "supportsInterface(bytes4)": {
        "details": "See {IERC165-supportsInterface}."
      },
      "symbol()": {
        "details": "See {IERC721Metadata-symbol}."
      },
      "tokenURI(uint256)": {
        "details": "See {IERC721Metadata-tokenURI}."
      },
      "transferFrom(address,address,uint256)": {
        "details": "See {IERC721-transferFrom}."
      }
    },
    "version": 1
  },
  "userdoc": {
    "kind": "user",
    "methods": {},
    "version": 1
  }
}